:020000040000FA
:100000000A128A11F82F00308A000408840A820735
:1000100000343734383439344134343435343634B8
:10002000423431343234333443344634303445345A
:100030004434FF343134323433343434433465346B
:100040007234723461346E3464346F3420347434F6
:100050006134703461342E342E342E3400345334F1
:100060006534613420346234693465346E347634F6
:1000700065346E34693464346F3400344334653429
:1000800072347234613472346134203465346E34C5
:1000900020343334733400344434613472342034C3
:1000A000503461347334733477346F34723464345D
:1000B0000034413462347234693465346E346434EB
:1000C0006F342E342E342E34003450347234653470
:1000D000733469346F346E346134723420343034A4
:1000E00000344234693465346E34763465346E34A9
:1000F000693464346F3400344D346134723467349D
:1001000061347234693474346F3400344C34613483
:0C0110007334743469346D34613400348D
:1008800000300A128A1175240A128A1101300A12E4
:100890008A1175240800F030831603138600831232
:1008A000031386010730F1007D30F000F00B562C69
:1008B000F10B562C0800F000701C622C83120313FD
:1008C0000716652C831203130712F01C692C871678
:1008D0006A2C8712701D6E2C07176F2C0713F01DE2
:1008E000732C8717080087130800F3008312031383
:1008F000071173080A128A115B240A128A118312E3
:10090000031387150630F2003030F100F10B862C0E
:10091000F20B862C00008312031387110800F700E6
:10092000F501F6017508770784000A128A11032081
:100930000A128A11003A0319080075087707840023
:100940000A128A1103200A128A110A128A11B1248A
:100950000A128A110130F5070318F60A0030F6076B
:10096000922CF40074080F39F1007108F200740839
:10097000F039F1007108F3008312031307157308AF
:10098000F10004300310F10CFF3E031DC22C71086E
:100990000A128A115B240A128A1183120313871523
:1009A0000D30F100F10BD22C831203138711720862
:1009B0000A128A115B240A128A1183120313871503
:1009C0000D30F100F10BE22C8312031387110800A4
:1009D000F7007703031D0D2D74087F3EF5007508A1
:1009E000FA007A08F50004300310F50CFF3E031DF1
:1009F000F42C7508F6007608F8007A080F39F5002F
:100A00007508F90078080A128A1175240A128A11E9
:100A100079080A128A117524080002307706031D2E
:100A200008007408BF3EF5007508FA007A08F50062
:100A300004300310F50CFF3E031D192D7508F60058
:100A40007608F8007A080F39F5007508F90078087B
:100A50000A128A1175240A128A1179080A128A1157
:100A6000752408008316031387018312031387017B
:100A700000300A128A115B240A128A111A30F5001A
:100A8000F830F400F40B422DF50B422D000003303A
:100A90000A128A1175240A128A110730F5007D3076
:100AA000F400F40B512DF50B512D03300A128A116D
:100AB00075240A128A110F30F5004730F400F40B48
:100AC0005F2DF50B5F2D642D03300A128A117524FA
:100AD0000A128A1102300A128A1175240A128A1126
:100AE00002300A128A1175240A128A1108300A1279
:100AF0008A1175240A128A1100300A128A1175248B
:100B00000A128A110C300A128A1175240A128A11EB
:100B100000300A128A1175240A128A1106300A124C
:100B20008A1175240800F101F201F20A721C9C2D51
:100B30008312031306149F2D8312031306107208E9
:100B4000F00001300310F00CFF3E031DA22D701CBD
:100B5000AD2D831203138614B02D83120313861058
:100B60007208F00002300310F00CFF3E031DB32D9D
:100B7000701CBE2D831203130615C12D831203139F
:100B800006117208F00003300310F00CFF3E031D45
:100B9000C42D701CCF2D831203138615D22D831202
:100BA00003138611C730F000D52DF00BD42DD82DAE
:100BB000D92D83120313061AF92D0130F0007008A5
:100BC000F107861AF92D0130F0007008F107061BB5
:100BD000F92D0130F0007008F107861BF92D013066
:100BE000F0007008F1070310F20D10307202031CC0
:100BF000962D061086100611861171082906031914
:100C00000C2E7108F0007008A9007108013E8400E4
:100C10000A128A1103200800113084000A128A1176
:100C2000032008008316031388018312031388012D
:100C30000A128A1132250A128A110A128A114B24C9
:100C40000A128A110A128A1140240A128A110A12FF
:100C50008A1140240A128A11F401F40A01300A129E
:100C60008A11E8240A128A1169300A128A118F2423
:100C70000A128A11F401F40A02300A128A11E824D5
:100C80000A128A115D300A128A118F240A128A11FF
:100C900083120313A401A40A831203132403031D64
:100CA000272E0A128A1193250A128A11FB007B084B
:100CB00083120313A60030302606031D4C2E0A12A1
:100CC0008A1140240A128A11F401F40A01300A122E
:100CD0008A11E8240A128A1144300A128A118F24D8
:100CE0000A128A1183120313A7010430831203131B
:100CF00027020318AA2E0A128A1193250A128A11B2
:100D0000FB007B0883120313A600260A0319752E25
:100D1000043027020318752E2608FB002708203E02
:100D200084007B08831380000130FB007B08A70749
:100D30002708053EFB007B08F40002300A128A11E6
:100D4000E8240A128A112A300A128A11B1240A12DE
:100D50008A11752EA801A501A50A2808203E840045
:100D600083130008FB002808123E84000A128A112F
:100D700003200A128A117B06031DA5010130FB0026
:100D80007B08A80704302802031CAB2EA40125030E
:100D9000031DC92F0A128A1140240A128A11F40174
:100DA000F40A01300A128A11E8240A128A11513019
:100DB0000A128A118F240A128A11FF308312031338
:100DC000880088100230FD000430FC00BA30FB00BF
:100DD000FB0BE82EFC0BE82EFD0BE82E0000831227
:100DE000031308110230FD000430FC00BA30FB0090
:100DF000FB0BF82EFC0BF82EFD0BF82E00008312D7
:100E0000031308150230FD000430FC00BA30FB006B
:100E1000FB0B082FFC0B082FFD0B082F0000831283
:100E2000031308110230FD000430FC00BA30FB004F
:100E3000FB0B182FFC0B182FFD0B182F0000831233
:100E4000031308150230FD000430FC00BA30FB002B
:100E5000FB0B282FFC0B282FFD0B282F00008312E3
:100E6000031388010A128A1140240A128A11F4011C
:100E7000F40A01300A128A11E8240A128A11273072
:100E80000A128A118F240A128A11F401F40A02301C
:100E90000A128A11E8240A128A1136300A128A11BB
:100EA0008F240A128A111030FD003930FC000D30F9
:100EB000FB00FB0B592FFC0B592FFD0B592F602FFB
:100EC0000A128A1140240A128A11F401F40A01302C
:100ED0000A128A11E8240A128A1116300A128A119B
:100EE0008F240A128A11FF3083120313880008101E
:100EF0000230FD000430FC00BA30FB00FB0B7E2FFB
:100F0000FC0B7E2FFD0B7E2F0000831203130811B4
:100F10000230FD000430FC00BA30FB00FB0B8E2FCA
:100F2000FC0B8E2FFD0B8E2F000083120313081570
:100F30000230FD000430FC00BA30FB00FB0B9E2F9A
:100F4000FC0B9E2FFD0B9E2F000083120313081134
:100F50000230FD000430FC00BA30FB00FB0BAE2F6A
:100F6000FC0BAE2FFD0BAE2F0000831203130815F0
:100F70000230FD000430FC00BA30FB00FB0BBE2F3A
:100F8000FC0BBE2FFD0BBE2F000083120313880144
:100F90004C2E0A128A1140240A128A11F401F40A12
:100FA00001300A128A11E8240A128A117E300A12CC
:100FB0008A118F240A128A11F401F40A02300A12EB
:100FC0008A11E8240A128A1174300A128A118F24B5
:100FD0000A128A110B30FD002630FC005D30FB0048
:100FE000FB0BF02FFC0BF02FFD0BF02FF72F4C2EEF
:100FF00083120313A901AA0183010A128A11122E76
:02400E00393F38
:00000001FF
