:020000040000FA
:100000000A128A11F82F00308A000408840A820735
:1000100000343734383439344134343435343634B8
:10002000423431343234333443344634303445345A
:100030004434FF343134323433343434433465346B
:100040007234723461346E3464346F3420347434F6
:100050006134703461342E342E342E3400345334F1
:100060006534613420346234693465346E347634F6
:1000700065346E34693464346F3400344334653429
:1000800072347234613472346134203465346E34C5
:1000900020343334733400344434613472342034C3
:1000A000503461347334733477346F34723464345D
:1000B0000034413462347234693465346E346434EB
:1000C0006F342E342E342E34003450347234653470
:1000D000733469346F346E346134723420343034A4
:1000E00000344234693465346E34763465346E34A9
:1000F000693464346F3400344D346134723467349D
:1001000061347234693474346F3400344C34613483
:0C0110007334743469346D34613400348D
:1008860000300A128A1178240A128A1101300A12DB
:100896008A1178240800F030831603138600831229
:1008A600031386010730F1007D30F000F00B592C60
:1008B600F10B592C0800F000701C652C83120313F1
:1008C6000716682C831203130712F01C6C2C87166C
:1008D6006D2C8712701D712C0717722C0713F01DD3
:1008E600762C8717080087130800F300831203137A
:1008F600071173080A128A115E240A128A118312DA
:10090600031387150630F2003030F100F10B892C05
:10091600F20B892C00008312031387110800F700DD
:10092600F501F6017508770784000A128A1103207B
:100936000A128A11003A031908007508770784001D
:100946000A128A1103200A128A110A128A11B42481
:100956000A128A110130F5070318F60A0030F60765
:10096600952CF40074080F39F1007108F200740830
:10097600F039F1007108F3008312031307157308A9
:10098600F10004300310F10CFF3E031DC52C710865
:100996000A128A115E240A128A118312031387151A
:1009A6000D30F100F10BD52C831203138711720859
:1009B6000A128A115E240A128A11831203138715FA
:1009C6000D30F100F10BE52C83120313871108009B
:1009D600F7007703031D102D74087F3EF500750898
:1009E600FA007A08F50004300310F50CFF3E031DEB
:1009F600F72C7508F6007608F8007A080F39F50026
:100A06007508F90078080A128A1178240A128A11E0
:100A160079080A128A117824080002307706031D25
:100A260008007408BF3EF5007508FA007A08F5005C
:100A360004300310F50CFF3E031D1C2D7508F6004F
:100A46007608F8007A080F39F5007508F900780875
:100A56000A128A1178240A128A1179080A128A114E
:100A66007824080083160313870183120313870172
:100A760000300A128A115E240A128A111A30F50011
:100A8600F830F400F40B452DF50B452D000003302E
:100A96000A128A1178240A128A110730F5007D306D
:100AA600F400F40B542DF50B542D03300A128A1161
:100AB60078240A128A110F30F5004730F400F40B3F
:100AC600622DF50B622D672D03300A128A117824E8
:100AD6000A128A1102300A128A1178240A128A111D
:100AE60002300A128A1178240A128A1108300A1270
:100AF6008A1178240A128A1100300A128A1178247F
:100B06000A128A110C300A128A1178240A128A11E2
:100B160000300A128A1178240A128A1106300A1243
:100B26008A1178240800F101F201F20A721C9F2D45
:100B3600831203130614A22D8312031306107208E0
:100B4600F00001300310F00CFF3E031DA52D701CB4
:100B5600B02D831203138614B32D8312031386104C
:100B66007208F00002300310F00CFF3E031DB62D94
:100B7600701CC12D831203130615C42D8312031393
:100B860006117208F00003300310F00CFF3E031D3F
:100B9600C72D701CD22D831203138615D52D8312F3
:100BA60003138611C730F000D82DF00BD72DDB2D9F
:100BB600DC2D83120313061AFC2D0130F000700899
:100BC600F107861AFC2D0130F0007008F107061BAC
:100BD600FC2D0130F0007008F107861BFC2D01305A
:100BE600F0007008F1070310F20D10307202031CBA
:100BF600992D06108610061186117108290603190B
:100C06000F2E7108F0007008A9007108013E8400DB
:100C16000A128A1103200800113084000A128A1170
:100C26000320080083160313880183120313880127
:100C36000A128A1135250A128A110A128A114E24BD
:100C46000A128A110A128A1143240A128A11F4011D
:100C5600F40A01300A128A11EB240A128A11693049
:100C66000A128A1192240A128A11F401F40A023035
:100C76000A128A11EB240A128A115D300A128A11AD
:100C860092240A128A1183120313A401A40A83125E
:100C9600031324080319252E0A128A1196250A120F
:100CA6008A11FB007B0883120313A6003030260648
:100CB600031D4A2E0A128A1143240A128A11F401CC
:100CC600F40A01300A128A11EB240A128A114430FE
:100CD6000A128A1192240A128A1183120313A70197
:100CE60004308312031327020318A82E0A128A114E
:100CF60096250A128A11FB007B0883120313A600AD
:100D0600260A0319732E043027020318732E2608A9
:100D1600FB002708203E84007B08831380000130F7
:100D2600FB007B08A7072708053EFB007B08F400AD
:100D360002300A128A11EB240A128A112A300A1288
:100D46008A11B4240A128A11732EA801A501A50AD4
:100D56002808203E840083130008FB002808123E62
:100D660084000A128A1103200A128A117B060319CB
:100D7600BE2EA501C62E0130FB007B08A807043055
:100D86002802031CA92EA40125080319C92F0A123B
:100D96008A1143240A128A11F401F40A01300A1254
:100DA6008A11EB240A128A1151300A128A119224EE
:100DB6000A128A11FF30831203138800881002304A
:100DC600FD000430FC00BA30FB00FB0BE82EFC0BE8
:100DD600E82EFD0BE82E00008312031308110230E3
:100DE600FD000430FC00BA30FB00FB0BF82EFC0BB8
:100DF600F82EFD0BF82E000083120313081502309F
:100E0600FD000430FC00BA30FB00FB0B082FFC0B86
:100E1600082FFD0B082F0000831203130811023060
:100E2600FD000430FC00BA30FB00FB0B182FFC0B56
:100E3600182FFD0B182F000083120313081502301C
:100E4600FD000430FC00BA30FB00FB0B282FFC0B26
:100E5600282FFD0B282F00008312031388010A1286
:100E66008A1143240A128A11F401F40A01300A1283
:100E76008A11EB240A128A1127300A128A11922447
:100E86000A128A11F401F40A02300A128A11EB24BA
:100E96000A128A1136300A128A1192240A128A110B
:100EA6001030FD003930FC000D30FB00FB0B592FD4
:100EB600FC0B592FFD0B592F602F0A128A11432460
:100EC6000A128A11F401F40A01300A128A11EB247B
:100ED6000A128A1116300A128A1192240A128A11EB
:100EE600FF3083120313880008100230FD0004301F
:100EF600FC00BA30FB00FB0B7E2FFC0B7E2FFD0B9C
:100F06007E2F00008312031308110230FD00043007
:100F1600FC00BA30FB00FB0B8E2FFC0B8E2FFD0B5B
:100F26008E2F00008312031308150230FD000430D3
:100F3600FC00BA30FB00FB0B9E2FFC0B9E2FFD0B1B
:100F46009E2F00008312031308110230FD000430A7
:100F5600FC00BA30FB00FB0BAE2FFC0BAE2FFD0BDB
:100F6600AE2F00008312031308150230FD00043073
:100F7600FC00BA30FB00FB0BBE2FFC0BBE2FFD0B9B
:100F8600BE2F00008312031388014A2E0A128A110B
:100F960043240A128A11F401F40A01300A128A1152
:100FA600EB240A128A117E300A128A1192240A123E
:100FB6008A11F401F40A02300A128A11EB240A1289
:100FC6008A1174300A128A1192240A128A110B307D
:100FD600FD002630FC005D30FB00FB0BF02FFC0B08
:100FE600F02FFD0BF02FF72F4A2E83120313A901C2
:0A0FF600AA0183010A128A11152EC8
:02400E00393F38
:00000001FF
