:060000000A128A11FC2F18
:10000800720871047004031908008030F2060800B1
:100018008E30FC007C08FD00FF307B050319222888
:1000280001300310FB0CFA0CF90CF80CFF3E031D11
:1000380015280130FC007C08FD0710287808F0001E
:100048007908F1007A08F2007D08FC007C08F300CA
:10005800F4010A168A1189247008F8007108F90059
:100068007208FA00080083160313B5005B30831288
:100078000313DE005E0883160313A3000130831206
:100088000313DA07FF305A0784000A168A110A2078
:100098000A128A11DE005E0883160313B8003808B6
:1000A8000319F92F2530380603196E2838088312EA
:1000B8000313DE0083160313350884008312031329
:1000C8005E08831380000130DE005E088316031388
:1000D800B5074228A601A701A401A50183120313AD
:1000E8005A0884000A168A110A200A128A110A1666
:1000F8008A1161210A128A11031CCA288316031364
:10010800A601A7010A30F0000030F100831603139E
:100118002708F3002608F2000A168A11D7210A12C6
:100128008A11710883160313A7007008A6008312AA
:1001380003135A0884000A168A110A200A128A111F
:10014800D03EDE00FF3003180030DF005E08831663
:100158000313A6070318A70A831203135F0883165D
:100168000313A707013083120313DE005E08DA07C2
:100178005A0884000A168A110A200A128A110A16D5
:100188008A1161210A128A1103188628831203131F
:100198005A0884000A168A110A200A128A112E3A6D
:1001A800031D262983160313251701308312031311
:1001B800DE005E08DA0783160313B601B70183125F
:1001C8005A0884000A168A110A200A128A110A1685
:1001D8008A1161210A128A11031C2E29831603131E
:1001E8003708F1003608F0000A30F2000030F3005A
:1001F8000A168A11D7210A128A11831203135A0880
:1002080084000A168A110A200A128A117007DE0071
:100218000030031801307107DF005E08D03E8316F6
:100228000313B600831203135F080318013EFF3E51
:1002380083160313B700013083120313DE005E0830
:10024800DA07E32883160313B601B70125162E290A
:1002580025154A29013083120313DA07FF305A079C
:1002680084000A168A110A200A128A1183160313B7
:10027800B800003A0319F92F643A03194A29023AD7
:1002880003192C290F3A03194A294228003024055A
:1002980083120313DE000730831603132505831228
:1002A8000313DF005E085F040319352F8316031359
:1002B800251E62290630B6000030B70023088400E6
:1002C80083130008B200840A0008B300840A0008F7
:1002D800B400033083120313DE005E088316031391
:1002E800A3073208F0003308F1003408F2000030A8
:1002F800F3000030F4000030F5000A168A116D236F
:100308000A128A110318A129831603133208F00070
:100318003308F1003408F2000A128A1104200A1284
:100328008A11700883160313B2007108B3007208AB
:10033800B4000330A4040030A50483160313B001ED
:10034800B1013408330432040319952AB230840009
:100358008313000883120313DE00840A0008DF00F9
:10036800840A0008E000840A0008E1000F30031046
:10037800E10CE00CDF0CDE0CFF3E031DBB29FF3057
:100388005E05E20000305F05E3006208823E8316E6
:100398000313B0008312031363080318013EFF3EE2
:1003A80083160313B100FF30B0070318B10AFF30FA
:1003B800B1070330F0000030F1003108F3003008D5
:1003C800F2000A168A11D7210A128A1171088316B7
:1003D8000313B1007008B0000A30F7000030F800CD
:1003E8003108FA003008F9000A168A1112230A1295
:1003F8008A11780883160313B1007708B000B11F7B
:100408000B2AFF30B0070318B10AFF30B1073003D9
:10041800FF3A0A128A1565250A128A1183120313F4
:10042800370883160313A8008312031338088316AA
:100438000313A90083120313390883160313AA00B0
:10044800320883120313A700831603133308831299
:100458000313A80083160313340883120313A90097
:1004680083160313280883120313AA0083160313A1
:10047800290883120313AB00831603132A08831277
:100488000313AC000A168A1146260A128A1183122F
:100498000313270883160313A800831203132808DD
:1004A80083160313A9008312031329088316031361
:1004B800AA002808F0002908F1002A08F2000030F4
:1004C800F3008030F4003F30F5000A168A116D23DE
:1004D8000A128A110318782AFF3083160313B0070B
:1004E8000318B10AFF30942A831603132808F00072
:1004F8002908F1002A08F2000030F3002030F40047
:100508004130F5000A168A116D230A128A11031C5C
:10051800952A013083160313B0070318B10A003077
:10052800B107831603133708803AFF0080307F0233
:10053800031DA02A0D3036020318DB2A8316031385
:1005480036080A128A15CB230A128A11831203135A
:100558003708C7003808C8003908C90083160313CC
:10056800320883120313CA00831603133308831255
:100578000313CB0083160313340883120313CC0030
:100588000A128A1542200A128A1183120313470895
:1005980083160313B2008312031348088316031348
:1005A800B30083120313490883160313B400831698
:1005B80003133108803AFF0080307F02031DE62ACA
:1005C8000A3030020318192B831603133408330436
:1005D80032040319722B320883120313C0008316E6
:1005E8000313330883120313C1008316031334085B
:1005F80083120313C2000A168A11F5240A128A11FB
:10060800831203134308420441044004031D722B60
:10061800831603133108803AFF0080307F02031DE0
:10062800172B02303002031C722B83160313280881
:10063800F0002908F1002A08F2007030F300893030
:10064800F4004030F5000A168A116D230A128A1147
:100658000318302BF730312BF83083160313B0070B
:100668000318B10AFF30B10730080A128A15652548
:100678000A128A1183120313370883160313A8007A
:1006880083120313380883160313A9008312031374
:10069800390883160313AA003208F0003308F10062
:1006A8003408F2002808F3002908F4002A08F500A5
:1006B8000A168A1183250A128A11730883160313EE
:1006C800AF007208AE007108AD007008AC000030D1
:1006D800B2000030B3000030B400E12B83160313DE
:1006E800320883120313C0008316031333088312DE
:1006F8000313C10083160313340883120313C200C3
:100708000A168A11F5240A128A1183120313430860
:1007180083160313AF0083120313420883160313CF
:10072800AE0083120313410883160313AD0083122E
:100738000313400883160313AC002F08FB002E0890
:10074800FA002D08F9002C08F8000A128A110C206A
:100758000A128A11780883120313D4007908D50085
:100768007A08D60083160313320883120313D700BE
:1007780083160313330883120313D8008316031355
:10078800340883120313D9000A168A11B6210A12F3
:100798008A1183120313540883160313B2008312B9
:1007A8000313550883160313B30083120313560863
:1007B80083160313B400B001B101B801B80A0A30B6
:1007C80038060319372C380883120313DE0001306A
:1007D8000310DE0DFF3E031DEC2B03105E0D013EE2
:1007E80084000A168A110A200A128A11DF000A16E2
:1007F8008A110A200A128A11E0000A168A110A20B0
:100808000A128A11E1000A168A110A200A128A11AC
:10081800E2006208831603132F02031D292C83129A
:1008280003136108831603132E02031D292C831258
:1008380003136008831603132D02031D292C83124A
:1008480003135F08831603132C02031C372C013093
:1008580083120313DE005E0883160313B8070A30F9
:100868003806031DE72B3608380783120313DE000A
:100878008316031337080318370A003EB81BFF3ED8
:1008880083120313DF008316031330088312031344
:100898005E07E0008316031331080318310A831238
:1008A80003135F07E100600883160313A60283128F
:1008B8000313610883160313031CA703A702360852
:1008C800370403196D2CFF30A6070318A70AFF3059
:1008D800A7070330240583120313DE0000308316B4
:1008E8000313250583120313DF005E085F04031951
:1008F800852CFF3083160313A6070318A70AFF30B9
:10090800A707831603132708803AFF0080307F0269
:10091800031D902C01302602031CA72C20308312C3
:100928000313DE00831603133508840083120313B0
:100938005E08831380000130DE005E08831603130F
:10094800B507FF30802C0330831603132405831268
:100958000313DE00003083160313250583120313E7
:10096800DF005E085F040319CA2C2D30DE008316F1
:10097800031335088400831203135E088313800071
:100988000130DE005E0883160313B507FF308312BB
:10099800DE005E0883160313B807380A0319702DA2
:1009A800380883120313DE0001300310DE0DFF3E0A
:1009B800031DD92C03105E0D013E84000A168A110E
:1009C8000A200A128A11F0000A168A110A200A124D
:1009D8008A11F1000A168A110A200A128A11F200F5
:1009E8000A168A110A200A128A11F30083160313C1
:1009F8002F08F7002E08F6002D08F5002C08F40043
:100A08000A168A11CA230A128A1173088316031355
:100A1800AB007208AA007108A9007008A80000308D
:100A280083120313A3000030A2000030A1000A3093
:100A3800A000831603132B0883120313A700831641
:100A480003132A0883120313A60083160313290825
:100A580083120313A50083160313280883120313B4
:100A6800A4000A168A11C4220A128A1183120313D7
:100A7800230883160313AB0083120313220883167B
:100A88000313AA0083120313210883160313A90072
:100A980083120313200883160313A8002808303E86
:100AA80083120313BA2C303083120313DE0083162B
:100AB800031335088400831203135E088313800030
:100AC8000130DE005E0883160313B507FF30B00758
:100AD8000318B10AFF30B1073108803AFF008030AF
:100AE8007F02031D792D013030020318572D83161C
:100AF80003133708803AFF0080307F02031D862DDC
:100B080009303602031C8A2D08308D2D83160313F5
:100B1800360883120313DE005E0883160313B80039
:100B2800380883120313DE00DF01DE1BDF035E08D3
:100B380083160313B602831203135F088316031385
:100B4800031CB703B70238080319BD2D2E308312D2
:100B58000313DE008316031335088400831203137E
:100B68005E08831380000130DE005E0883160313DD
:100B7800B50738080A128A1565250A128A118312E0
:100B88000313370883160313A000831203133808CE
:100B980083160313A1008312031339088316031362
:100BA800A200200883120313AA0083160313210846
:100BB80083120313AB008316031322088312031353
:100BC800AC0083160313320883120313A70083169D
:100BD8000313330883120313A8008316031334087E
:100BE80083120313A9000A168A1146260A128A11CB
:100BF800831203132708C0002808C1002908C2006F
:100C08000A168A11F5240A128A118312031343085B
:100C180083160313AF0083120313420883160313CA
:100C2800AE0083120313410883160313AD00831229
:100C38000313400883160313AC00FF308312031319
:100C4800DE005E0883160313B807380A0319302F2D
:100C5800380883120313DE0001300310DE0DFF3E57
:100C6800031D312E03105E0D013E84000A168A1101
:100C78000A200A128A11F0000A168A110A200A129A
:100C88008A11F1000A168A110A200A128A11F20042
:100C98000A168A110A200A128A11F300831603130E
:100CA8002F08F7002E08F6002D08F5002C08F40090
:100CB8000A168A11CA230A128A11730883160313A3
:100CC800AB007208AA007108A9007008A8000030DB
:100CD80083120313A3000030A2000030A1000A30E1
:100CE800A000831603132B0883120313A70083168F
:100CF80003132A0883120313A60083160313290873
:100D080083120313A5008316031328088312031301
:100D1800A4000A168A11C4220A128A118312031324
:100D2800230883160313AB008312031322088316C8
:100D38000313AA0083120313210883160313A900BF
:100D480083120313200883160313A8002808303ED3
:100D580083120313DE0083160313350884008312FD
:100D680003135E08831380000130DE005E088316DB
:100D78000313B507380883120313DE00013003108C
:100D8800DE0DFF3E031DC32E03105E0D013E8400E1
:100D98000A168A110A200A128A11A0000A168A1154
:100DA8000A200A128A11A1000A168A110A200A12B8
:100DB8008A11A2000A168A110A200A128A11A300AF
:100DC800831603132F0883120313A7008316031334
:100DD8002E0883120313A600831603132D0883120B
:100DE8000313A500831603132C0883120313A4000E
:100DF8000A168A11C4220A128A11831203132308BD
:100E080083160313AF0083120313220883160313F8
:100E1800AE0083120313210883160313AD00831257
:100E2800031320081E2E303083120313DE008316AE
:100E3800031335088400831203135E0883138000AC
:100E48000130DE005E0883160313B507FF30B607CE
:100E58000318B70AFF30B7073608370403194228C2
:100E6800172F8316031323088400831300088312A3
:100E78000313DE00840A0008DF005E0883160313EC
:100E8800AC00831203135F0883160313AD00003010
:100E9800AD1BFF30AE00AF00023083120313DE003B
:100EA8005E0883160313A307AF1F692F0330A4043A
:100EB8000030A504AC09AD09AE09AF09AC0A0319A5
:100EC800AD0A0319AE0A0319AF0A36083704031D21
:100ED800792F2F082E042D042C04031D792F01309F
:100EE800B6070318B70A0030B707B801B80A0A30BE
:100EF80038060319CF2F380883120313DE00013098
:100F08000310DE0DFF3E031D842F03105E0D013E0E
:100F180084000A168A110A200A128A11DF000A16AA
:100F28008A110A200A128A11E0000A168A110A2078
:100F38000A128A11E1000A168A110A200A128A1175
:100F4800E2006208831603132F02031DC12F8312C8
:100F580003136108831603132E02031DC12F831286
:100F680003136008831603132D02031DC12F831278
:100F780003135F08831603132C02031CCF2F0130C1
:100F880083120313DE005E0883160313B8070A30C2
:100F98003806031D7F2F380883120313DE00DF0194
:100FA800DE1BDF035F08803AE0008316031337086F
:100FB800803A831203136002031DE82F831603137C
:100FC8003608831203135E020A128A1503187D2A53
:100FD80083160313360883120313DE005E08831694
:100FE8000313B8000A128A159F2A0A128A15C32BFE
:080FF80083010A168A11192F6A
:10100A00FA01FB017A087507F8007608F700031859
:10101A00F70AFA1BF7037708F90079088312031312
:10102A00FF00780884000A168A1100200A128A151D
:10103A00003A031908007A087507F8007608F700DD
:10104A000318F70AFA1BF7037708F90079088312DD
:10105A000313FF00780884000A168A1100200A1276
:10106A008A150A168A11F8210A128A150130FA0716
:10107A000318FB0A0030FB070728831203134708EB
:10108A00CD004808CE004908CF0003104E0D4F0D81
:10109A00D0005008D3004A08CD004B08CE004C08B7
:1010AA00CF0003104E0D4F0DD0005008D200530848
:1010BA0003196B2852085302031872285303FF3A84
:1010CA005207CD0019304D02031C72284A08C70086
:1010DA004B08C8004C08C900080052080319080048
:1010EA0053085202031881285203FF3A5307CD00CE
:1010FA0019304D02031808000630CD004D08D10002
:10110A00C91BD117CC1B5117C817FF30C705FF30B1
:10111A00C8050030C905CB17FF30CA05FF30CB051B
:10112A000030CC05520853020318C12801300310BD
:10113A00CA0DCB0DCC0DFF3E031D9C280130D202F7
:10114A00520853060319BC280130D1025108073945
:10115A000319BC289B2801300310C90CC80CC70C02
:10116A00FF3E031DB1280130CD004D08D3075308B7
:10117A0052060319EA28B028530852020318EA282B
:10118A0001300310C70DC80DC90DFF3E031DC62847
:10119A000130D302520853060319E6280130D1025E
:1011AA00510807390319E628C52801300310CC0C69
:1011BA00CB0CCA0CFF3E031DDB280130CD004D08C5
:1011CA00D20753085206031DDA28D11FFC28FF3024
:1011DA00C706FF30C806FF30C9060130C70700300E
:1011EA0003180130C807003003180130C907511F1E
:1011FA000E29FF30CA06FF30CB06FF30CC0601307D
:10120A00CA07003003180130CB0700300318013039
:10121A00CC07D1014708CA07480803110318480A2E
:10122A00031DCB07490803110318490A031DCC07FC
:10123A00CC1F3129FF30CA06FF30CB06FF30CC065F
:10124A000130CA07003003180130CB0700300318F9
:10125A000130CC07D101D10A4A08F0004B08F1004D
:10126A004C08F2005308CD004D08F3005108CE0097
:10127A004E08F4000A168A1189247008831203138F
:10128A00C7007108C8007208C900080070308400DD
:10129A000008F600840A0008F700840A0008F8002B
:1012AA00840A0008F9000310780D790DFA007A080B
:1012BA0083120313A5002508031D6C290030F300CF
:1012CA000030F2000030F1000030F0000800733006
:1012DA0084000008F600840A0008F700840A00085F
:1012EA00F800840A0008F9000310780D790DFA0055
:1012FA007A08A4002408031D8B290030F30000306B
:10130A00F2000030F1000030F00008007030840074
:10131A0000308004840A00308004840A803080040B
:10132A00840A0030800470308400FF308005840A0B
:10133A00FF308005840AFF308005840A003080056A
:10134A007330840000308004840A00308004840AE8
:10135A0080308004840A0030800473308400FF30B7
:10136A008005840AFF308005840AFF308005840ADC
:10137A00003080050030A3000030A2000030A10038
:10138A000030A0007F30A502A0302407F6007608BE
:10139A00A5022030F6007608A4000130F6000310FA
:1013AA00A00DA10DA20DA30DF60BD4297330840054
:1013BA000008F600840A0008F700840A0008F8000A
:1013CA00840A0008F900703084000008FA00840AD0
:1013DA000008FB00840A0008FC00840A0008FD00DB
:1013EA0079087D02031D032A78087C02031D032A5B
:1013FA0077087B02031D032A76087A02031C282A2F
:10140A00733084000008F600840A0008F700840A92
:10141A000008F800840A0008F90070308400760891
:10142A008002840A7708031C770F8002840A7808EE
:10143A00031C780F8002840A7908031C790A800247
:10144A00033084022014703084000310800D840A53
:10145A00800D840A800D840A800D8403840384032A
:10146A000130A402031DD229A51F592A2508803A52
:10147A009F3E0318492A0030F3000030F200003082
:10148A00F1000030F000080001300310A30CA20C98
:10149A00A10CA00CFF3E031D4A2A0130F600760873
:1014AA00A5070319742A492A20302502031C712A28
:1014BA000030F3000030F2000030F1000030F0009C
:1014CA0008000130F6000310A00DA10DA20DA30D16
:1014DA00F60B682A0130A5022508031D662A23088F
:1014EA00F3002208F2002108F1002008F0000800A9
:1014FA0083160313380883120313DE00DF01DE1B91
:10150A00DF03831603133708803A83120313E000BC
:10151A005F08803A6002031D962A5E088316031349
:10152A00360203189F2A831603133808B600B70138
:10153A00B61BB70383160313260827040319BD2A0B
:10154A000330240583120313DE00003083160313CD
:10155A00250583120313DF005E085F040319BD2A01
:10156A00FF3083160313A6070318A70AFF30A7073D
:10157A0083160313251FE22A3708803A83120313BE
:10158A00DE00831603132708803A831203135E02D0
:10159A00031DD32A83160313260836020318DE2AEC
:1015AA00831603133608A6023708031CA703A702EB
:1015BA00E22A83160313A601A7013808831203132C
:1015CA00DE00DF01DE1BDF035F08803AE0008316DE
:1015DA0003132708803A831203136002031DFB2AB0
:1015EA00831603132608831203135E020318132BB0
:1015FA0083160313380883120313DE00DF01DE1B90
:10160A00DF035E0883160313A602831203135F081F
:10161A0083160313031CA703A702172B83160313AE
:10162A00A601A701260827040319382B20308312A4
:10163A000313DE0083160313350884008312031391
:10164A005E08831380000130DE005E0883160313F0
:10165A00B507FF30A6070318A70AFF30A707260811
:10166A002704031D1B2B0330240583120313DE00FA
:10167A00003083160313250583120313DF005E0867
:10168A005F040319592B2D30DE0083160313350826
:10169A008400831203135E08831380000130DE0086
:1016AA005E0883160313B507FF3083160313B607C4
:1016BA000318B70AFF30B707360A0319370A03199E
:1016CA00C82B003083120313A3000030A20000309D
:1016DA00A1000A30A00083160313360883120313ED
:1016EA00DE0001300310DE0DFF3E031D772B0310D1
:1016FA005E0D013E84000A168A110A200A128A1512
:10170A00F0000A168A110A200A128A15F1000A162E
:10171A008A110A200A128A15F2000A168A110A2068
:10172A000A128A15F300831603132F08F7002E08EE
:10173A00F6002D08F5002C08F4000A168A11CA23AF
:10174A000A128A15730883120313A7007208A600E7
:10175A007108A5007008A4000A168A11C4220A1288
:10176A008A15831203132008303EDF005F088316B0
:10177A000313B800380883120313492B3508840071
:10178A008313800108000A128A1142288312031364
:10179A00C6006E304602031CA92C0330BA003A0870
:1017AA00A4000A30F7000030F8004608BB00BC016C
:1017BA003B08F2003C08F3006430F0000030F1000E
:1017CA000A168A1179220A128A157108FA00700813
:1017DA00F9000A168A1112230A128A157708093E95
:1017EA000A168A116F210A128A15503E84000A16B7
:1017FA008A110A200A128A1583120313A7000A16ED
:10180A008A110A200A128A15A8000A168A110A20C1
:10181A000A128A15A9000330BD003D08A4006430ED
:10182A00F7000030F8004608BE00BF013E08F90084
:10183A003F08FA000A168A1112230A128A15770833
:10184A00123E0A168A116F210A128A15503E840026
:10185A000A168A110A200A128A1583120313AA0089
:10186A000A168A110A200A128A15AB000A168A1168
:10187A000A200A128A15AC000A168A1146260A128A
:10188A008A15831203132708C3002808C4002908ED
:10189A00C5000330BA003A08A4004608BB00BC01E0
:1018AA003B08F2003C08F3000A30F0000030F10077
:1018BA000A168A1179220A128A1570080A168A11DA
:1018CA006F210A128A15503E84000A168A110A20CC
:1018DA000A128A1583120313A7000A168A110A200C
:1018EA000A128A15A8000A168A110A200A128A15EB
:1018FA00A9004308AA004408AB004508AC000A1630
:10190A008A1146260A128A15831203132708C00071
:10191A002808C1002908C2000030A7000030A8002A
:10192A003F30A9004008AA004108AB004208AC00B9
:10193A000A168A114626831203132708B7002808B5
:10194A00B8002908B90008000B304602031C332DE1
:10195A000330BA003A08A4004608BB00BC013B08A1
:10196A00F2003C08F3000A30F0000030F1000A16D9
:10197A008A1179220A128A1570080A168A116F21A9
:10198A000A128A15503E84000A168A110A200A127F
:10199A008A1583120313A7000A168A110A200A124B
:1019AA008A15A8000A168A110A200A128A15A9009D
:1019BA000330BD003D08A4000A30F7000030F800EB
:1019CA004608BE00BF013E08F9003F08FA000A16A1
:1019DA008A1112230A128A157708093E0A168A11F1
:1019EA006F210A128A15503E84000A168A110A20AB
:1019FA000A128A1583120313AA000A168A110A20E8
:101A0A000A128A15AB000A168A110A200A128A15C6
:101A1A00AC000A168A1146260A128A158312031383
:101A2A002708C3002808C4002908C5000030A700F9
:101A3A000030A8003F30A9004308AA004408AB00C0
:101A4A004508AC000A168A11462683120313270892
:101A5A00B7002808B8002908B90008000030A70014
:101A6A000030A8003F30A9000330BA003A08A400A9
:101A7A0046080A168A116F210A128A15503E8400F6
:101A8A000A168A110A200A128A1583120313AA0057
:101A9A000A168A110A200A128A15AB000A168A1136
:101AAA000A200A128A15AC000A168A1146268312DF
:101ABA0003132708B7002808B8002908B900080046
:101ACA0083120313BF00BF1FB62EBF09BF0A3F0808
:101ADA00803A123E031C292E0330BA003A08A400A9
:101AEA000A30F7000030F8003F08F200F301F21B59
:101AFA00F3036430F0000030F1000A168A117922EB
:101B0A000A128A157108FA007008F9000A168A1171
:101B1A0012230A128A157708093E0A168A116F21BA
:101B2A000A128A15503E84000A168A110A200A12DD
:101B3A008A1583120313A7000A168A110A200A12A9
:101B4A008A15A8000A168A110A200A128A15A900FB
:101B5A000330BB003B08A4006430F7000030F800F3
:101B6A003F08F900FA01F91BFA030A168A1112232F
:101B7A000A128A157708123E0A168A116F210A126A
:101B8A008A15503E84000A168A110A200A128A15FA
:101B9A0083120313AA000A168A110A200A128A1546
:101BAA00AB000A168A110A200A128A15AC000A1614
:101BBA008A1146260A128A15831203132708BC00C3
:101BCA002808BD002908BE000330BA003A08A4005C
:101BDA003F08F200F301F21BF3030A30F000003071
:101BEA00F1000A168A1179220A128A1570080A1651
:101BFA008A116F210A128A15503E84000A168A1128
:101C0A000A200A128A1583120313A7000A168A11D8
:101C1A000A200A128A15A8000A168A110A200A122C
:101C2A008A15A9003C08AA003D08AB003E08AC0092
:101C3A000A168A114626831203132708B7002808B2
:101C4A00B8002908B90008003F08803A753E031C0D
:101C5A00972E0330BA003A08A4003F08F200F301B5
:101C6A00F21BF3030A30F0000030F1000A168A1161
:101C7A0079220A128A1570080A168A116F210A1225
:101C8A008A15503E84000A168A110A200A128A15F9
:101C9A0083120313A7000A168A110A200A128A1548
:101CAA00A8000A168A110A200A128A15A900033006
:101CBA00BB003B08A4000A30F7000030F8003F08D8
:101CCA00F900FA01F91BFA030A168A1112230A12F9
:101CDA008A157708093E0A168A116F210A128A158F
:101CEA00503E84000A168A110A200A128A158312A3
:101CFA000313AA000A168A110A200A128A15AB00CF
:101D0A000A168A110A200A128A15AC000A168A11C2
:101D1A004626831203132708B7002808B8002908A3
:101D2A00B90008000330BA003A08A4003F080A16AE
:101D3A008A116F210A128A15503E84000A168A11E6
:101D4A000A200A128A1583120313B7000A168A1187
:101D5A000A200A128A15B8000A168A110A20B9003E
:101D6A0008003F08803A123E031C732F0330BA0062
:101D7A003A08A4000A30F7000030F8003F08F200E1
:101D8A00F301F21BF3036430F0000030F1000A168D
:101D9A008A1179220A128A157108FA007008F90064
:101DAA000A168A1112230A128A157708093E0A1698
:101DBA008A116F210A128A15293E84000A168A118D
:101DCA000A200A128A1583120313A7000A168A1117
:101DDA000A200A128A15A8000A168A110A200A126B
:101DEA008A15A9000330BB003B08A4006430F70041
:101DFA000030F8003F08F900FA01F91BFA030A1645
:101E0A008A1112230A128A157708123E0A168A11B3
:101E1A006F210A128A15293E84000A168A110A209D
:101E2A000A128A1583120313AA000A168A110A20B3
:101E3A000A128A15AB000A168A110A200A128A1592
:101E4A00AC000A168A1146260A128A15831203134F
:101E5A002708BC002808BD002908BE000330BA00C4
:101E6A003A08A4003F08F200F301F21BF3030A3018
:101E7A00F0000030F1000A168A1179220A128A1536
:101E8A0070080A168A116F210A128A15293E8400DF
:101E9A000A168A110A200A128A1583120313A70046
:101EAA000A168A110A200A128A15A8000A168A1125
:101EBA000A200A128A15A9003C08AA003D08AB00AC
:101ECA003E08AC000A168A11462683120313270815
:101EDA00B7002808B8002908B90008003F08803A66
:101EEA00753E031CE12F0330BA003A08A4003F08EC
:101EFA00F200F301F21BF3030A30F0000030F100A4
:101F0A000A168A1179220A128A1570080A168A1183
:101F1A006F210A128A15293E84000A168A110A209C
:101F2A000A128A1583120313A7000A168A110A20B5
:101F3A000A128A15A8000A168A110A200A128A1594
:101F4A00A9000330BB003B08A4000A30F7000030A8
:101F5A00F8003F08F900FA01F91BFA030A168A1178
:101F6A0012230A128A157708093E0A168A116F2166
:101F7A000A128A15293E84000A168A110A200A12B0
:101F8A008A1583120313AA000A168A110A200A1252
:101F9A008A15AB000A168A110A200A128A15AC00A1
:101FAA000A168A114626831203132708B70028083F
:101FBA00B8002908B90008000330BA003A08A4009A
:101FCA003F080A168A116F210A128A15293E8400CF
:101FDA000A168A110A200A128A1583120313B700F5
:101FEA000A168A110A200A128A15B8000A168A11D4
:101FFA000A20B9000800FF1B0A2883137F188317D9
:10200A000008840A0319FF0A080010308A0004082D
:10201A00840A8207003401340034003400340A345C
:10202A000034003400346434003400340034E834BA
:10203A000334003400341034273400340034A0341C
:10204A00863401340034403442340F34003480344E
:10205A009634983400340034E134F53405340034CD
:10206A00CA349A343B34003480343F340034203448
:10207A0041340034C834423400347A34443440346D
:10208A001C3446345034C334473424347434493409
:10209A00973418344B34BC34BE344C346B346E34FD
:1020AA004E340334153450347934AD346034F33457
:1020BA0049347134003480343F34CD34CC343D3427
:1020CA00D73423343C34123483343A34B734D134D9
:1020DA003834C63427343734383486343534C03447
:1020EA00D6343334CC342B343234703489343034EB
:1020FA00E734DB342E34E5343C341E344234A23423
:10210A000D342034203420342034433442345434BF
:10211A00493453342034383435342034203420348C
:10212A0020340034203420342034203420345234F3
:10213A0055344C344534533420342034203420343C
:10214A002034003446346C346F34613474342034AF
:10215A003D342034253431342E343234663400345C
:10216A004234693465346E34763465346E34693495
:10217A0064346F3420346134003449346E34743436
:10218A00653467346534723420343D342034253460
:10219A00643400344D346934633472346F34203417
:0621AA003B34293400342F
:1022AC0000300A168A119C210A168A1101300A166E
:1022BC008A119C210800F100F0013A3071020318D8
:1022CC006D2930307102031C6D29F001F00A700C7D
:1022DC00080083120313A600A501261C79292408E3
:1022EC00FC007C08A5070310A40D0310A60C2608FF
:1022FC00031D732925080800F000701C892983121E
:10230C00031308168C29831203130812F01C90294E
:10231C00881691298812701D95290817962908137B
:10232C00F01D9A298817080088130800F3008312FF
:10233C000313081173080A168A1182210A168A11CE
:10234C008312031388150630F2003030F100F10BC4
:10235C00AD29F20BAD29000083120313881108007C
:10236C00831203135608550454040319BF298030F3
:10237C00D6065708C7005808C8005908C9005408A1
:10238C00CA005508CB005608CC000A128A15422008
:10239C00831203134708D4004808D5004908D60017
:1023AC000800F401F501701CE1297208F407031808
:1023BC00F50A7308F50701300310F20DF30DFF3E1B
:1023CC00031DE22901300310F10CF00CFF3E031D3C
:1023DC00E92970087104031DD9297508F1007408E6
:1023EC00F0000800F40074080F39F1007108F200D5
:1023FC007408F039F1007108F30083120313081507
:10240C007308F10004300310F10CFF3E031D092A80
:10241C0071080A168A1182210A168A118312031373
:10242C0088150D30F100F10B192A83120313881152
:10243C0072080A168A1182210A168A118312031352
:10244C0088150D30F100F10B292A83120313881122
:10245C000800F7007703031D542A74087F3EF5002B
:10246C007508FA007A08F50004300310F50CFF3EED
:10247C00031D3B2A7508F6007608F8007A080F3918
:10248C00F5007508F90078080A168A119C210A16BD
:10249C008A1179080A168A119C21080002307706E5
:1024AC00031D08007408BF3EF5007508FA007A0891
:1024BC00F50004300310F50CFF3E031D602A75086F
:1024CC00F6007608F8007A080F39F5007508F9005F
:1024DC0078080A168A119C210A168A1179080A169C
:1024EC008A119C210800F601F31F832AF209F309D3
:1024FC00F20A0319F30AF601F60AF11F8A2AF00907
:10250C00F109F00A0319F10A700871040319B72ACA
:10251C00F501F50AF11B9E2A01300310F00DF10DA7
:10252C00FF3E031D932A0130F4007408F507902A2E
:10253C0071087302031DA42A70087202031CAC2AD2
:10254C007008F2027108031CF303F302013003104C
:10255C00F10CF00CFF3E031DAD2A0130F502031DFA
:10256C009E2A76080319BF2AF209F309F20A031905
:10257C00F30A7308F1007208F000080083120313C9
:10258C0023082204210420040319092BA901A90AF8
:10259C00A31BDE2A0130A8000310A00DA10DA20D73
:1025AC00A30DA80BD22A0130A8002808A907CE2A0F
:1025BC0023082702031DEC2A22082602031DEC2AFD
:1025CC0021082502031DEC2A20082402031CFC2AE6
:1025DC002008A4022108031C210FA5022208031CB9
:1025EC00220FA6022308031C230FA702013003109D
:1025FC00A30CA20CA10CA00CFF3E031DFD2A013064
:10260C00A902031DDE2A2708A3002608A20025081C
:10261C00A1002408A000080083120313A101F81FD5
:10262C001E2BF709F809F70A0319F80AA101A10AE8
:10263C00FA1F292BF909FA09F90A0319FA0A0130C8
:10264C00FB007B08A106A201A301770878040319FB
:10265C00602BA001A00AF81B3F2B01300310F70DD3
:10266C00F80DFF3E031D342B0130FB007B08A00747
:10267C00312B01300310A20DA30DFF3E031D402B87
:10268C0078087A02031D4C2B77087902031C552B12
:10269C007708F9027808031CFA03FA0222140130B5
:1026AC000310F80CF70CFF3E031D562B0130A00253
:1026BC00031D3F2B21080319682BA209A309A20AA9
:1026CC000319A30A2308F8002208F7000800F21FD8
:1026DC00942B0030F6000030F7008030F8007009C1
:1026EC00F9007109FA007209FB00F90A0319FA0AD8
:1026FC000319FB0A7908F6077A0803187A0F872B57
:10270C00882BF7077B0803187B0F8D2B8E2BF80774
:10271C007608F0007708F1007808F200F51FBB2B63
:10272C000030F6000030F7008030F8007309F90033
:10273C007409FA007509FB00F90A0319FA0A03195E
:10274C00FB0A7908F6077A0803187A0FAE2BAF2B21
:10275C00F7077B0803187B0FB42BB52BF80776080B
:10276C00F3007708F4007808F5008030F20680302A
:10277C00F50675087202031D080074087102031D2A
:10278C0008007308700208000030FC000030FB00E9
:10279C000030FA000030F900730872047104700400
:1027AC0003191F2CFD01FD0AF31BEA2B0130F80065
:1027BC000310F00DF10DF20DF30DF80BDE2B0130C3
:1027CC00F8007808FD07DA2B0130F8000310F90D3A
:1027DC00FA0DFB0DFC0DF80BEC2B73087702031DA7
:1027EC00012C72087602031D012C71087502031D61
:1027FC00012C70087402031C122C7008F40271086E
:10280C00031C710FF5027208031C720FF602730899
:10281C00031C730FF702791401300310F30CF20C44
:10282C00F10CF00CFF3E031D132C0130FD02031DB7
:10283C00EA2B7C08F3007B08F2007A08F100790897
:10284C00F000080083160313880183120313880118
:10285C0000300A168A1182210A168A111A30F500E4
:10286C00F830F400F40B382CF50B382C0000033046
:10287C000A168A119C210A168A110730F5007D3040
:10288C00F400F40B472CF50B472C03300A168A1175
:10289C009C210A168A110F30F5004730F400F40B16
:1028AC00552CF50B552C5A2C03300A168A119C21E9
:1028BC000A168A1102300A168A119C210A168A11EC
:1028CC0002300A168A119C210A168A1108300A163F
:1028DC008A119C210A168A1100300A168A119C2131
:1028EC000A168A110C300A168A119C210A168A11B2
:1028FC0000300A168A119C210A168A1106300A1613
:10290C008A119C21080073080319912C7208710418
:10291C007004031DA42C0030F0000030F1000030D6
:10292C00F20008000130F5007508F30701300310C0
:10293C00F20CF10CF00CFF3E031D9D2CFE307205C9
:10294C000319BF2C982C0130F5007508F3070130E2
:10295C00F007003003180130F10700300318013084
:10296C00F20701300310F20CF10CF00CFF3E031DCA
:10297C00B82CFF3072050319CE2CA92C0130F302B0
:10298C0001300310F00DF10DF20DFF3E031DC72CAD
:10299C00F11BD42C023073020318C42C7318DC2CDA
:1029AC00FF30F0057F30F105FF30F2050310F30C1A
:1029BC007308F500F601F70110300310F50DF60D54
:1029CC00F70DFF3E031DE32C7508F0047608F104A7
:1029DC007708F204740803190800F2170800831230
:1029EC0003134008C4004108C5004208C600031088
:1029FC00450D460DC7004708CD004D08031D0F2D92
:102A0C000030C3000030C2000030C1000030C000F4
:102A1C0008004008C4004108C5004208C600173031
:102A2C000310C60CC50CC40CFF3E031D162D440828
:102A3C00C7004708C800C117FF30C005FF30C105EB
:102A4C000030C2054008C9004108CA004208CB004A
:102A5C00CC018E30CD02CD1F512D4D08803A8F3ECA
:102A6C000318412D0030C3000030C2000030C100FB
:102A7C000030C000080001300310CC0CCB0CCA0C89
:102A8C00C90CFF3E031D422D0130C4004408CD0784
:102A9C0003196C2D412D18304D02031C692D00308B
:102AAC00C3000030C2000030C1000030C00008007C
:102ABC000130C4000310C90DCA0DCB0DCC0DC40BD5
:102ACC00602D0130CD024D08031D5E2D4808031901
:102ADC007A2DC909CA09CB09CC09C90A0319CA0A32
:102AEC000319CB0A0319CC0A4C08C3004B08C200CB
:102AFC004A08C1004908C00008007008F6007108B7
:102B0C00F7007208F8000310770D780DF9007908BA
:102B1C0083120313A5002508031D9D2D0030F3001F
:102B2C000030F2000030F1000030F00008007308B3
:102B3C00F6007408F7007508F8000310770D780D8F
:102B4C00F9007908A4002408031DB52D0030F3000A
:102B5C000030F2000030F1000030F0000800F117F6
:102B6C00FF30F005FF30F1050030F205F417FF30AF
:102B7C00F305FF30F4050030F5050030A3000030FC
:102B8C00A2000030A1000030A0007F30A5029830D8
:102B9C002407F6007608A5021830F6007608A40083
:102BAC000130F6000310A00DA10DA20DA30DF60B24
:102BBC00D82D75087202031DE92D74087102031DCE
:102BCC00E92D73087002031CF62D7308F0027408CB
:102BDC00031C740FF1027508031C750AF202201411
:102BEC0001300310F00DF10DF20DFF3E031DF72D1A
:102BFC000130A402031DD62DA51F222E2508803AD4
:102C0C00973E0318122E0030F3000030F200003013
:102C1C00F1000030F000080001300310A30CA20CEE
:102C2C00A10CA00CFF3E031D132E0130F6007608FC
:102C3C00A50703193D2E122E18302502031C3A2E1F
:102C4C000030F3000030F2000030F1000030F000F2
:102C5C0008000130F6000310A00DA10DA20DA30D6C
:102C6C00F60B312E0130A5022508031D2F2E23084B
:102C7C00F3002208F2002108F1002008F0000800FF
:102C8C00831203132708AD002808AE002908AF00F3
:102C9C0003102E0D2F0DB0003008B1003108031DAC
:102CAC005E2E0030A7000030A8000030A9000800FC
:102CBC002A08AD002B08AE002C08AF0003102E0D17
:102CCC002F0DB0003008B6003608031D742E0030EE
:102CDC00A7000030A8000030A900080036087B3E91
:102CEC00AD002D08B1072708AD002808AE00290853
:102CFC00AF0010300310AF0CAE0CAD0CFF3E031D3B
:102D0C00802E2D08B0003008B6002A08AD002B0824
:102D1C00AE002C08AF0010300310AF0CAE0CAD0C95
:102D2C00FF3E031D922E2D08B0003008B6068030F1
:102D3C00AD002D08B605A817AB17FF30AA05FF305C
:102D4C00AB050030AC050030B2000030B3000030F1
:102D5C00B4000730AD002D08B500271CC32E2A087F
:102D6C00B2072B08031103182B0A031DB3072C08F9
:102D7C00031103182C0A031DB40701300310A90C0E
:102D8C00A80CA70CFF3E031DC42E01300310AA0D86
:102D9C00AB0DAC0DFF3E031DCC2E0130B502031D57
:102DAC00B32E0930AD002D08B500271CEB2E2A08D8
:102DBC00B2072B08031103182B0A031DB3072C08A9
:102DCC00031103182C0A031DB40701300310A90CBE
:102DDC00A80CA70CFF3E031DEC2E01300310B40C05
:102DEC00B30CB20CFF3E031DF42E0130B502031DD3
:102DFC00DB2E3208F0003308F1003408F200310801
:102E0C00AD002D08F3003608AE002E08F4000A16AB
:102E1C008A118924700883120313A7007108A80073
:102E2C007208A90008000A168A1128240A168A11A9
:102E3C000A168A1156210A168A11F401F40A013075
:102E4C000A168A112F220A168A11A630F500803034
:102E5C00F6000A128A1505200A168A11F401F40AE2
:102E6C0002300A168A112F220A168A11C030F50078
:102E7C008030F6000A128A1505200A168A110B30CA
:102E8C0083120313E6002630E5005D30E400E40B0A
:102E9C004D2FE50B4D2FE60B4D2F0A168A1156219F
:102EAC000A168A11F401F40A01300A168A112F222B
:102EBC000A168A117730F5008030F6000A128A154E
:102ECC0005200A168A11F401F40A02300A168A1136
:102EDC002F220A168A118830F5008030F6000A126B
:102EEC008A1505200A168A110B3083120313E6008B
:102EFC002630E5005D30E400E40B822FE50B822FD9
:102F0C00E60B822F0A168A1156210A168A11FE30F8
:102F1C0083160313C900B430CA003F30CB003830DD
:102F2C00CC000030CD00983083120313E400640809
:102F3C00DA0083160313490883120313DB0083168C
:102F4C0003134A0883120313DC00831603134B0884
:102F5C0083120313DD00B9300A128A1137200A16C6
:102F6C008A11F401F40A01300A168A112F220A166A
:102F7C008A11B930F5000030F6000A128A150520C6
:102F8C000A168A11B33083120313E4006408DA00C2
:102F9C00831603134D0883120313DC0083160313EB
:102FAC004C0883120313DB00B9300A128A11372044
:102FBC000A168A11F401F40A02300A168A112F2219
:102FCC000A168A11B930F5000030F6000A128A157B
:102FDC0005200A168A110B3083120313E6002630E3
:102FEC00E5005D30E400E40BF92FE50BF92FE60B5F
:042FFC00F92F1E2F5C
:02400E007A3FF7
:00000001FF
