:020000040000FA
:100000000A128A11FC2FFF1B0D2883137F188317F8
:100010000008840A0319FF0A080000308A00040857
:10002000840A820700340034003480343F340034C2
:1000300000342034413400340034C83442340034B5
:1000400000347A344434003440341C3446340034B0
:100050005034C33447340034243474344934803445
:10006000963418344B342034BC34BE344C342834E9
:100070006B346E344E34F934023415345034EC346D
:100080007834AD346034CA34F234493471340034D5
:10009000003480343F34CD34CC34CC343D340A3455
:1000A000D73423343C346F34123483343A34173425
:1000B000B734D1343834AC34C53427343734BD3454
:1000C0003734863435349534BF34D63433347734CA
:1000D000CC342B3432345F34703489343034FF34D0
:1000E000E634DB342E340834E5343C341E346034DA
:1000F0004234A2340D3401340034003400340A3464
:100100000034003400346434003400340034E83403
:100110000334003400341034273400340034A03465
:10012000863401340034403442340F340034803497
:100130009634983400340034E134F5340534003416
:10014000CA349A343B3449346E3474346534673479
:100150006534723420343D34203425346434003422
:1001600046346C346F346134743420343D3420347C
:1001700025342E343434663400343334353400348A
:100180007308720471047004031908008030F306C8
:10019000080083160313BB00A130A5002508AE009C
:1001A0000130A007FF30200784000A128A110D20B9
:1001B0000A128A11A5002508C20042080319F72F68
:1001C000253042060319F0284208A5003B088400A8
:1001D0002508831380000130A5002508BB07D0281F
:1001E000AF01B001200884000A128A110D200A1202
:1001F0008A112E3A031D3D2930170130A50025082C
:10020000A007BC01BD01200884000A128A110D203C
:100210000A128A110A168A1521260A128A11031C4B
:100220004329831603133D08F1003C08F0000A300F
:10023000F2000030F3000A168A1563260A128A11AA
:1002400083160313200884000A128A110D200A1253
:100250008A117007A5000030031801307107A6004D
:100260002508D03EBC0026080318013EFF3EBD0015
:100270000130A5002508A0070329BC01BD013016E7
:10028000432930156529013083160313A007FF3079
:10029000200784000A128A110D200A128A11C20056
:1002A000A500A6012608003A03195729D0282508D9
:1002B000003A0319F72F643A03196529023A031922
:1002C00041290F3A03196529D02800302F05A500D0
:1002D00007303005A600250826040319EB2E301E32
:1002E00075290630BC000030BD002E088400831341
:1002F0000008BE00840A0008BF00840A0008C0008D
:10030000840A0008C1000430A5002508AE07410892
:10031000F3004008F2003F08F1003E08F000003012
:10032000F7000030F6000030F5000030F4000A1647
:100330008A119A220A128A110318BB298316031301
:100340004108F3004008F2003F08F1003E08F000C9
:100350000A128A11C0200A128A1173088316031325
:10036000C1007208C0007108BF007008BE000330F1
:10037000AF040030B00483160313B101B201410889
:10038000F3004008F2003F08F1003E08F0000030A2
:10039000F7000030F6000030F5000030F4000A16D7
:1003A0008A156E270A128A110318BF2A03108316B2
:1003B0000313400D410D823EB100FF3003180030A1
:1003C000B200FF30B1070318B20AFF30B2070330A2
:1003D000F0000030F1003208F3003108F2000A1694
:1003E0008A1563260A128A11710883160313B20054
:1003F0007008B1000A30F7000030F8003208FA0047
:100400003108F9000A168A1188200A128A11780820
:1004100083160313B2007708B100B21F152AFF300C
:10042000B1070318B20AFF30B2073103FF3A0A12CC
:100430008A15B7240A128A118312031341088316FE
:100440000313B60083120313400883160313B50089
:10045000831203133F0883160313B400831203139C
:100460003E0883160313B300410883120313A70049
:1004700083160313400883120313A6008316031385
:100480003F0883120313A500831603133E0883124B
:100490000313A40083160313360883120313AB005F
:1004A00083160313350883120313AA00831603135C
:1004B000340883120313A90083160313330883122D
:1004C0000313A8000A128A15A2210A128A118312A4
:1004D0000313270883160313B60083120313260899
:1004E00083160313B5008312031325088316031321
:1004F000B40083120313240883160313B3003608D1
:10050000F3003508F2003408F1003308F0003F3002
:10051000F7008030F6000030F5000030F4000A16D5
:100520008A119A220A128A1103189E2AFF30831612
:100530000313B1070318B20AFF30BE2A8316031350
:100540003608F3003508F2003408F1003308F000F3
:100550004130F7002030F6000030F5000030F400A4
:100560000A168A119A220A128A11031CBF2A013024
:1005700083160313B1070318B20A0030B2078316BB
:1005800003133D08803AFF0080307F02031DCA2A12
:100590000D303C020318132B831603133C080A1674
:1005A0008A11D0230A128A11831203134108D5003D
:1005B0004008D4003F08D3003E08D200831603133E
:1005C000410883120313D9008316031340088312D2
:1005D0000313D800831603133F0883120313D700B5
:1005E000831603133E0883120313D6000A168A11DA
:1005F000D1250A128A118312031355088316031397
:10060000C10083120313540883160313C00083121E
:100610000313530883160313BF00831203135208F6
:1006200083160313BE00831603133208803AFF00BB
:1006300080307F02031D1E2B0A30310203186B2B02
:10064000831603134108F3004008F2003F08F1004D
:100650003E08F0000030F7000030F6000030F500F2
:100660000030F4000A168A156E270A128A11031840
:10067000D42B83160313410883120313D40083166B
:100680000313400883120313D300831603133F0898
:1006900083120313D200831603133E08831203133D
:1006A000D1000A168A11A2210A128A118312031399
:1006B0005408530452045104031DD42B831603130E
:1006C0003208803AFF0080307F02031D692B023020
:1006D0003102031CD42B831603133608F3003508AC
:1006E000F2003408F1003308F0004030F7008930A0
:1006F000F6007030F5005F30F4000A168A119A2275
:100700000A128A110318862BF730872BF8308316CC
:100710000313B1070318B20AFF30B20731080A12F7
:100720008A15B7240A128A1183120313410883160B
:100730000313B60083120313400883160313B50096
:10074000831203133F0883160313B40083120313A9
:100750003E0883160313B3004108F3004008F2007B
:100760003F08F1003E08F0003608F7003508F600B3
:100770003408F5003308F4000A128A15F8200A122A
:100780008A11730883160313BA007208B90071083E
:10079000B8007008B7000030C1000030C000003061
:1007A000BF000030BE00582C83160313410883128B
:1007B0000313D40083160313400883120313D300DA
:1007C000831603133F0883120313D2008316031307
:1007D0003E0883120313D1000A168A11A2210A12BD
:1007E0008A1183120313540883160313BA00831269
:1007F0000313530883160313B9008312031352081B
:1008000083160313B80083120313510883160313CE
:10081000B7003A08F3003908F2003808F100370849
:10082000F00000300A168A112D230A128A1173086B
:1008300083120313E9007208E8007108E7007008EA
:10084000E60083160313410883120313ED00831699
:100850000313400883120313EC00831603133F08AD
:1008600083120313EB00831603133E088312031352
:10087000EA000A168A1584260A128A1183120313C3
:10088000690883160313C1008312031368088316D3
:100890000313C00083120313670883160313BF00FA
:1008A00083120313660883160313BE00B101B2015D
:1008B000C201C20A4208A50001300310A50DFF3E87
:1008C000031D5D2C0310250D693E84000A128A1158
:1008D0000D200A128A11A6000A128A110D200A128E
:1008E0008A11A7000A128A110D200A128A11A80083
:1008F0000A128A110D200A128A11A90029083A0247
:10090000031D8C2C28083902031D8C2C2708380263
:10091000031D8C2C26083702031C962C0130A500E1
:100920002508C2070A304206031D5A2C03302F0542
:10093000A50000303005A600250826040319AB2CBD
:100940002D30A5003B08840025088313800001306A
:10095000A5002508BB070130C202420A0319402D39
:100960004208A50001300310A50DFF3E031DB32C66
:100970000310250D693E84000A128A110D200A1207
:100980008A11F0000A128A110D200A128A11F10050
:100990000A128A110D200A128A11F2000A128A1113
:1009A0000D200A128A11F3003A08F7003908F60000
:1009B0003808F5003708F4000A168A11E3200A12F5
:1009C0008A11730883160313B6007208B500710804
:1009D000B4007008B300003083120313A30000308A
:1009E000A2000030A1000A30A000831603133608CD
:1009F00083120313A700831603133508831203130E
:100A0000A60083160313340883120313A50083166C
:100A10000313330883120313A4000A128A1501205A
:100A20000A128A1183120313230883160313B600D4
:100A300083120313220883160313B50083120313D2
:100A4000210883160313B4008312031320088316AE
:100A50000313B3003308303EA12C30308316031348
:100A6000A5003B0884002508831380000130A50001
:100A70002508BB07FF30B1070318B20AFF30B207E1
:100A80003208803AFF0080307F02031D492D01307B
:100A9000310203182D2D831603133D08803AFF0001
:100AA00080307F02031D562D09303C02031C5C2D53
:100AB0000830831603135F2D831603133C08A5002B
:100AC0002508C2004208A500A6012508BC02260888
:100AD000031CBD03BD0242080319792D2E30A50069
:100AE0003B0884002508831380000130A5002508F9
:100AF000BB0742080A128A15B7240A128A11831208
:100B00000313410883160313AD0083120313400837
:100B100083160313AC00831203133F0883160313D9
:100B2000AB00831203133E0883160313AA002D089B
:100B300083120313AB00831603132C0883120313D1
:100B4000AA00831603132B0883120313A90083162C
:100B500003132A0883120313A80083160313410802
:100B600083120313A7008316031340088312031391
:100B7000A600831603133F0883120313A5008316F0
:100B800003133E0883120313A4000A128A15A2213C
:100B90000A128A11831203132708D4002608D300EF
:100BA0002508D2002408D1000A168A11A2210A12AF
:100BB0008A1183120313540883160313BA00831295
:100BC0000313530883160313B90083120313520847
:100BD00083160313B80083120313510883160313FB
:100BE000B7000130C202420A0319E62E4208A500EE
:100BF00001300310A50DFF3E031DF92D0310250D37
:100C0000693E84000A128A110D200A128A11F0002E
:100C10000A128A110D200A128A11F1000A128A1191
:100C20000D200A128A11F2000A128A110D200A12EE
:100C30008A11F3003A08F7003908F6003808F50081
:100C40003708F4000A168A11E3200A128A11730881
:100C500083160313B6007208B5007108B40070085B
:100C6000B300003083120313A3000030A200003051
:100C7000A1000A30A0008316031336088312031361
:100C8000A70083160313350883120313A6008316E7
:100C90000313340883120313A500831603133308C8
:100CA00083120313A4000A128A1501200A128A1162
:100CB00083120313230883160313B600831203134E
:100CC000220883160313B500831203132108831629
:100CD0000313B40083120313200883160313B30015
:100CE0003308303EA5003B088400250883138000AC
:100CF0000130A5002508BB074208A50001300310FC
:100D0000A50DFF3E031D7F2E0310250D693E8400B7
:100D10000A128A110D200A128A1183120313A000ED
:100D20000A128A110D200A128A11A1000A128A11D0
:100D30000D200A128A11A2000A128A110D200A122D
:100D40008A11A300831603133A0883120313A70022
:100D500083160313390883120313A60083160313A3
:100D6000380883120313A500831603133708831270
:100D70000313A4000A128A1501200A128A11831291
:100D80000313230883160313BA00831203132208E4
:100D900083160313B9008312031321088316031368
:100DA000B800831203132008EE2D3030A5003B0855
:100DB00084002508831380000130A5002508BB07A7
:100DC000FF30BC070318BD0AFF30BD073C083D04D7
:100DD0000319D028D52E2E08840083130008A500FF
:100DE000840A0008A6002508B7002608B8000030CD
:100DF000B81BFF30B900BA000230A5002508AE07C5
:100E0000BA1F112F0330AF040030B004B709B8097E
:100E1000B909BA09B70A0319B80A0319B90A0319B3
:100E2000BA0A3C083D04031D212F3A08390438044E
:100E30003704031D212F0130BC070318BD0A003001
:100E4000BD07C201C20A4208A50001300310A50D6A
:100E5000FF3E031D262F0310250D693E84000A1254
:100E60008A110D200A128A11A6000A128A110D2079
:100E70000A128A11A7000A128A110D200A128A1179
:100E8000A8000A128A110D200A128A11A900290845
:100E90003A02031D552F28083902031D552F270834
:100EA0003802031D552F26083702031C5F2F01301F
:100EB000A5002508C2070A304206031D232F3D085E
:100EC000803A803C031D662F3C084202031C7E2FA3
:100ED000831603133D08803AA50080302502031DC8
:100EE000732F42083C0203187E2F83160313420817
:100EF000A500A6012508BC002608BD000330831606
:100F000003132F05A50000303005A6002508260490
:100F10000319952F2D30A5003B0884002508831365
:100F200080000130A5002508BB07FF30BC0703186F
:100F3000BD0AFF30BD073C0A03193D0A0319D0283A
:100F4000003083120313A3000030A2000030A10080
:100F50000A30A000831603133C08A50001300310DB
:100F6000A50DFF3E031DAF2F0310250D693E840024
:100F70000A128A110D200A128A11F0000A128A112F
:100F80000D200A128A11F1000A128A110D200A128C
:100F90008A11F2000A128A110D200A128A11F30036
:100FA0003A08F7003908F6003808F5003708F40069
:100FB0000A168A11E3200A128A1173088312031396
:100FC000A7007208A6007108A5007008A4000A1204
:100FD0008A1501200A128A11831203132008303E59
:100FE00083160313A6002608C20042088B2F3B0875
:100FF000840083138001080083010A168A110F2AD6
:10100200831203132308220421042004031946280F
:10101200A901A90AA31B1B280130A8000310A00DD7
:10102200A10DA20DA30DA80B0F280130A8002808BE
:10103200A9070B2823082702031D292822082602B4
:10104200031D292821082502031D2928200824021E
:10105200031C39282008A4022108031C210FA50221
:101062002208031C220FA6022308031C230FA70237
:1010720001300310A30CA20CA10CA00CFF3E031D17
:101082003A280130A902031D1B282708A3002608BD
:10109200A2002508A1002408A00008007008F8009A
:1010A2007108F9007208FA000310790D7A0DFB003D
:1010B2007B0883120313A5002508031D692800304D
:1010C200F3000030F2000030F1000030F0000800C0
:1010D2007408F8007508F9007608FA000310790D13
:1010E2007A0DFB007B08A400240803196028F1177D
:1010F200FF30F005FF30F1050030F205F517FF3043
:10110200F405FF30F5050030F6050030A30000308D
:10111200A2000030A1000030A0007F30A50298306C
:101122002407F8007808A5021830F8007808A4000F
:101132000130F8000310A00DA10DA20DA30DF80BB4
:101142009B2876087202031DAC2875087102031DE4
:10115200AC2874087002031CB9287408F0027508E0
:10116200031C750FF1027608031C760AF2022014A2
:1011720001300310F00DF10DF20DFF3E031DBA28F0
:101182000130A402031D9928A51FDC282508803AF6
:10119200973E031C602801300310A30CA20CA10C83
:1011A200A00CFF3E031DCD280130F8007808A507EA
:1011B2000319EF28CC2818302502031860282508C7
:1011C2000319EF280130F8000310A00DA10DA20DA4
:1011D200A30DF80BE5280130A502E0282308F3004F
:1011E2002208F2002108F1002008F0000800031094
:1011F200720D730DF800780883120313A5002508F9
:10120200031D0C290030F3000030F2000030F10021
:101212000030F00008000310760D770DF800780812
:10122200A400240803190329F217FF30F005FF3048
:10123200F105FF30F2050030F305F617FF30F40533
:10124200FF30F505FF30F6050030F7050030A3004A
:101252000030A2000030A1000030A0007F30A502C3
:10126200A0302407F8007808A5022030F80078089A
:10127200A4000130F8000310A00DA10DA20DA30DD2
:10128200F80B3C2977087302031D51297608720274
:10129200031D512975087102031D5129740870023A
:1012A200031C62297408F0027508031C750FF10211
:1012B2007608031C760FF2027708031C770FF302FD
:1012C20020140130F8000310F00DF10DF20DF30DB2
:1012D200F80B64290130A402031D3A29A51F8629AF
:1012E2002508803A9F3E031C032901300310A30CFA
:1012F200A20CA10CA00CFF3E031D77290130F800BF
:101302007808A507031999297629203025020318A0
:1013120003292508031999290130F8000310A00DAB
:10132200A10DA20DA30DF80B8F290130A5028A2968
:101332002308F3002208F2002108F1002008F0003F
:1013420008008312031327088039AC002C08B1006F
:101352002708AC002C07AD002D08B700A61B3714D8
:1013620037080319C129370A031DBF290030A70016
:101372000030A6000030A5000030A400A617C9293D
:101382000030A7000030A6000030A5000030A40005
:101392002B088039AC002C08B1062B08AC002C07B6
:1013A200AD002D08B600AA1B361436080319E6292B
:1013B200360A031DE4290030AB000030AA000030D9
:1013C200A9000030A800AA17EE290030AB000030B7
:1013D200AA000030A9000030A8003608031D370813
:1013E200031DFC290030A7000030A6000030A50034
:1013F2000030A40008002408AC002C08F0002A08E1
:101402000A168A15A6260A128A1571088312031370
:10141200BD007008BC003C08AC00AD01AE01AF01DC
:101422002F08B5002E08B4002D08B3002C08B20016
:101432003D08AC00AD01AE01AF012F08BB002E0884
:10144200BA002D08B9002C08B8002508AC002C08F9
:10145200F00029080A168A15A6260A128A157108AA
:1014620083120313BD007008BC003C08AC00AD0140
:10147200AE01AF012C08B2072D0803110318013E7B
:10148200031DB3072E0803110318013E031DB40701
:101492002F0803110318013E031DB5073D08AC00D8
:1014A200AD01AE01AF012C08B8072D0803110318D6
:1014B200013E031DB9072E0803110318013E031D47
:1014C200BA072F0803110318013E031DBB072608A4
:1014D200AC002C08F00028080A168A15A6260A1263
:1014E2008A15710883120313BD007008BC003C0802
:1014F200AC00AD01AE01AF012C08B2072D080311FB
:101502000318013E031DB3072E0803110318013E01
:10151200031DB4072F0803110318013E031DB5076D
:101522003D08AC00AD01AE01AF012C08B8072D0893
:1015320003110318013E031DB9072E0803110318F6
:10154200013E031DBA072F0803110318013E031DB4
:10155200BB070830AC000310B20DB30DB40DB50DCE
:10156200AC0BAC2A2508AC002C08F00028080A169F
:101572008A15A6260A128A15710883120313BD0062
:101582007008BC003C08AC003D08AD00AE01AF01E4
:101592002C08B2072D0803110318013E031DB307DF
:1015A2002E0803110318013E031DB4072F0803116F
:1015B2000318013E031DB5072408AC002C08F000F7
:1015C20029080A168A15A6260A128A157108831294
:1015D2000313BD007008BC003C08AC003D08AD0020
:1015E200AE01AF012C08B2072D0803110318013E0A
:1015F200031DB3072E0803110318013E031DB40790
:101602002F0803110318013E031DB5070830AC0073
:101612000310B20DB30DB40DB50DAC0B092B24089C
:10162200AC002C08F00028080A168A15A6260A1211
:101632008A15710883120313BD007008BC003C08B0
:10164200AC003D08AD00AE01AF012C08B2072D0879
:1016520003110318013E031DB3072E0803110318DB
:10166200013E031DB4072F0803110318013E031D99
:10167200B5072508AC002C08F0002A080A168A15BE
:10168200A6260A128A15710883120313BD00700878
:10169200BC003C08AC003D08AD00AE01AF012C0817
:1016A200B8072D0803110318013E031DB9072E08C0
:1016B20003110318013E031DBA072F080311031873
:1016C200013E031DBB072608AC002C08F0002908C8
:1016D2000A168A15A6260A128A157108831203139E
:1016E200BD007008BC003C08AC003D08AD00AE0176
:1016F200AF012C08B8072D0803110318013E031D82
:10170200B9072E0803110318013E031DBA072F085B
:1017120003110318013E031DBB072608AC002C0869
:10172200F0002A080A168A15A6260A128A157108D6
:1017320083120313BD007008BC003C08AC003D08D6
:10174200AD00AE01AF0108300310AC0DAD0DAE0D12
:10175200AF0DFF3E031DA52B2C08B8072D08031162
:101762000318013E031DB9072E0803110318013E99
:10177200031DBA072F0803110318013E031DBB07FF
:101782003208AC003308AD003408AE003508AF00B3
:1017920018300310AF0CAE0CAD0CAC0CFF3E031DA9
:1017A200CA2B2C08B8072D0803110318013E031D8C
:1017B200B9072E0803110318013E031DBA072F08AB
:1017C20003110318013E031DBB070830AC000310D0
:1017D200B20DB30DB40DB50DAC0BE82B37083607BF
:1017E200AC00AD01AD0D2C08823EBC002D080318E3
:1017F200013EFF3EBD00BA1B192C0130AC000310A4
:10180200B80DB90DBA0DBB0DAC0B002CB51B3814BD
:101812000130AC000310B20DB30DB40DB50DAC0B1D
:101822000B2CFF30BC070318BD0AFF30BD07FC2B91
:10183200B601B51F322CFF303205AC00FF30330544
:10184200AD00FF303405AE007F303505AF002F0804
:101852002E042D042C0403193818302C322CB60116
:10186200B60A36080319642C0130B8070030031891
:101872000130B907003003180130BA0700300318ED
:101882000130BB073B1C642C3808AC003908AD00A2
:101892003A08AE003B08AF000130B0002F0DAF0C8C
:1018A200AE0CAD0CAC0CB00B4F2C2F08BB002E08AD
:1018B200BA002D08B9002C08B8000130BC07031883
:1018C200BD0A0030BD073D08803AFF0080307F022C
:1018D200031D6D2CFF303C02031C7A2C7F308312D7
:1018E2000313BB008030BA000030B9000030B800EA
:1018F200AA2C831203133D08803AFF0080307F0236
:10190200031D852C01303C020318932C00308312F6
:101912000313BB000030BA000030B9000030B80039
:10192200B101AA2C831203133C08AC002C08B700A7
:10193200FF30B805FF30B9057F30BA050030BB056E
:101942003718BA173708AC0003102C0CAD002D085D
:10195200BB003108AC002C08BB043B08A7003A08C6
:10196200A6003908A5003808A40008008312031352
:10197200D000D01F5F2ED009D00A5008803A123E04
:10198200031CA92D0A30F7000030F8005008F200BD
:10199200F301F21BF3036430F0000030F1000A1689
:1019A2008A113D200A128A157108FA007008F9009E
:1019B2000A168A1188200A128A15770883120313DD
:1019C200C20001300310C20DFF3E031DE32C0310C1
:1019D200420D593E84000A128A110D200A128A15FC
:1019E200C3000A128A110D200A128A15C4000A12B3
:1019F2008A110D200A128A15C5000A128A110D20B9
:101A02000A128A15C6004608A7004508A60044081F
:101A1200A5004308A4006430F7000030F800500825
:101A2200F900FA01F91BFA030A168A1188200A1230
:101A32008A15770883120313C70001300310C70DFC
:101A4200FF3E031D1F2D0310470D7D3E84000A1229
:101A52008A110D200A128A15C8000A128A110D2055
:101A62000A128A15C9000A128A110D200A128A1551
:101A7200CA000A128A110D200A128A15CB004B08DD
:101A8200AB004A08AA004908A9004808A8000A129F
:101A92008A15A2210A128A15831203132708CF007E
:101AA2002608CE002508CD002408CC000A30F0001C
:101AB2000030F1005008F200F301F21BF3030A16A2
:101AC2008A113D200A128A15700883120313C2007C
:101AD20001300310C20DFF3E031D6A2D0310420D9B
:101AE200353E84000A128A110D200A128A15C3009B
:101AF2000A128A110D200A128A15C4000A128A11CA
:101B02000D200A128A15C5000A128A110D200A1226
:101B12008A15C6004608A7004508A6004408A50085
:101B22004308A4004F08AB004E08AA004D08A900C4
:101B32004C08A8000A128A15A2218312031327084F
:101B4200C1002608C0002508BF002408BE00080006
:101B52005008803A753E031C342E0A30F0000030E3
:101B6200F1005008F200F301F21BF3030A168A1186
:101B72003D200A128A15700883120313C200013035
:101B82000310C20DFF3E031DC12D0310420D353E51
:101B920084000A128A110D200A128A15C3000A1241
:101BA2008A110D200A128A15C4000A128A110D2008
:101BB2000A128A15C5000A128A110D200A128A1504
:101BC200C6004608A7004508A6004408A500430829
:101BD200A4000A30F7000030F8005008F900FA01BA
:101BE200F91BFA030A168A1188200A128A15770845
:101BF20083120313C70001300310C70DFF3E031DFC
:101C0200FD2D0310470D593E84000A128A110D2042
:101C12000A128A15C8000A128A110D200A128A15A0
:101C2200C9000A128A110D200A128A15CA000A1264
:101C32008A110D200A128A15CB004B08AB004A0804
:101C4200AA004908A9004808A8000A128A15A22178
:101C5200831203132708C1002608C0002508BF000D
:101C62002408BE0008005008C20001300310C20D53
:101C7200FF3E031D372E0310420D353E84000A122B
:101C82008A110D200A128A15C3000A128A110D2028
:101C92000A128A15C4000A128A110D200A128A1524
:101CA200C5000A128A110D20C6004608C100450867
:101CB200C0004408BF004308BE0008005008803A34
:101CC200123E031C4A2F0A30F7000030F800500879
:101CD200F200F301F21BF3036430F0000030F10074
:101CE2000A168A113D200A128A157108FA00700834
:101CF200F9000A168A1188200A128A1577088312B7
:101D02000313C20001300310C20DFF3E031D842ED7
:101D12000310420D253E84000A128A110D200A1278
:101D22008A15C3000A128A110D200A128A15C400EC
:101D32000A128A110D200A128A15C5000A128A1186
:101D42000D200A128A15C6004608A7004508A600FB
:101D52004408A5004308A4006430F7000030F800EE
:101D62005008F900FA01F91BFA030A168A118820B1
:101D72000A128A15770883120313C7000130031071
:101D8200C70DFF3E031DC02E0310470D493E8400C0
:101D92000A128A110D200A128A15C8000A128A1123
:101DA2000D200A128A15C9000A128A110D200A1280
:101DB2008A15CA000A128A110D200A128A15CB004E
:101DC2004B08AB004A08AA004908A9004808A80025
:101DD2000A128A15A2210A128A15831203132708EE
:101DE200CF002608CE002508CD002408CC000A30FA
:101DF200F0000030F1005008F200F301F21BF3038F
:101E02000A168A113D200A128A15700883120313DA
:101E1200C20001300310C20DFF3E031D0B2F031041
:101E2200420D013E84000A128A110D200A128A15FF
:101E3200C3000A128A110D200A128A15C4000A125E
:101E42008A110D200A128A15C5000A128A110D2064
:101E52000A128A15C6004608A7004508A6004408CB
:101E6200A5004308A4004F08AB004E08AA004D0885
:101E7200A9004C08A8000A128A15A2218312031392
:101E82002708C1002608C0002508BF002408BE009C
:101E920008005008803A753E031CD52F0A30F00026
:101EA2000030F1005008F200F301F21BF3030A16AE
:101EB2008A113D200A128A15700883120313C20088
:101EC20001300310C20DFF3E031D622F0310420DAD
:101ED200013E84000A128A110D200A128A15C300DB
:101EE2000A128A110D200A128A15C4000A128A11D6
:101EF2000D200A128A15C5000A128A110D200A1233
:101F02008A15C6004608A7004508A6004408A50091
:101F12004308A4000A30F7000030F8005008F90026
:101F2200FA01F91BFA030A168A1188200A128A1585
:101F3200770883120313C70001300310C70DFF3E59
:101F4200031D9E2F0310470D253E84000A128A119D
:101F52000D200A128A15C8000A128A110D200A12CF
:101F62008A15C9000A128A110D200A128A15CA009E
:101F72000A128A110D200A128A15CB004B08AB00F7
:101F82004A08AA004908A9004808A8000A128A15A6
:101F9200A221831203132708C1002608C0002508C6
:101FA200BF002408BE0008005008C2000130031020
:101FB200C20DFF3E031DD82F0310420D013E8400C7
:101FC2000A128A110D200A128A15C3000A128A11F6
:101FD2000D200A128A15C4000A128A110D200A1253
:101FE2008A15C5000A128A110D20C6004608C100D2
:101FF2004508C0004408BF004308BE000800FA01BB
:10200200FB017A087507F8007608F7000318F70A4B
:10201200FA1BF7037708F900790883120313FF000C
:10202200780884000A128A1103200A168A11003ADB
:10203200031908007A087507F8007608F7000318F4
:10204200F70AFA1BF7037708F900790883120313DA
:10205200FF00780884000A128A1103200A168A11E6
:102062000A168A15FB260A168A110130FA07031886
:10207200FB0A0030FB070228F601F31F4728F2098A
:10208200F309F20A0319F30AF601F60AF11F4E28C0
:10209200F009F109F00A0319F10A70087104031931
:1020A2007B28F501F50AF11B622801300310F00DBF
:1020B200F10DFF3E031D57280130F4007408F507A7
:1020C200542871087302031D682870087202031CE9
:1020D20070287008F2027108031CF303F302013046
:1020E2000310F10CF00CFF3E031D71280130F502C4
:1020F200031D6228760803198328F209F309F20AFC
:102102000319F30A7308F1007208F0000800831241
:102112000313A101F81F9428F709F809F70A031914
:10212200F80AA101A10AFA1F9F28F909FA09F90A76
:102132000319FA0A0130FB007B08A106A201A301E0
:10214200770878040319D628A001A00AF81BB5283D
:1021520001300310F70DF80DFF3E031DAA280130D0
:10216200FB007B08A007A72801300310A20DA30DD6
:10217200FF3E031DB62878087A02031DC22877089D
:102182007902031CCB287708F9027808031CFA03AA
:10219200FA02221401300310F80CF70CFF3E031D63
:1021A200CC280130A002031DB52821080319DE281E
:1021B200A209A309A20A0319A30A2308F800220804
:1021C200F70008000030FC000030FB000030FA008D
:1021D2000030F9007308720471047004031938297D
:1021E200FD01FD0AF31B03290130F8000310F00D75
:1021F200F10DF20DF30DF80BF7280130F800780815
:10220200FD07F3280130F8000310F90DFA0DFB0D5C
:10221200FC0DF80B052973087702031D1A297208B1
:102222007602031D1A2971087502031D1A29700806
:102232007402031C2B297008F4027108031C710F2D
:10224200F5027208031C720FF6027308031C730F67
:10225200F702791401300310F30CF20CF10CF00CBC
:10226200FF3E031D2C290130FD02031D03297C08BA
:10227200F3007B08F2007A08F1007908F000080008
:1022820083160313880183120313880100300A1690
:102292008A152F260A168A111A30F500F830F40032
:1022A200F40B5129F50B5129000003300A168A1547
:1022B20049260A168A110730F5007D30F400F40B26
:1022C2006029F50B602903300A168A1549260A1679
:1022D2008A110F30F5004730F400F40B6E29F50B2C
:1022E2006E29732903300A168A1549260A168A119D
:1022F20002300A168A1549260A168A1102300A166F
:102302008A1549260A168A1108300A168A1549269C
:102312000A168A1100300A168A1549260A168A11E7
:102322000C300A168A1549260A168A1100300A1636
:102332008A1549260A168A1106300A168A1549266E
:102342000800031083120313530D540DD5005508D2
:10235200DB005B08031DB6290030D4000030D30037
:102362000030D2000030D10008005108D5005208D8
:10237200D6005308D7005408D8001F300310D80CD9
:10238200D70CD60CD50CFF3E031DBF295508D9002A
:102392005908DA00D317FF30D105FF30D205FF30DC
:1023A200D3050030D4059630DB02DB1FED295B0834
:1023B200803A973E031CAD2901300310D40CD30C94
:1023C200D20CD10CFF3E031DDE290130D500550889
:1023D200DB070319002ADD2920305B020318AD292F
:1023E2005B080319002A0130D5000310D10DD20D6C
:1023F200D30DD40DD50BF6290130DB02F1295A0891
:1024020003190800D109D209D309D409D10A031941
:10241200D20A0319D30A0319D40A08000A168A1128
:1024220041210A168A110A168A1516260A168A11D7
:10243200403083160313E9004930E8000F30E7000B
:10244200F930E6009E30C3004308A0006908A400EA
:102452006808A3006708A2006608A100C6300A1235
:102462008A11C9200A168A11F401F40A01300A16E7
:102472008A15B6270A168A11C630F5000030F60012
:102482000A168A1100200A168A1191308316031344
:10249200C3004308A0003830A1000030A200D630AB
:1024A2000A128A11C9200A168A11F401F40A0230AA
:1024B2000A168A15B6270A168A11D630F500003098
:1024C200F6000A168A1100200A168A110B308316AA
:1024D2000313C5002630C4005D30C300C30B6F2A4E
:1024E200C40B6F2AC50B6F2A0A168A1516260A16FE
:1024F2008A11F401F40A01300A168A15B6270A165F
:102502008A11AB30F5008030F6000A168A110020DD
:102512000A168A110B3083160313C5002630C40035
:102522005D30C300C30B932AC40B932AC50B932AB5
:10253200142A00307005F80000307105F90080306F
:102542007205FA007F307305FB007B087A04790478
:102552007804031DB42A0030F3000030F20000308A
:10256200F1000030F00000307405F800003075050D
:10257200F90080307605FA007F307705FB007B0892
:102582007A0479047804031DCE2A0030F700003063
:10259200F6000030F5000030F400F31FF42A00309A
:1025A200F8000030F9000030FA008030FB007008BB
:1025B200F8027108031C710FDF2AE02AF90272087F
:1025C200031C720FE52AE62AFA027308031C730F32
:1025D200EB2AEC2AFB027B08F3007A08F200790866
:1025E200F1007808F000F71F1A2B0030F8000030D5
:1025F200F9000030FA008030FB007408F802750818
:10260200031C750F052B062BF9027608031C760FA7
:102612000B2B0C2BFA027708031C770F112B122BB2
:10262200FB027B08F7007A08F6007908F5007808C3
:10263200F4008030F3068030F70677087302031D3A
:10264200080076087202031D080075087102031D56
:102652000800740870020800F8007808031DF31FD0
:10266200422B7009FA007109FB007209FC00730920
:10267200FD00FA0A0319FB0A0319FC0A0319FD0AF1
:102682004A2B7308FD007208FC007108FB007008F9
:10269200FA007308720471047004031D592B003090
:1026A200F3000030F2000030F1000030F0000800CA
:1026B2009630F4007408F900FE307D0503198A2B68
:1026C2000130F4007408F90701300310FD0CFC0C12
:1026D200FB0CFA0CFF3E031D662B5D2B0130F40050
:1026E2007408F9070130FA07003003180130FB07BC
:1026F200003003180130FC07003003180130FD07D9
:1027020001300310FD0CFC0CFB0CFA0CFF3E031D08
:10271200822BFF307D0503199E2B6F2B023079022D
:10272200031CA02B0130F9020130F4000310FA0D52
:10273200FB0DFC0DFD0DF40B972BFC1F8F2B791855
:10274200AA2BFF30FA05FF30FB057F30FC05FF3076
:10275200FD050310F90C7908F400F501F601F70103
:1027620018300310F40DF50DF60DF70DFF3E031DA5
:10277200B22B7408FA047508FB047608FC04770887
:10278200FD047808031DF31FC72BFD177D08F30016
:102792007C08F2007B08F1007A08F000080083123E
:1027A2000313D1006E305102031CE22C3F30A7000C
:1027B2000030A6000030A5000030A4006430F6000E
:1027C2000030F7005108C200C3014208F800430874
:1027D200F9000A168A1532270A168A117608831218
:1027E2000313C40001300310C40DFF3E031DF42B7C
:1027F2000310440D7D3E84000A128A110D200A1630
:102802008A11C5000A128A110D200A168A11C60001
:102812000A128A110D200A168A11C7000A128A1199
:102822000D200A168A11C8004808AB004708AA0002
:102832004608A9004508A8000A128A15A2210A160C
:102842008A11831203132708D0002608CF00250817
:10285200CE002408CD000A30F6000030F7005108FF
:10286200C200C3014208F2004308F3006430F000E2
:102872000030F1000A168A15C9260A168A11710853
:10288200F9007008F8000A168A1532270A168A110A
:10289200760883120313C40001300310C40DFF3EF7
:1028A200031D4E2C0310440D593E84000A128A1156
:1028B2000D200A168A11C5000A128A110D200A1665
:1028C2008A11C6000A128A110D200A168A11C7003F
:1028D2000A128A110D200A168A11C8004808A70098
:1028E2004708A6004608A5004508A4005008AB000A
:1028F2004F08AA004E08A9004D08A8000A128A151E
:10290200A2210A168A11831203132708CC00260873
:10291200CB002508CA002408C9000A30F0000030A4
:10292200F1005108C200C3014208F2004308F3005B
:102932000A168A15C9260A168A1170088312031309
:10294200C40001300310C40DFF3E031DA32C03106D
:10295200440D353E84000A128A110D200A168A118E
:10296200C5000A128A110D200A168A11C6000A121F
:102972008A110D200A168A11C7000A128A110D2027
:102982000A168A11C8004808A7004708A600460888
:10299200A5004508A4004C08AB004B08AA004A0851
:1029A200A9004908A8000A128A15A221831203135A
:1029B2002708C1002608C0002508BF002408BE0061
:1029C20008000B305102031C8F2D3F30A70000304E
:1029D200A6000030A5000030A4000A30F600003046
:1029E200F7005108C200C3014208F8004308F90089
:1029F2000A168A1532270A168A11760883120313D9
:102A0200C40001300310C40DFF3E031D032D03104B
:102A1200440D593E84000A128A110D200A168A11A9
:102A2200C5000A128A110D200A168A11C6000A125E
:102A32008A110D200A168A11C7000A128A110D2066
:102A42000A168A11C8004808AB004708AA004608BF
:102A5200A9004508A8000A128A15A2210A168A119D
:102A6200831203132708D0002608CF002508CE00C2
:102A72002408CD000A30F0000030F1005108C200F5
:102A8200C3014208F2004308F3000A168A15C92658
:102A92000A168A11700883120313C400013003104E
:102AA200C40DFF3E031D502D0310440D353E84001E
:102AB2000A128A110D200A168A11C5000A128A11F9
:102AC2000D200A168A11C6000A128A110D200A1652
:102AD2008A11C7000A128A110D200A168A11C8002B
:102AE2004808A7004708A6004608A5004508A40014
:102AF2005008AB004F08AA004E08A9004D08A800D4
:102B02000A128A15A221831203132708C10026087C
:102B1200C0002508BF002408BE0008003F30A700FF
:102B22000030A6000030A5000030A4005108C20009
:102B320001300310C20DFF3E031D9A2D0310420DFA
:102B4200353E84000A128A110D200A168A11C3002A
:102B52000A128A110D200A168A11C4000A128A1159
:102B62000D200A168A11C5000A128A110D200A16B2
:102B72008A11C6004608AB004508AA004408A9000D
:102B82004308A8000A128A15A221831203132708F8
:102B9200C1002608C0002508BF002408BE000800A6
:102BA2008312031355088039DA005A08E2005508E7
:102BB200DA005A07DB005B08E400D41B64146408E3
:102BC2000319F12D640A031DEE2D0030D5000030EB
:102BD200D4000030D3000030D200D417D501F92D33
:102BE2000030D5000030D4000030D3000030D200D5
:102BF20059088039DA005A08E30063086206031DA7
:102C020062175908DA005A07DB005B08E300D81B99
:102C12006314630803191B2E630A031D182E003068
:102C2200D9000030D8000030D7000030D600D817C5
:102C3200D901232E0030D9000030D8000030D7004F
:102C42000030D600640863020318692E621F2D2E1D
:102C52008030DA005A08E2066408DA005A08E50011
:102C62006308DA005A08E4006508DA005A08E3004B
:102C72005208DA005A08E5005608DA005A08D2006B
:102C82006508DA005A08D6005308DA005A08E50047
:102C92005708DA005A08D3006508DA005A08D70044
:102CA2005408DA005A08E5005808DA005A08D40035
:102CB2006508DA005A08D8005508DA005A08E50013
:102CC2005908DA005A08D5006508DA005A08D9000E
:102CD200E5016308DA00DB015B08DD0064085A02E3
:102CE200DC00031CDD035D08803AFF0080307F02B8
:102CF200031D7D2E1A305C02031CB62E83120313B1
:102D020055085404530452040319892E01308A2EA3
:102D12000030DA005A08E5000030D5000030D40057
:102D22000030D3000030D2006308DA005A08E40011
:102D3200BC2E651CA52E6508DA0003105A0C01385A
:102D4200DB005B08E500A72E0310E50C5218E5171F
:102D52000130DA00550DD50CD40CD30CD20CDA0BA1
:102D6200AB2E0130DA005A08E4078312031363081A
:102D72006402031C9A2E621BFD2E6408031DCA2ED8
:102D82000030D5000030D4000030D3000030D20033
:102D920008005608D207570803110318013E031D05
:102DA200D307580803110318013E031DD40759081D
:102DB20003110318013E031DD507551C9F2F651CE7
:102DC200EB2E6508DA0003105A0C0138DB005B08B1
:102DD200E500ED2E0310E50C5218E5170130DA007C
:102DE200550DD50CD40CD30CD20CDA0BF12E0130CC
:102DF200DA005A08E4079F2F5508803AFF00590865
:102E0200803A7F02031D0F2F58085402031D0F2F13
:102E120057085302031D0F2F560852020318672F3B
:102E2200FF30DA00FF30DB00FF30DC00FF30DD0076
:102E32005608DE005708DF005808E0005908E10094
:102E42005208DE025308031C530F282F292FDF02DA
:102E52005408031C540F2E2F2F2FE0025508031C79
:102E6200550F342F352FE1025E08DA075F08031889
:102E72005F0F3C2F3D2FDB0760080318600F422FC6
:102E8200432FDC0761080318610ADD075D08D500DE
:102E92005C08D4005B08D3005A08D2008030DA0004
:102EA2005A08E206E509E50A6508031D752F013097
:102EB200D207003003180130D30700300318013065
:102EC200D407003003180130D507752F5608D202F7
:102ED2005708031C570FD3025808031C580FD4027B
:102EE2005908031C590FD5025508540453045204BF
:102EF200031D9D2F6508031D9D2F0030D500003056
:102F0200D4000030D3000030D20008000130DA00D3
:102F12000310D20DD30DD40DD50DDA0B892FE51B7D
:102F22005214651C962F0314972F0310E50D6408A5
:102F320003199D2F0130E402D41F872FE301E51FFF
:102F4200AA2F65087F3903195218A82FAA2FE30167
:102F5200E30A63080319DD2F0130D207003003189A
:102F62000130D307003003180130D40700300318B2
:102F72000130D507551CDD2F5208DA005308DB005B
:102F82005408DC005508DD000130DE005D0DDD0C6B
:102F9200DC0CDB0CDA0CDE0BC72F5D08D5005C08FD
:102FA200D4005B08D3005A08D200640A0319DD2F4B
:102FB2000130DA005A08E407640A031D6408031D9D
:102FC200ED2F0030D5000030D4000030D3000030A7
:102FD200D20064080319E201641CF12FD417F52F03
:102FE2007F30DA005A08D4056408DA0003105A0C5C
:0E2FF200DB005B08D500E21F0800D5170800C1
:103C2C0000300A168A1549260A168A1501300A161A
:103C3C008A1549260800F100F0013A307102031888
:103C4C002D2E30307102031C2D2EF001F00A700C59
:103C5C000800F000701C362E831203130816392E40
:103C6C00831203130812F01C3D2E88163E2E881268
:103C7C00701D422E0817432E0813F01D472E88176F
:103C8C00080088130800F30083120313081173084B
:103C9C000A168A152F260A168A15831203138815FD
:103CAC000630F2003030F100F10B5A2EF20B5A2E86
:103CBC0000008312031388110800F401F501701C35
:103CCC006D2E7208F4070318F50A7308F507013016
:103CDC000310F20DF30DFF3E031D6E2E0130031089
:103CEC00F10CF00CFF3E031D752E70087104031DC2
:103CFC00652E7508F1007408F000080080308312FE
:103D0C000313E9066D08D5006C08D4006B08D300CA
:103D1C006A08D2006908D9006808D8006708D7007B
:103D2C006608D6000A168A11D1258312031355088A
:103D3C00E9005408E8005308E7005208E6000800C0
:103D4C00F800F401F5017008F200F3017208F600B6
:103D5C007308F700781CB82E7608F4070318F50AD8
:103D6C007708F50701300310F60DF70DFF3E031D24
:103D7C00B92E0310F80C7808031DB02E7508F1004D
:103D8C007408F0000800700871040319F62EF50190
:103D9C00F50AF11BDD2E01300310F00DF10DFF3E85
:103DAC00031DD22E0130F4007408F507CF2E7108D4
:103DBC007302031DE32E70087202031CEB2E7008B5
:103DCC00F2027108031CF303F30201300310F10C2F
:103DDC00F00CFF3E031DEC2E0130F502031DDD2E11
:103DEC007308F1007208F0000800F40074080F3931
:103DFC00F1007108F2007408F039F1007108F30059
:103E0C008312031308157308F10004300310F10C2E
:103E1C00FF3E031D0C2F71080A168A152F260A1651
:103E2C008A158312031388150D30F100F10B1C2F2A
:103E3C0083120313881172080A168A152F260A1684
:103E4C008A158312031388150D30F100F10B2C2FFA
:103E5C008312031388110800FB01FC017608770418
:103E6C000319692FFD01FD0AF71B482F01300310C0
:103E7C00F60DF70DFF3E031D3D2F0130FA007A08B9
:103E8C00FD073A2F01300310FB0DFC0DFF3E031D07
:103E9C00492F77087902031D552F76087802031CE9
:103EAC005E2F7608F8027708031CF903F9027B14DD
:103EBC0001300310F70CF60CFF3E031D5F2F013091
:103ECC00FD02031D482F7C08F7007B08F600080054
:103EDC0000307005F80000307105F9008030720573
:103EEC00FA007F307305FB007B087A0479047804B0
:103EFC00031D882F0030F3000030F2000030F10079
:103F0C000030F00000307405F80000307505F90041
:103F1C0080307605FA007F307705FB007B087A0449
:103F2C0079047804031DA22F0030F7000030F6004E
:103F3C000030F5000030F40077087306031DB02F35
:103F4C0076087206031DB02F75087106031DB02F7D
:103F5C00740870060319B42F03100800031408002A
:103F6C00F7007703031DDB2F74087F3EF5007508FF
:103F7C00FA007A08F50004300310F50CFF3E031D1F
:103F8C00C22F7508F6007608F8007A080F39F5008C
:103F9C007508F90078080A168A1549260A168A1532
:103FAC0079080A168A154926080002307706031D7F
:103FBC0008007408BF3EF5007508FA007A08F50091
:103FCC0004300310F50CFF3E031DE72F7508F600B7
:103FDC007608F8007A080F39F5007508F9007808AA
:103FEC000A168A1549260A168A1579080A168A1598
:043FFC00492608004A
:02400E00393F38
:00000001FF
