:020000040000FA
:060000000A128A11FC2F18
:100F700083160313860187018801831203138601F8
:100F800087018801FF3083120313860087018801DF
:100F90000230F2004530F100A930F000F00BCE2F06
:100FA000F10BCE2FF20BCE2FD52F83120313860118
:100FB000FF30870088010230F2004530F100A9308F
:100FC000F000F00BE12FF10BE12FF20BE12FE82FF6
:100FD0008312031386018701FF3088000230F2007C
:100FE0004530F100A930F000F00BF42FF10BF42F95
:100FF000F20BF42FFB2FC22F83010A128A11B82F94
:00000001FF
