:020000040000FA
:100000000A128A11FC2F00308A000408840A820731
:1000100000341C343E347E34FC34FC347E343E34B4
:100020001C3420346E34CE34C034C034CE346E34FC
:100030002034013402340434083410342034403481
:0200400080340A
:100F26008316031386018701831203138601870143
:100F3600F201F4017408113E84000A128A1103209A
:100F46000A128A11FF3A8312031387007408093EB6
:100F560084000A128A1103200A128A1186000730B9
:100F6600F1007D30F000F00BB62FF10BB62F0130FB
:100F7600F0007008F40708307402031C9D2F01303E
:100F8600F0007008F20714307202031C9C2FF30164
:100F9600F5017508113E84000A128A1103200A120F
:100FA6008A11FF3A8312031387007508013E8400F5
:100FB6000A128A1103200A128A1186000730F100EC
:100FC6007D30F000F00BE52FF10BE52F0130F0003E
:100FD6007008F50708307502031CCC2F0130F000AD
:100FE6007008F30750307302031CCB2F0A128A11C4
:0A0FF600002883010A128A11932FCC
:00000001FF
