:020000040000FA
:060000000A128A11F82F1C
:10000A00031083120313660D670DE8006808EE00FB
:10001A006E08031D19280030E7000030E6000030A2
:10002A00E5000030E40008006408E8006508E9001B
:10003A006608EA006708EB001F300310EB0CEA0CB5
:10004A00E90CE80CFF3E031D22286808EC006C0846
:10005A00ED00E617FF30E405FF30E505FF30E60561
:10006A000030E7059630EE02EE1F50286E08803AFF
:10007A00973E031C102801300310E70CE60CE50C30
:10008A00E40CFF3E031D41280130E8006808EE0732
:10009A0003196328402820306E02031810286E08BE
:1000AA00031963280130E8000310E40DE50DE60D9D
:1000BA00E70DE80B59280130EE0254286D080319A0
:1000CA000800E409E509E609E709E40A0319E50A6B
:1000DA000319E60A0319E70A080083120313AA00A0
:1000EA002A08031DA91F89282609AC002709AD0083
:1000FA002809AE002909AF00AC0A0319AD0A031991
:10010A00AE0A0319AF0A91282908AF002808AE00E1
:10011A002708AD002608AC0029082804270426046D
:10012A00031DA0280030A9000030A8000030A70055
:10013A000030A60008009630F9007908AB00FE30BE
:10014A002F050319D1280130F9007908AB070130CE
:10015A000310AF0CAE0CAD0CAC0CFF3E031DAD286A
:10016A00A4280130F9007908AB070130AC07003048
:10017A0003180130AD07003003180130AE07003014
:10018A0003180130AF0701300310AF0CAE0CAD0CF1
:10019A00AC0CFF3E031DC928FF302F050319E528C3
:1001AA00B62802302B02031CE7280130AB020130CB
:1001BA00F9000310AC0DAD0DAE0DAF0DF90BDE2835
:1001CA00AE1FD6282B18F128FF30AC05FF30AD053D
:1001DA007F30AE05FF30AF050310AB0C2B08F900DA
:1001EA00FA01FB01FC0118300310F90DFA0DFB0DA1
:1001FA00FC0DFF3E031DF9287908AC047A08AD040A
:10020A007B08AE047C08AF042A08031DA91F0E2927
:10021A00AF172F08A9002E08A8002D08A7002C0840
:10022A00A60008000330831603132102FF300319C6
:10023A00200203180800200883120313A60083165D
:10024A000313210883120313A700A801A901003090
:10025A000A128A1172200A128A11831203132908B8
:10026A00B7002808B6002708B5002608B4004430AD
:10027A00B3007F30B200C030B1000030B0000A12C3
:10028A008A1140230A128A11831203133308D100F8
:10029A003208D0003108CF003008CE000030F70015
:1002AA003D30F6000930F5000030F40083160313E0
:1002BA002908A3002808A200A20EA30EF030A30565
:1002CA0022080F39A304F030A2052208F0002308FF
:1002DA00F1000030F11BFF30F200F3000A128A1518
:1002EA0071270A128A11730883120313A90072086C
:1002FA00A8007108A7007008A60001300A128A1126
:10030A0072200A128A11831203132908CD002808C1
:10031A00CC002708CB002608CA000A128A11E32457
:10032A000A128A11831203134D08E7004C08E600EB
:10033A004B08E5004A08E4000A128A1105200A124D
:10034A008A1183120313650883160313A10083120B
:10035A000313640883160313A000201CB829831210
:10036A0003139716BB2983120313971217128316C6
:10037A0003132108A3002008A2000310A30CA20C57
:10038A000310A30CA20C2208831203139500080081
:10039A000330831603132102FF30031920020318C6
:1003AA000800200883120313A600831603132108EA
:1003BA0083120313A700A801A90100300A128A11A7
:1003CA0072200A128A11831203132908B700280817
:1003DA00B6002708B5002608B4004430B3007F30C1
:1003EA00B200C030B1000030B0000A128A114023B6
:1003FA000A128A11831203133308D1003208D0007B
:10040A003108CF003008CE000030F7003D30F6004A
:10041A000930F5000030F400831603132B08A300FB
:10042A002A08A200A20EA30EF030A30522080F3953
:10043A00A304F030A2052208F0002308F1000030DE
:10044A00F11BFF30F200F3000A128A1571270A1213
:10045A008A11730883120313A9007208A80071088D
:10046A00A7007008A60001300A128A1172200A1227
:10047A008A11831203132908CD002808CC00270803
:10048A00CB002608CA000A128A11E3240A128A112A
:10049A00831203134D08E7004C08E6004B08E500F9
:1004AA004A08E4000A128A1105200A128A118312E4
:1004BA000313650883160313A10083120313640848
:1004CA0083160313A000201C6E2A831203139D16A1
:1004DA00712A831203139D121D1283160313210816
:1004EA00A3002008A2000310A30CA20C0310A30C63
:1004FA00A20C2208831203139B000800FF30831604
:10050A0003138600831203138601831603138801DB
:10051A008312031388010A128A159B260A128A116A
:10052A00D03083120313A8000730A9000A128A15D3
:10053A00AB260A128A11D03083120313A80007309F
:10054A00A9000A128A15C7260A128A1100308316D0
:10055A000313A000A1000A128A1117210A128A1194
:10056A00003083160313A000A1000A128A11CD21BC
:10057A000A128A11F43083160313A6000130A70069
:10058A00F430A0000130A1000A128A1117210A12C0
:10059A008A1183120313061CFB2A033083160313E2
:1005AA002702FF30031926020318222B1930A60747
:1005BA000318A70A0030A7072708A1002608A000E9
:1005CA000A128A1117210A128A11831203130814B4
:1005DA00823083160313A500DD30A400A40BF32A8E
:1005EA00A50BF32A831203130810222B861C222B35
:1005FA0083160313260827040319222B1930A6028F
:10060A000030031CA703A7022708A1002608A000A0
:10061A000A128A1117210A128A11831203138814E3
:10062A00823083160313A500DD30A400A40B1B2B14
:10063A00A50B1B2B8312031388100030F000F10066
:10064A000A128A1500270A128A11710883160313DF
:10065A00A1007008A0000A128A11CD210A128A117B
:10066A000D3083160313A500FB30A400A40B3B2B0B
:10067A00A50B3B2BCE2A8312031337088039B80007
:10068A003808C1003708B8003807B9003908C80067
:10069A00B61B481448080319602B480A031D5D2B32
:1006AA000030B7000030B6000030B5000030B400AA
:1006BA00B617B701682B0030B7000030B60000301B
:1006CA00B5000030B40033088039B8003808C106D4
:1006DA003308B8003807B9003908C900B21B4914F1
:1006EA0049080319862B490A031D832B0030B300DE
:1006FA000030B2000030B1000030B000B217B301D0
:10070A008E2B0030B3000030B2000030B100003050
:10071A00B0003308320431043004031DAD2B00301D
:10072A00B7000030B6000030B5000030B4008030A9
:10073A00B6047F30B7044108B8003808B704370850
:10074A00B3003608B2003508B1003408B00008001A
:10075A004808031DB92B0030B3000030B200003046
:10076A00B1000030B00008004808B800B9013908E3
:10077A00BB0049083802BA00031CBB033A087F3E93
:10078A00C2003B080318013E003EC3003708C00000
:10079A003608BF003508BE003408BD000030B70077
:1007AA000030B6000030B5000030B4000030C70099
:1007BA000030C6000030C5000030C400C9011A303C
:1007CA00490203182C2C49080319082C0130B800D7
:1007DA000310BD0DBE0DBF0DC00DB80BED2B0130C2
:1007EA00B8000310B40DB50DB60DB70DB80BF62B46
:1007FA00C71B34140130B8000310C40DC50DC60D53
:10080A00C70DB80B012C33084002031D162C320801
:10081A003F02031D162C31083E02031D162C300818
:10082A003D02031C272C47173008BD023108031C60
:10083A00310FBE023208031C320FBF023308031CF9
:10084A00330FC0020130B8003808C907E42B40084A
:10085A003F043E043D04031D4414B61B4F2C0130D3
:10086A00B8000310B40DB50DB60DB70DB80B362C84
:10087A00C71B34140130B8000310C40DC50DC60DD2
:10088A00C70DB80B412CFF30C2070318C30AFF304B
:10089A00C307322CC901C71F682CFF304405B800B2
:1008AA00FF304505B900FF304605BA007F304705DD
:1008BA00BB003B083A043904380403193418662C7F
:1008CA00682CC901C90A490803199A2C0130B407CE
:1008DA00003003180130B507003003180130B6079D
:1008EA00003003180130B707371C9A2C3408B800B7
:1008FA003508B9003608BA003708BB000130BC0019
:10090A003B0DBB0CBA0CB90CB80CBC0B852C3B08C4
:10091A00B7003A08B6003908B5003808B400013003
:10092A00C2070318C30A0030C3074308803AFF000E
:10093A0080307F02031DA32CFF304202031CB32C1C
:10094A00FF3083120313C2000030C3000030B70027
:10095A000030B6000030B5000030B4008312031333
:10096A004308803AFF0080307F02031DBE2C01300D
:10097A0042020318CD2C83120313C201C3010030B3
:10098A00B7000030B6000030B5000030B400C10135
:10099A00831203134208B8003808C800481CD72C31
:1009AA00B617DB2C7F30B8003808B6054808B800FF
:1009BA000310380CB9003908B700A02B83120313AF
:1009CA004D088039D2005208D7004D08D20052078C
:1009DA00D3005308DD00CC1B5D145D080319022DFA
:1009EA005D0A031D002D0030CD000030CC00003020
:1009FA00CB000030CA00CC170A2D0030CD000030E1
:100A0A00CC000030CB000030CA0051088039D20037
:100A1A005208D7065108D2005207D3005308DC0007
:100A2A00D01B5C145C080319272D5C0A031D252DB5
:100A3A000030D1000030D0000030CF000030CE00AE
:100A4A00D0172F2D0030D1000030D0000030CF0059
:100A5A000030CE005C08031D5D08031D3D2D0030EB
:100A6A00CD000030CC000030CB000030CA000800B6
:100A7A004A08D2005208F00050080A128A152227A2
:100A8A000A128A11710883120313E3007008E20044
:100A9A006208D200D301D401D5015508DB005408FD
:100AAA00DA005308D9005208D8006308D200D301EB
:100ABA00D401D5015508E1005408E0005308DF00CD
:100ACA005208DE004B08D2005208F0004F080A1202
:100ADA008A1522270A128A11710883120313E30066
:100AEA007008E2006208D200D301D401D50152088D
:100AFA00D807530803110318013E031DD9075408E8
:100B0A0003110318013E031DDA07550803110318E0
:100B1A00013E031DDB076308D200D301D401D501CE
:100B2A005208DE07530803110318013E031DDF07AD
:100B3A00540803110318013E031DE0075508031169
:100B4A000318013E031DE1074C08D2005208F000C9
:100B5A004E080A128A1522270A128A11710883126C
:100B6A000313E3007008E2006208D200D301D40143
:100B7A00D5015208D807530803110318013E031D73
:100B8A00D907540803110318013E031DDA07550853
:100B9A0003110318013E031DDB076308D200D301CA
:100BAA00D401D5015208DE07530803110318013E88
:100BBA00031DDF07540803110318013E031DE00754
:100BCA00550803110318013E031DE1070830D2003E
:100BDA000310D80DD90DDA0DDB0DD20BED2D4B0814
:100BEA00D2005208F0004E080A128A1522270A1269
:100BFA008A11710883120313E3007008E200620885
:100C0A00D2006308D300D401D5015208D80753088B
:100C1A0003110318013E031DD907540803110318D1
:100C2A00013E031DDA07550803110318013E031D8F
:100C3A00DB074A08D2005208F0004F080A128A1548
:100C4A0022270A128A11710883120313E30070081B
:100C5A00E2006208D2006308D300D401D501520829
:100C6A00D807530803110318013E031DD907540876
:100C7A0003110318013E031DDA075508031103186F
:100C8A00013E031DDB070830D2000310D80DD90D31
:100C9A00DA0DDB0DD20B4A2E4A08D2005208F000B8
:100CAA004E080A128A1522270A128A11710883121B
:100CBA000313E3007008E2006208D2006308D3005D
:100CCA00D401D5015208D807530803110318013E6D
:100CDA00031DD907540803110318013E031DDA073F
:100CEA00550803110318013E031DDB074B08D20008
:100CFA005208F00050080A128A1522270A128A118D
:100D0A00710883120313E3007008E2006208D2003C
:100D1A006308D300D401D5015208DE075308031132
:100D2A000318013E031DDF07540803110318013E8F
:100D3A00031DE007550803110318013E031DE107CF
:100D4A004C08D2005208F0004F080A128A152227CE
:100D5A000A128A11710883120313E3007008E20071
:100D6A006208D2006308D300D401D5015208DE0715
:100D7A00530803110318013E031DDF07540803112A
:100D8A000318013E031DE007550803110318013E2D
:100D9A00031DE1074C08D2005208F00050080A125D
:100DAA008A1522270A128A11710883120313E30093
:100DBA007008E2006208D2006308D300D401D501AA
:100DCA0008300310D20DD30DD40DD50DFF3E031DEF
:100DDA00E62E5208DE07530803110318013E031DCD
:100DEA00DF07540803110318013E031DE0075508E5
:100DFA0003110318013E031DE1075808D2005908E0
:100E0A00D3005A08D4005B08D50018300310D50C5B
:100E1A00D40CD30CD20CFF3E031D0B2F5208DE0755
:100E2A00530803110318013E031DDF075408031179
:100E3A000318013E031DE007550803110318013E7C
:100E4A00031DE1070830D2000310D80DD90DDA0DC1
:100E5A00DB0DD20B292F5D085C07D200D301D30D1D
:100E6A005208823EE20053080318013EFF3EE300A7
:100E7A00E01B5A2F0130D2000310DE0DDF0DE00D0A
:100E8A00E10DD20B412FDB1B5E140130D20003109F
:100E9A00D80DD90DDA0DDB0DD20B4C2FFF30E2073E
:100EAA000318E30AFF30E3073D2FDC01DB1F732F32
:100EBA00FF305805D200FF305905D300FF305A05DC
:100ECA00D4007F305B05D5005508540453045204FE
:100EDA0003195E18712F732FDC01DC0A5C080319F1
:100EEA00A52F0130DE07003003180130DF0700307C
:100EFA0003180130E007003003180130E107611CD4
:100F0A00A52F5E08D2005F08D3006008D4006108EC
:100F1A00D5000130D600550DD50CD40CD30CD20C0B
:100F2A00D60B902F5508E1005408E0005308DF0063
:100F3A005208DE000130E2070318E30A0030E30733
:100F4A006308803AFF0080307F02031DAE2FFF3016
:100F5A006202031CBB2F7F3083120313E10080302F
:100F6A00E0000030DF000030DE00EB2F83120313B5
:100F7A006308803AFF0080307F02031DC62F0130CC
:100F8A0062020318D42F003083120313E1000030E9
:100F9A00E0000030DF000030DE00D701EB2F8312C3
:100FAA0003136208D2005208DD00FF30DE05FF306D
:100FBA00DF057F30E0050030E1055D18E0175D08C8
:100FCA00D2000310520CD3005308E1005708D20094
:100FDA005208E1046108CD006008CC005F08CB002C
:100FEA005E08CA00080083160313AA01AB01830135
:100FFA000A128A11832A08308A000408840A82079E
:04100A000034193461
:101D3600831203131F083F3940389F00C7309F05A1
:101D46001F10831603139F171F17F0309F050800F7
:101D560083120313290883160313A900831203139E
:101D6600280883160313A800831203132908A70063
:101D76002808A6000A128A1545270A128A15013074
:101D86000A128A15E326080083120313290883160C
:101D96000313AB0083120313280883160313AA0048
:101DA600831203132908A7002808A6000A128A1519
:101DB60045270A128A1502300A128A15E3260800F8
:101DC600F00002307006031DED2E831203139D15DD
:101DD6001D15F12E8312031397151715121492145D
:101DE600121502307006031DFC2E8316031307110D
:101DF60008008316031387100800831203131F14A9
:101E06007008F200F20DF20DF20D1F087206C739C6
:101E160072069F000D30F300FB30F200F20B112F1B
:101E2600F30B112F162F831203131F151F19192FCA
:101E36001E08F100831603131E08F0000800F800C0
:101E4600F401F5017008F200F3017208F600730858
:101E5600F700781C342F7608F4070318F50A77087C
:101E6600F50701300310F60DF70DFF3E031D352F64
:101E76000310F80C7808031D2C2F7508F100740860
:101E8600F0000800831203132708FA002608F90059
:101E96000310F90DFA0D0310F90DFA0DF90EFA0EED
:101EA600F030FA0579080F39FA04F030F9057908A7
:101EB600F0007A08F100F201F3010030F7003D303E
:101EC600F6000930F5000030F4000A128A15712771
:101ED6007008FF3E83160313920008008312031353
:101EE600A101F31F832FF009F109F209F309F00AA2
:101EF6000319F10A0319F20A0319F30AA101A10A47
:101F0600F71F942FF409F509F609F709F40A0319DE
:101F1600F50A0319F60A0319F70A0130F8007808DA
:101F2600A1060030A5000030A4000030A300003058
:101F3600A20073087204710470040319E92FA0014A
:101F4600A00AF31BB42F0130F8000310F00DF10DB9
:101F5600F20DF30DF80BA82F0130F8007808A00752
:101F6600A42F0130F8000310A20DA30DA40DA50D9A
:101F7600F80BB62F73087702031DCB2F7208760273
:101F8600031DCB2F71087502031DCB2F7008740239
:101F9600031CDC2F7008F4027108031C710FF50294
:101FA6007208031C720FF6027308031C730FF70204
:101FB600221401300310F30CF20CF10CF00CFF3E6E
:101FC600031DDD2F0130A002031DB42F21080319C4
:101FD600F72FA209A309A409A509A20A0319A30AAE
:101FE6000319A40A0319A50A2508F3002408F20018
:0A1FF6002308F1002208F0000800A3
:00000001FF
