:020000040000FA
:060000000A128A11FC2F18
:10000A00F800F401F5017008F200F3017208F60035
:10001A007308F700781C17287608F4070318F50AFE
:10002A007708F50701300310F60DF70DFF3E031DA3
:10003A0018280310F80C7808031D0F287508F1001A
:10004A007408F000080004308312031360020030C1
:10005A0003195F02031808005F08F0006008F10046
:10006A00F201F30100300A128A155D270A128A1179
:10007A00730883120313C1007208C0007108BF001D
:10008A007008BE004430BD007F30BC00C030BB00E9
:10009A000030BA000A128A116F210A128A118312D9
:1000AA0003133D08A7003C08A6003B08A5003A0830
:1000BA00A4004430A3007F30A2000030A100003029
:1000CA00A0000A128A11E7240A128A118312031362
:1000DA002308D7002208D6002108D5002008D4001A
:1000EA000A128A1581260A128A11831203135508E5
:1000FA00E0005408DF005F1C8628831203139D1654
:10010A008928831203139D121D126008E2005F08FA
:10011A00E1000310E20CE10C0310E20CE10C6108AF
:10012A009B00080083120313AB002130A3002308AD
:10013A00A6000130A007FF30200784000A128A15A2
:10014A000A200A128A11A3002308AC002C080319FA
:10015A006A2925302C060319BE282C08A3002B086F
:10016A0084002308831380000130A3002308AB070F
:10017A009E28A7010130A007FF30200784000A1239
:10018A008A150A200A128A11AC00A300A4012408C5
:10019A00003A0319D128B2282308003A03196A2918
:1001AA00643A0319DC280D3A0319DC28B228260818
:1001BA00840083130008A900840A0008AA000230F8
:1001CA00A3002308A607AA1FF3280330A3002308C5
:1001DA00A704A909AA09A90A0319AA0AAC01AC0A1F
:1001EA002C08A3002307013E84000A128A150A205C
:1001FA000A128A11A4000A128A150A200A128A11FE
:10020A00A50025082A02031D0C2924082902031C1B
:10021A0016290130A3002308AC0705302C06031D5C
:10022A00F52827080339031925292D30A3002B089F
:10023A0084002308831380000130A3002308AB073E
:10024A002C08A3002308A800FF30A3002308A8074E
:10025A00280A03199E280A30F8000030F9002808F5
:10026A00A3002307013E84000A128A150A200A12F3
:10027A008A11F0000A128A150A200A128A11F1005C
:10028A002A08F3002908F2000A128A155D250A12C3
:10029A008A117108FB007008FA000A128A15F42400
:1002AA000A128A117808303E83120313A400240824
:1002BA00AC002C08A3002B088400230883138000B9
:1002CA000130A3002308AB0729292B0884008313D4
:1002DA00800108008312031341088039C2004208D2
:1002EA00CB004108C2004207C3004308D200C01B2A
:1002FA005214520803198F29520A031D8C290030FF
:10030A00C1000030C0000030BF000030BE00C0177E
:10031A00C10197290030C1000030C0000030BF0081
:10032A000030BE003D088039C2004208CB063D08B5
:10033A00C2004207C3004308D300BC1B531453082E
:10034A000319B529530A031DB2290030BD00003034
:10035A00BC000030BB000030BA00BC17BD01BD298B
:10036A000030BD000030BC000030BB000030BA00D5
:10037A003D083C043B043A04031DDC290030C1005B
:10038A000030C0000030BF000030BE008030C00422
:10039A007F30C1044B08C2004208C1044108BD00B5
:1003AA004008BC003F08BB003E08BA0008005208DB
:1003BA00031DE8290030BD000030BC000030BB003E
:1003CA000030BA0008005208C200C3014308C50041
:1003DA0053084202C400031CC50344087F3ECC00F4
:1003EA0045080318013E003ECD004108CA004008F6
:1003FA00C9003F08C8003E08C7000030C1000030ED
:10040A00C0000030BF000030BE000030D100003014
:10041A00D0000030CF000030CE00D3011A30530292
:10042A0003185B2A53080319372A0130C200031044
:10043A00C70DC80DC90DCA0DC20B1C2A0130C20056
:10044A000310BE0DBF0DC00DC10DC20B252AD11B55
:10045A003E140130C2000310CE0DCF0DD00DD10DC8
:10046A00C20B302A3D084A02031D452A3C084902AC
:10047A00031D452A3B084802031D452A3A0847023C
:10048A00031C562A51173A08C7023B08031C3B0FA4
:10049A00C8023C08031C3C0FC9023D08031C3D0F5F
:1004AA00CA020130C2004208D307132A4A08490483
:1004BA0048044704031D4E14C01B7E2A0130C200A3
:1004CA000310BE0DBF0DC00DC10DC20B652AD11B95
:1004DA003E140130C2000310CE0DCF0DD00DD10D48
:1004EA00C20B702AFF30CC070318CD0AFF30CD07A4
:1004FA00612AD301D11F972AFF304E05C200FF306F
:10050A004F05C300FF305005C4007F305105C500B8
:10051A00450844044304420403193E18952A972ABD
:10052A00D301D30A53080319C92A0130BE07003080
:10053A0003180130BF07003003180130C00700302C
:10054A0003180130C107411CC92A3E08C2003F08EE
:10055A00C3004008C4004108C5000130C600450D6B
:10056A00C50CC40CC30CC20CC60BB42A4508C10086
:10057A004408C0004308BF004208BE000130CC074F
:10058A000318CD0A0030CD074D08803AFF008030AD
:10059A007F02031DD22AFF304C02031CE22AFF30DD
:1005AA0083120313CC000030CD000030C1000030AC
:1005BA00C0000030BF000030BE00831203134D0894
:1005CA00803AFF0080307F02031DED2A01304C0281
:1005DA000318FC2A83120313CC01CD010030C10099
:1005EA000030C0000030BF000030BE00CB018312D3
:1005FA0003134C08C2004208D200521C062BC01733
:10060A000A2B7F30C2004208C0055208C2000310FC
:10061A00420CC3004308C100CF29FF3083160313DD
:10062A0086008312031386010A128A1571240A129C
:10063A008A110A128A1520260A128A110A128A15A2
:10064A0066240A128A11F401F40A01300A128A1580
:10065A00D6250A128A111B30F5008030F6000A12DC
:10066A008A1599250A128A110D3083120313E400A0
:10067A00FB30E300E30B3F2BE40B3F2B0A128A15F6
:10068A0052240A128A110A128A155C240A128A1141
:10069A00003083120313DF00E0000A128A15EE26E7
:1006AA000A128A11003083120313DF00E0000A12D3
:1006BA008A1128200A128A110A128A1566240A1235
:1006CA008A11F401F40A01300A128A15D6250A128F
:1006DA008A110B30F5008030F6000A128A15992526
:1006EA000A128A11823083120313E400DD30E30018
:1006FA00E30B7D2BE40B7D2B0A128A1566240A1262
:10070A008A1183160313B401B5010030F000F10019
:10071A000A128A15D2240A128A117108831603133F
:10072A00B1007008B0003008F0003108F100F201A1
:10073A00F30100300A128A155D270A128A1173081A
:10074A0083120313A7007208A6007108A500700897
:10075A00A4004230A300C830A2000030A10000303B
:10076A00A0000A128A11E7240A128A1183120313BB
:10077A002308C1002208C0002108BF002008BE00CB
:10078A004430BD007F30BC00C030BB000030BA002E
:10079A000A128A116F210A128A11831203133D0861
:1007AA00D7003C08D6003B08D5003A08D4000A1204
:1007BA008A1581260A128A11831203135508831691
:1007CA000313B30083120313540883160313B200EE
:1007DA00310883120313E0008316031330088312CF
:1007EA000313DF000A128A15EE260A128A110A1268
:1007FA008A1566240A128A11293083120313E30028
:10080A006308A00083160313330883120313A2009C
:10081A0083160313320883120313A100A0300A12AD
:10082A008A1197200A128A11F401F40A01300A1275
:10083A008A15D6250A128A11A030F5000030F60072
:10084A000A128A1599250A128A1183120313061CA1
:10085A003E2C043083160313350200300319340288
:10086A0003185B2C0130B4070318B50A0030B5072A
:10087A004C2C861C5B2C831603133408350403198D
:10088A005B2C0130B4020030031CB503B5023508F5
:10089A0083120313E000831603133408831203132D
:1008AA00DF000A128A1128200A128A1183160313FA
:1008BA003408F0003508F100F201F30100300A12A1
:1008CA008A155D270A128A11730883120313A70077
:1008DA007208A6007108A5007008A4004230A3009F
:1008EA00C830A2000030A1000030A0000A128A110C
:1008FA00E7240A128A11831203132308C10022086B
:10090A00C0002108BF002008BE004430BD007F306F
:10091A00BC00C030BB000030BA000A128A116F2135
:10092A000A128A11831203133D08D7003C08D60025
:10093A003B08D5003A08D4000A128A1581260A1201
:10094A008A1183120313550883160313B300831203
:10095A000313540883160313B200293083120313B6
:10096A00E3006308A00083160313330883120313FA
:10097A00A20083160313320883120313A100A030C6
:10098A000A128A1197200A128A11F401F40A023013
:10099A000A128A15D6250A128A11A030F5000030EB
:1009AA00F6000A128A1599250A128A114130831211
:1009BA000313E400ED30E300E30BE12CE40BE12C3C
:1009CA00E62C8A2B8312031323088039A8002808EF
:1009DA00AD002308A8002807A9002908B300A21B14
:1009EA00331433080319062D330A031D042D00306E
:1009FA00A3000030A2000030A1000030A000A2171E
:100A0A000E2D0030A3000030A2000030A1000030FB
:100A1A00A00027088039A8002808AD062708A800E2
:100A2A002807A9002908B200A61B321432080319A4
:100A3A002B2D320A031D292D0030A7000030A600F5
:100A4A000030A5000030A400A617332D0030A700FF
:100A5A000030A6000030A5000030A4003208031DB3
:100A6A003308031D412D0030A3000030A2000030DE
:100A7A00A1000030A00008002008A8002808F00003
:100A8A0026080A128A1105200A128A11710883128D
:100A9A000313B9007008B8003808A800A901AA0110
:100AAA00AB012B08B1002A08B0002908AF002808BA
:100ABA00AE003908A800A901AA01AB012B08B700AA
:100ACA002A08B6002908B5002808B4002108A80099
:100ADA002808F00025080A128A1105200A128A112C
:100AEA00710883120313B9007008B8003808A80007
:100AFA00A901AA01AB012808AE07290803110318A6
:100B0A00013E031DAF072A0803110318013E031D06
:100B1A00B0072B0803110318013E031DB10739085A
:100B2A00A800A901AA01AB012808B40729080311E2
:100B3A000318013E031DB5072A0803110318013ED5
:100B4A00031DB6072B0803110318013E031DB7073F
:100B5A002208A8002808F00024080A128A11052091
:100B6A000A128A11710883120313B9007008B800B7
:100B7A003808A800A901AA01AB012808AE0729086C
:100B8A0003110318013E031DAF072A0803110318B6
:100B9A00013E031DB0072B0803110318013E031D74
:100BAA00B1073908A800A901AA01AB012808B407AE
:100BBA00290803110318013E031DB5072A0803116A
:100BCA000318013E031DB6072B0803110318013E43
:100BDA00031DB7070830A8000310AE0DAF0DB00D06
:100BEA00B10DA80BF12D2108A8002808F00024084F
:100BFA000A128A1105200A128A1171088312031334
:100C0A00B9007008B8003808A8003908A900AA0174
:100C1A00AB012808AE07290803110318013E031D7A
:100C2A00AF072A0803110318013E031DB0072B085A
:100C3A0003110318013E031DB1072008A800280864
:100C4A00F00025080A128A1105200A128A11710871
:100C5A0083120313B9007008B8003808A8003908CD
:100C6A00A900AA01AB012808AE0729080311031835
:100C7A00013E031DAF072A0803110318013E031D95
:100C8A00B0072B0803110318013E031DB1070830F2
:100C9A00A8000310AE0DAF0DB00DB10DA80B4E2E6E
:100CAA002008A8002808F00024080A128A11052042
:100CBA000A128A11710883120313B9007008B80066
:100CCA003808A8003908A900AA01AB012808AE070C
:100CDA00290803110318013E031DAF072A0803114F
:100CEA000318013E031DB0072B0803110318013E28
:100CFA00031DB1072108A8002808F00026080A12D7
:100D0A008A1105200A128A11710883120313B90085
:100D1A007008B8003808A8003908A900AA01AB0170
:100D2A002808B407290803110318013E031DB50753
:100D3A002A0803110318013E031DB6072B080311E5
:100D4A000318013E031DB7072208A8002808F0006F
:100D5A0025080A128A1105200A128A1171088312BB
:100D6A000313B9007008B8003808A8003908A900A8
:100D7A00AA01AB012808B407290803110318013E88
:100D8A00031DB5072A0803110318013E031DB60700
:100D9A002B0803110318013E031DB7072208A800F8
:100DAA002808F00026080A128A1105200A128A1158
:100DBA00710883120313B9007008B8003808A80034
:100DCA003908A900AA01AB0108300310A80DA90D22
:100DDA00AA0DAB0DFF3E031DEA2E2808B407290809
:100DEA0003110318013E031DB5072A08031103184E
:100DFA00013E031DB6072B0803110318013E031D0C
:100E0A00B7072E08A8002F08A9003008AA00310841
:100E1A00AB0018300310AB0CAA0CA90CA80CFF3EAF
:100E2A00031D0F2F2808B407290803110318013ED0
:100E3A00031DB5072A0803110318013E031DB6074F
:100E4A002B0803110318013E031DB7070830A80039
:100E5A000310AE0DAF0DB00DB10DA80B2D2F330839
:100E6A003207A800A901A90D2808823EB80029085E
:100E7A000318013EFF3EB900B61B5E2F0130A800E1
:100E8A000310B40DB50DB60DB70DA80B452FB11B48
:100E9A0034140130A8000310AE0DAF0DB00DB10D22
:100EAA00A80B502FFF30B8070318B90AFF30B9074B
:100EBA00412FB201B11F772FFF302E05A800FF3056
:100ECA002F05A900FF303005AA007F303105AB009D
:100EDA002B082A042904280403193418752F772F9C
:100EEA00B201B20A32080319A92F0130B40700303F
:100EFA0003180130B507003003180130B607003077
:100F0A0003180130B707371CA92F3408A800350881
:100F1A00A9003608AA003708AB000130AC002B0D37
:100F2A00AB0CAA0CA90CA80CAC0B942F2B08B7007D
:100F3A002A08B6002908B5002808B4000130B80705
:100F4A000318B90A0030B9073908803AFF0080301F
:100F5A007F02031DB22FFF303802031CBF2F7F30E0
:100F6A0083120313B7008030B6000030B50000309A
:100F7A00B400EF2F831203133908803AFF00803040
:100F8A007F02031DCA2F013038020318D82F003000
:100F9A0083120313B7000030B6000030B5000030EA
:100FAA00B400AD01EF2F831203133808A8002808F4
:100FBA00B300FF30B405FF30B5057F30B605003009
:100FCA00B7053318B6173308A8000310280CA90070
:100FDA002908B7002D08A8002808B7043708A30075
:100FEA003608A2003508A1003408A00008008301D1
:100FFA000A128A11122BFF1B0A2883137F188317E0
:10100A000008840A0319FF0A080008308A00040845
:10101A00840A82070034013400340A340034643408
:10102A000034E8340334103427344D346F346434D4
:10103A0075346C346F34203469346E3469346334F3
:10104A006934613464346F34003449346E34693439
:10105A006334693461346E3464346F342034503408
:10106A0057344D340034503457344D343A342534DF
:08107A006434253425340034F0
:10189A00FE3083160313920008000A128A154D249B
:1018AA000A128A1501300A128A15B52408000A128A
:1018BA008A154D240A128A1502300A128A15B5248D
:1018CA00080000300A128A159B240A128A15013070
:1018DA000A128A159B240800831203131F083F3932
:1018EA0040389F00C7309F051F10831603139F17A8
:1018FA001F17F0309F050800F000701C882C831217
:10190A00031308168B2C831203130812F01C8F2C56
:10191A008816902C8812701D942C0817952C081381
:10192A00F01D992C8817080088130800F300831209
:10193A000313081173080A128A1581240A128A15D8
:10194A008312031388150630F2003030F100F10BD0
:10195A00AC2CF20BAC2C0000831203138811080084
:10196A00F00002307006031DBF2C831203139D156D
:10197A001D15C32C831203139715171512149214ED
:10198A00121502307006031DCE2C8316031307119D
:10199A0008008316031387100800831203131F1409
:1019AA007008F200F20DF20DF20D1F087206C73927
:1019BA0072069F000D30F300FB30F200F20BE32CAD
:1019CA00F30BE32CE82C831203131F151F19EB2CBE
:1019DA001E08F100831603131E08F0000800780899
:1019EA0079040319212DFD01FD0AF91B082D013087
:1019FA000310F80DF90DFF3E031DFD2C0130FC000C
:101A0A007C08FD07FA2C79087B02031D0E2D780845
:101A1A007A02031C162D7808FA027908031CFB03C4
:101A2A00FB0201300310F90CF80CFF3E031D172DC1
:101A3A000130FD02031D082D7B08F9007A08F80021
:101A4A000800F40074080F39F1007108F2007408F4
:101A5A00F039F1007108F3008312031308157308B3
:101A6A00F10004300310F10CFF3E031D372D7108FD
:101A7A000A128A1581240A128A15831203138815F9
:101A8A000D30F100F10B472D8312031388117208F0
:101A9A000A128A1581240A128A15831203138815D9
:101AAA000D30F100F10B572D831203138811080032
:101ABA00F501F601700871040319942DF701F70A6C
:101ACA00F11B732D01300310F00DF10DFF3E031DC4
:101ADA00682D0130F4007408F707652D01300310F2
:101AEA00F50DF60DFF3E031D742D71087302031DDB
:101AFA00802D70087202031C892D7008F202710889
:101B0A00031CF303F302751401300310F10CF00CFB
:101B1A00FF3E031D8A2D0130F702031D732D76083F
:101B2A00F1007508F0000800FA01FB017A08750750
:101B3A00F8007608F7000318F70AFA1BF703770884
:101B4A00F900790883120313FF00780884000A1247
:101B5A008A1500200A128A15003A031908007A0821
:101B6A007507F8007608F7000318F70AFA1BF70357
:101B7A007708F900790883120313FF0078088400B4
:101B8A000A128A1500200A128A150A128A152625AF
:101B9A000A128A150130FA070318FB0A0030FB07FC
:101BAA009B2DF7007703031DFB2D74087F3EF5007C
:101BBA007508FA007A08F50004300310F50CFF3EA8
:101BCA00031DE22D7508F6007608F8007A080F3929
:101BDA00F5007508F90078080A128A159B240A127A
:101BEA008A1579080A128A159B240800023077069A
:101BFA00031D08007408BF3EF5007508FA007A084C
:101C0A00F50004300310F50CFF3E031D072E75087E
:101C1A00F6007608F8007A080F39F5007508F90019
:101C2A0078080A128A159B240A128A1579080A1258
:101C3A008A159B2408008316031388018312031351
:101C4A00880100300A128A1581240A128A151A306C
:101C5A00F500F830F400F40B302EF50B302E0000AE
:101C6A0003300A128A159B240A128A150730F500D6
:101C7A007D30F400F40B3F2EF50B3F2E03300A1291
:101C8A008A159B240A128A150F30F5004730F40092
:101C9A00F40B4D2EF50B4D2E522E03300A128A15D7
:101CAA009B240A128A1502300A128A159B240A12E8
:101CBA008A1502300A128A159B240A128A150830DC
:101CCA000A128A159B240A128A1500300A128A15EA
:101CDA009B240A128A150C300A128A159B240A12AE
:101CEA008A1500300A128A159B240A128A150630B0
:101CFA000A128A159B240800031083120313560D37
:101D0A00570DD8005808DE005E08031D952E0030D6
:101D1A00D7000030D6000030D5000030D4000800CB
:101D2A005408D8005508D9005608DA005708DB00CD
:101D3A001F300310DB0CDA0CD90CD80CFF3E031D44
:101D4A009E2E5808DC005C08DD00D617FF30D4054B
:101D5A00FF30D505FF30D6050030D7059630DE02B4
:101D6A00DE1FCC2E5E08803A973E031C8C2E013073
:101D7A000310D70CD60CD50CD40CFF3E031DBD2E78
:101D8A000130D8005808DE070319DF2EBC2E203098
:101D9A005E0203188C2E5E080319DF2E0130D8006C
:101DAA000310D40DD50DD60DD70DD80BD52E013075
:101DBA00DE02D02E5D0803190800D409D509D60918
:101DCA00D709D40A0319D50A0319D60A0319D70A57
:101DDA0008000430831203136002003003195F0203
:101DEA00031808005F08F0006008F100F201F3012F
:101DFA0000300A128A155D270A128A15730883129F
:101E0A000313C1007208C0007108BF007008BE0049
:101E1A004430BD007F30BC00C030BB000030BA0087
:101E2A000A128A116F210A128A15831203133D08B6
:101E3A00A7003C08A6003B08A5003A08A4004430C5
:101E4A00A3007F30A2000030A1000030A0000A12D7
:101E5A008A11E7240A128A15831203132308D7006A
:101E6A002208D6002108D5002008D4000A128A15B3
:101E7A0081260A128A15831203135508E0005408B2
:101E8A00DF005F1C4C2F8312031397164F2F831208
:101E9A000313971217126008E2005F08E1000310AB
:101EAA00E20CE10C0310E20CE10C61089500080059
:101EBA00F8007808031DF31F722F7009FA007109E0
:101ECA00FB007209FC007309FD00FA0A0319FB0AF8
:101EDA000319FC0A0319FD0A7A2F7308FD00720818
:101EEA00FC007108FB007008FA00730872047104A0
:101EFA007004031D892F0030F3000030F200003017
:101F0A00F1000030F00008009630F4007408F9007F
:101F1A00FE307D050319BA2F0130F4007408F90761
:101F2A0001300310FD0CFC0CFB0CFA0CFF3E031DE8
:101F3A00962F8D2F0130F4007408F9070130FA0743
:101F4A00003003180130FB07003003180130FC078A
:101F5A00003003180130FD0701300310FD0CFC0CA2
:101F6A00FB0CFA0CFF3E031DB22FFF307D0503194F
:101F7A00CE2F9F2F02307902031CD02F0130F90295
:101F8A000130F4000310FA0DFB0DFC0DFD0DF40BEE
:101F9A00C72FFC1FBF2F7918DA2FFF30FA05FF3041
:101FAA00FB057F30FC05FF30FD050310F90C7908AD
:101FBA00F400F501F601F70118300310F40DF50DE0
:101FCA00F60DF70DFF3E031DE22F7408FA0475089B
:101FDA00FB047608FC047708FD047808031DF31F48
:101FEA00F72FFD177D08F3007C08F2007B08F1004B
:061FFA007A08F000080067
:00000001FF
