:020000040000FA
:100000000A128A11FC2F00308A000408840A820731
:04001000003419346B
:10001A00831203131F083F3940389F00C7309F05DA
:10002A001F10831603139F171F17F0309F05080030
:10003A00031083120313660D670DE8006808EE00CB
:10004A006E08031D31280030E7000030E60000305A
:10005A00E5000030E40008006408E8006508E900EB
:10006A006608EA006708EB001F300310EB0CEA0C85
:10007A00E90CE80CFF3E031D3A286808EC006C08FE
:10008A00ED00E617FF30E405FF30E505FF30E60531
:10009A000030E7059630EE02EE1F68286E08803AB7
:1000AA00973E031C282801300310E70CE60CE50CE8
:1000BA00E40CFF3E031D59280130E8006808EE07EA
:1000CA0003197B28582820306E02031828286E0846
:1000DA0003197B280130E8000310E40DE50DE60D55
:1000EA00E70DE80B71280130EE026C286D08031940
:1000FA000800E409E509E609E709E40A0319E50A3B
:10010A000319E60A0319E70A080083120313AA006F
:10011A002A08031DA91FA1282609AC002709AD003A
:10012A002809AE002909AF00AC0A0319AD0A031960
:10013A00AE0A0319AF0AA9282908AF002808AE0099
:10014A002708AD002608AC0029082804270426043D
:10015A00031DB8280030A9000030A8000030A7000D
:10016A000030A60008009630F9007908AB00FE308E
:10017A002F050319E9280130F9007908AB07013086
:10018A000310AF0CAE0CAD0CAC0CFF3E031DC52822
:10019A00BC280130F9007908AB070130AC07003000
:1001AA0003180130AD07003003180130AE070030E4
:1001BA0003180130AF0701300310AF0CAE0CAD0CC1
:1001CA00AC0CFF3E031DE128FF302F050319FD2863
:1001DA00CE2802302B02031CFF280130AB0201306B
:1001EA00F9000310AC0DAD0DAE0DAF0DF90BF628ED
:1001FA00AE1FEE282B180929FF30AC05FF30AD05DC
:10020A007F30AE05FF30AF050310AB0C2B08F900A9
:10021A00FA01FB01FC0118300310F90DFA0DFB0D70
:10022A00FC0DFF3E031D11297908AC047A08AD04C0
:10023A007B08AE047C08AF042A08031DA91F2629DF
:10024A00AF172F08A9002E08A8002D08A7002C0810
:10025A00A600080083160313200883120313A600BE
:10026A0083160313210883120313A700A801A90107
:10027A0000300A128A118A200A128A118312031381
:10028A002908B7002808B6002708B5002608B400D0
:10029A004430B3007F30B200C030B1000030B0004B
:1002AA000A128A1144230A128A1183120313330889
:1002BA00D1003208D0003108CF003008CE0000301B
:1002CA00F7003D30F6000930F5000030F4008316DF
:1002DA0003132B08A3002A08A2000310A20DA30DE2
:1002EA000310A20DA30D2208F0002308F10000302C
:1002FA00F11BFF30F200F3000A128A1571270A1265
:10030A008A11730883120313A9007208A8007108DE
:10031A00A7007008A60001300A128A118A200A1260
:10032A008A11831203132908CD002808CC00270854
:10033A00CB002608CA000A128A11E7240A128A1177
:10034A00831203134D08E7004C08E6004B08E5004A
:10035A004A08E4000A128A111D200A128A1183121D
:10036A000313650883160313A10083120313640899
:10037A0083160313A000201CC629831203139716A1
:10038A00C92983120313971217128316031321081C
:10039A00A3002008A2000310A30CA20C0310A30CB4
:1003AA00A20C220883120313950008008316031374
:1003BA00200883120313A60083160313210883124D
:1003CA000313A700A801A90100300A128A118A2082
:1003DA000A128A11831203132908B7002808B600E3
:1003EA002708B5002608B4004430B3007F30B200B5
:1003FA00C030B1000030B0000A128A1144230A1238
:10040A008A11831203133308D1003208D00031084D
:10041A00CF003008CE000030F7003D30F60009303A
:10042A00F5000030F400831603132908A3002808F6
:10043A00A2000310A20DA30D0310A20DA30D220802
:10044A00F0002308F1000030F11BFF30F200F30046
:10045A000A128A1571270A128A1173088312031362
:10046A00A9007208A8007108A7007008A600013048
:10047A000A128A118A200A128A118312031329087E
:10048A00CD002808CC002708CB002608CA000A128B
:10049A008A11E7240A128A11831203134D08E7000E
:1004AA004C08E6004B08E5004A08E4000A128A11E3
:1004BA001D200A128A118312031365088316031377
:1004CA00A10083120313640883160313A000201CDF
:1004DA00722A831203139D16752A831203139D121F
:1004EA001D12831603132108A3002008A20003107B
:1004FA00A30CA20C0310A30CA20C22088312031350
:10050A009B000800FF30831603138600831203132F
:10051A0086018316031388018312031388010A12C2
:10052A008A110D200A128A11D03083120313A600F1
:10053A000730A7000A128A15F1260A128A11D0304A
:10054A0083120313A6000730A7000A128A1531275F
:10055A000A128A11003083160313A000A1000A129E
:10056A008A112F210A128A11003083160313A00060
:10057A00A1000A128A11DB210A128A11F4308316A9
:10058A000313A6000130A700F430A0000130A10037
:10059A000A128A112F210A128A1183120313061CC6
:1005AA00FF2A0330831603132702FF30031926029A
:1005BA000318262B1930A6070318A70A0030A70725
:1005CA002708A1002608A0000A128A112F210A1260
:1005DA008A11831203130814823083160313A500A9
:1005EA00DD30A400A40BF72AA50BF72A8312031304
:1005FA000810262B861C262B83160313260827048D
:10060A000319262B1930A6020030031CA703A702E0
:10061A002708A1002608A0000A128A112F210A120F
:10062A008A11831203138814823083160313A500D8
:10063A00DD30A400A40B1F2BA50B1F2B8312031361
:10064A0088100030F000F1000A128A15AC260A124E
:10065A008A11710883160313A1007008A0000A12F8
:10066A008A11DB210A128A110D3083160313A500A1
:10067A00FB30A400A40B3F2BA50B3F2BD22A8312DD
:10068A00031337088039B8003808C1003708B800A2
:10069A003807B9003908C800B61B481448080319B6
:1006AA00642B480A031D612B0030B7000030B600E6
:1006BA000030B5000030B400B617B7016C2B00301B
:1006CA00B7000030B6000030B5000030B40033087F
:1006DA008039B8003808C1063308B8003807B900AD
:1006EA003908C900B21B4914490803198A2B490A57
:1006FA00031D872B0030B3000030B2000030B10078
:10070A000030B000B217B301922B0030B3000030B2
:10071A00B2000030B1000030B000330832043104B6
:10072A003004031DB12B0030B7000030B600003092
:10073A00B5000030B4008030B6047F30B7044108F9
:10074A00B8003808B7043708B3003608B2003508CD
:10075A00B1003408B00008004808031DBD2B003062
:10076A00B3000030B2000030B1000030B000080021
:10077A004808B800B9013908BB0049083802BA006C
:10078A00031CBB033A087F3EC2003B080318013E24
:10079A00003EC3003708C0003608BF003508BE0057
:1007AA003408BD000030B7000030B6000030B50094
:1007BA000030B4000030C7000030C6000030C50069
:1007CA000030C400C9011A3049020318302C490804
:1007DA0003190C2C0130B8000310BD0DBE0DBF0D5E
:1007EA00C00DB80BF12B0130B8000310B40DB50DD4
:1007FA00B60DB70DB80BFA2BC71B34140130B8006D
:10080A000310C40DC50DC60DC70DB80B052C330852
:10081A004002031D1A2C32083F02031D1A2C31080C
:10082A003E02031D1A2C30083D02031C2B2C4717CD
:10083A003008BD023108031C310FBE023208031C06
:10084A00320FBF023308031C330FC0020130B80055
:10085A003808C907E82B40083F043E043D04031D3D
:10086A004414B61B532C0130B8000310B40DB50D57
:10087A00B60DB70DB80B3A2CC71B34140130B800AB
:10088A000310C40DC50DC60DC70DB80B452CFF309E
:10089A00C2070318C30AFF30C307362CC901C71F92
:1008AA006C2CFF304405B800FF304505B900FF3015
:1008BA004605BA007F304705BB003B083A043904B5
:1008CA003804031934186A2C6C2CC901C90A49085E
:1008DA0003199E2C0130B407003003180130B50704
:1008EA00003003180130B607003003180130B7078B
:1008FA00371C9E2C3408B8003508B9003608BA00EF
:10090A003708BB000130BC003B0DBB0CBA0CB90C5C
:10091A00B80CBC0B892C3B08B7003A08B60039085A
:10092A00B5003808B4000130C2070318C30A003002
:10093A00C3074308803AFF0080307F02031DA72CBB
:10094A00FF304202031CB72CFF3083120313C2008C
:10095A000030C3000030B7000030B6000030B500E8
:10096A000030B400831203134308803AFF0080303A
:10097A007F02031DC22C013042020318D12C8312BC
:10098A000313C201C3010030B7000030B6000030C3
:10099A00B5000030B400C101831203134208B80045
:1009AA003808C800481CDB2CB617DF2C7F30B8008B
:1009BA003808B6054808B8000310380CB9003908D9
:1009CA00B700A42B831203134D088039D2005208B2
:1009DA00D7004D08D2005207D3005308DD00CC1BC4
:1009EA005D145D080319062D5D0A031D042D0030F0
:1009FA00CD000030CC000030CB000030CA00CC174C
:100A0A000E2D0030CD000030CC000030CB0000307D
:100A1A00CA0051088039D2005208D7065108D200BC
:100A2A005207D3005308DC00D01B5C145C0803197E
:100A3A002B2D5C0A031D292D0030D1000030D00077
:100A4A000030CF000030CE00D017332D0030D10057
:100A5A000030D0000030CF000030CE005C08031D0B
:100A6A005D08031D412D0030CD000030CC00003060
:100A7A00CB000030CA0008004A08D2005208F00031
:100A8A0050080A128A15CE260A128A117108831290
:100A9A000313E3007008E2006208D200D301D40114
:100AAA00D5015508DB005408DA005308D90052086A
:100ABA00D8006308D200D301D401D5015508E1005A
:100ACA005408E0005308DF005208DE004B08D20049
:100ADA005208F0004F080A128A15CE260A128A1105
:100AEA00710883120313E3007008E2006208D2005F
:100AFA00D301D401D5015208D807530803110318AA
:100B0A00013E031DD907540803110318013E031DB2
:100B1A00DA07550803110318013E031DDB076308B2
:100B2A00D200D301D401D5015208DE0753080311BC
:100B3A000318013E031DDF07540803110318013E81
:100B4A00031DE007550803110318013E031DE107C1
:100B5A004C08D2005208F0004E080A128A15CE2616
:100B6A000A128A11710883120313E3007008E20063
:100B7A006208D200D301D401D5015208D80753081C
:100B8A0003110318013E031DD90754080311031862
:100B9A00013E031DDA07550803110318013E031D20
:100BAA00DB076308D200D301D401D5015208DE075E
:100BBA00530803110318013E031DDF0754080311EC
:100BCA000318013E031DE007550803110318013EEF
:100BDA00031DE1070830D2000310D80DD90DDA0D34
:100BEA00DB0DD20BF12D4B08D2005208F0004E0853
:100BFA000A128A15CE260A128A1171088312031361
:100C0A00E3007008E2006208D2006308D300D4014E
:100C1A00D5015208D807530803110318013E031DD2
:100C2A00D907540803110318013E031DDA075508B2
:100C3A0003110318013E031DDB074A08D2005208BC
:100C4A00F0004F080A128A15CE260A128A11710874
:100C5A0083120313E3007008E2006208D2006308FB
:100C6A00D300D401D5015208D80753080311031839
:100C7A00013E031DD907540803110318013E031D41
:100C8A00DA07550803110318013E031DDB07083074
:100C9A00D2000310D80DD90DDA0DDB0DD20B4E2E72
:100CAA004A08D2005208F0004E080A128A15CE26C7
:100CBA000A128A11710883120313E3007008E20012
:100CCA006208D2006308D300D401D5015208D807BC
:100CDA00530803110318013E031DD90754080311D1
:100CEA000318013E031DDA07550803110318013ED4
:100CFA00031DDB074B08D2005208F00050080A1205
:100D0A008A15CE260A128A11710883120313E30088
:100D1A007008E2006208D2006308D300D401D5014A
:100D2A005208DE07530803110318013E031DDF07AB
:100D3A00540803110318013E031DE0075508031167
:100D4A000318013E031DE1074C08D2005208F000C7
:100D5A004F080A128A15CE260A128A1171088312BE
:100D6A000313E3007008E2006208D2006308D300AC
:100D7A00D401D5015208DE07530803110318013EB6
:100D8A00031DDF07540803110318013E031DE00782
:100D9A00550803110318013E031DE1074C08D20050
:100DAA005208F00050080A128A15CE260A128A1131
:100DBA00710883120313E3007008E2006208D2008C
:100DCA006308D300D401D50108300310D20DD30D26
:100DDA00D40DD50DFF3E031DEA2E5208DE07530837
:100DEA0003110318013E031DDF07540803110318FA
:100DFA00013E031DE007550803110318013E031DB8
:100E0A00E1075808D2005908D3005A08D4005B08F1
:100E1A00D50018300310D50CD40CD30CD20CFF3EDD
:100E2A00031D0F2F5208DE07530803110318013E52
:100E3A00031DDF07540803110318013E031DE007D1
:100E4A00550803110318013E031DE1070830D200BB
:100E5A000310D80DD90DDA0DDB0DD20B2D2F5D083D
:100E6A005C07D200D301D30D5208823EE200530838
:100E7A000318013EFF3EE300E01B5E2F0130D20063
:100E8A000310DE0DDF0DE00DE10DD20B452FDB1B4C
:100E9A005E140130D2000310D80DD90DDA0DDB0D26
:100EAA00D20B502FFF30E2070318E30AFF30E307A3
:100EBA00412FDC01DB1F772FFF305805D200FF30AE
:100ECA005905D300FF305A05D4007F305B05D500A1
:100EDA00550854045304520403195E18752F772FCA
:100EEA00DC01DC0A5C080319A92F0130DE07003097
:100EFA0003180130DF07003003180130E007003023
:100F0A0003180130E107611CA92F5E08D2005F08AF
:100F1A00D3006008D4006108D5000130D600550D11
:100F2A00D50CD40CD30CD20CD60B942F5508E10057
:100F3A005408E0005308DF005208DE000130E207DF
:100F4A000318E30A0030E3076308803AFF008030A1
:100F5A007F02031DB22FFF306202031CBF2F7F30B6
:100F6A0083120313E1008030E0000030DF0000301C
:100F7A00DE00EF2F831203136308803AFF008030EC
:100F8A007F02031DCA2F013062020318D82F0030D6
:100F9A0083120313E1000030E0000030DF0000306C
:100FAA00DE00D701EF2F831203136208D200520822
:100FBA00DD00FF30DE05FF30DF057F30E005003061
:100FCA00E1055D18E0175D08D2000310520CD3004A
:100FDA005308E1005708D2005208E1046108CD0025
:100FEA006008CC005F08CB005E08CA0008008301D5
:060FFA000A128A11872A89
:101D5800831203131F147008F200F20DF20DF20D36
:101D68001F087206C73972069F000D30F300FB305A
:101D7800F200F20BBD2EF30BBD2EC22E83120313FD
:101D88001F151F19C52E1E08F100831603131E0800
:101D9800F0000800F800F401F5017008F200F30102
:101DA8007208F6007308F700781CE02E7608F4072E
:101DB8000318F50A7708F50701300310F60DF70D3B
:101DC800FF3E031DE12E0310F80C7808031DD82EE2
:101DD8007508F1007408F00008008312031327083F
:101DE80083160313AB008312031326088316031309
:101DF800AA002B08FA002A08F9000310F90DFA0DB9
:101E08000310F90DFA0D0310F90DFA0D0310F90D71
:101E1800FA0D7908F0007A08F1000030F11BFF3064
:101E2800F200F3000030F7003D30F6000930F5000D
:101E38000030F4000A128A1571277008FF3E8316D5
:101E48000313920083120313971517151214921097
:101E580012158316031307110800831203132708AA
:101E680083160313A900831203132608831603138A
:101E7800A8002908FA002808F9000310F90DFA0D3E
:101E88000310F90DFA0D0310F90DFA0D0310F90DF1
:101E9800FA0D7908F0007A08F1000030F11BFF30E4
:101EA800F200F3000030F7003D30F6000930F5008D
:101EB8000030F4000A128A1571277008FF3E831655
:101EC80003139200831203139D151D15121492100B
:101ED8001215831603138710080083120313A10138
:101EE800F31F832FF009F109F209F309F00A031926
:101EF800F10A0319F20A0319F30AA101A10AF71F4B
:101F0800942FF409F509F609F709F40A0319F50AF3
:101F18000319F60A0319F70A0130F8007808A10630
:101F28000030A5000030A4000030A3000030A2005B
:101F380073087204710470040319E92FA001A00A40
:101F4800F31BB42F0130F8000310F00DF10DF20D62
:101F5800F30DF80BA82F0130F8007808A007A42F7C
:101F68000130F8000310A20DA30DA40DA50DF80B68
:101F7800B62F73087702031DCB2F72087602031D54
:101F8800CB2F71087502031DCB2F70087402031C38
:101F9800DC2F7008F4027108031C710FF502720837
:101FA800031C720FF6027308031C730FF702221446
:101FB80001300310F30CF20CF10CF00CFF3E031D82
:101FC800DD2F0130A002031DB42F21080319F72FBC
:101FD800A209A309A409A509A20A0319A30A0319B6
:101FE800A40A0319A50A2508F3002408F200230807
:081FF800F1002208F0000800CE
:00000001FF
