:020000040000FA
:060000000A128A11FC2F18
:100008000030F3000030F2000530F1006630F000F7
:1000180008000310831203135C0D5D0DDE005E08FB
:10002800FD007D08031D21280030DD000030DC00C4
:100038000030DB000030DA0008005A08DE005B08F8
:10004800DF005C08E0005D08E1001F300310E10CF0
:10005800E00CDF0CDE0CFF3E031D2A285E08E200E0
:100068006208FC00DC17FF30DA05FF30DB05FF30E3
:10007800DC050030DD059630FD02FD1F58287D089F
:10008800803A973E031C182801300310DD0CDC0C65
:10009800DB0CDA0CFF3E031D49280130DE005E0848
:1000A800FD0703196B28482820307D0203181828FB
:1000B8007D0803196B280130DE000310DA0DDB0D13
:1000C800DC0DDD0DDE0B61280130FD025C287C08AB
:1000D80003190800DA09DB09DC09DD09DA0A031962
:1000E800DB0A0319DC0A0319DD0A0800043083124D
:1000F800031364020030031963020318080063083D
:10010800F4006408F500F601F70100300A128A11BC
:10011800FE200A128A11770883120313AD007608AD
:10012800AC007508AB007408AA004430A9007F3001
:10013800A800C030A7000030A6000A128A11442384
:100148000A128A11831203132908C7002808C60057
:100158002708C5002608C4000A128A1104200A12BA
:100168008A117308F7007208F6007108F500700824
:10017800F40001300A128A11FE200A128A11770847
:1001880083120313C3007608C2007508C1007408FF
:10019800C0000A128A11E7240A128A118312031373
:1001A8004308DD004208DC004108DB004008DA00B3
:1001B8000A128A110D200A128A11831203135B088E
:1001C800E4005A08E3009712631CEE288312031315
:1001D8001716F1288312031317126408E600630840
:1001E800E5000310E60CE50C0310E60CE50C6508C9
:1001F8009500080083120313A0002008031DF71FB1
:1002080015297409A2007509A3007609A4007709C5
:10021800A500A20A0319A30A0319A40A0319A50A27
:100228001D297708A5007608A4007508A30074089E
:10023800A2007708760475047404031D2C29003085
:10024800F7000030F6000030F5000030F400080038
:100258009630F8007808A100FE30250503195D29BD
:100268000130F8007808A10701300310A50CA40C90
:10027800A30CA20CFF3E031D392930290130F800D8
:100288007808A1070130A207003003180130A3073E
:10029800003003180130A407003003180130A50707
:1002A80001300310A50CA40CA30CA20CFF3E031DE7
:1002B8005529FF30250503197129422902302102E9
:1002C800031C73290130A1020130F8000310A20DAC
:1002D800A30DA40DA50DF80B6A29A41F62292118E6
:1002E8007D29FF30A205FF30A3057F30A405FF302C
:1002F800A5050310A10C2108F800F901FA01FB017A
:1003080018300310F80DF90DFA0DFB0DFF3E031D13
:1003180085297808A2047908A3047A08A4047B082C
:10032800A5042008031DF71F9A29A5172508F7001B
:100338002408F6002308F5002208F4000800FF301E
:100348008316031386008312031386010A128A1583
:10035800E7250A128A110A128A159E270A128A119B
:100368000A128A15C2250A128A11F401F40A013008
:100378000A128A1554270A128A111B30F500803098
:10038800F6000A128A1517270A128A1141308312B9
:100398000313E800ED30E700E70BD029E80BD0297C
:1003A800D5290A128A15CD250A128A110A128A1528
:1003B800D9250A128A11003083120313E300E400DE
:1003C8000A128A117A200A128A110A128A15C2257B
:1003D8000A128A11F401F40A01300A128A15542704
:1003E8000A128A110B30F5008030F6000A128A15BD
:1003F80017270A128A11033083120313E9008A307F
:10040800E8005530E700E70B072AE80B072AE90B55
:10041800072A0A128A15C2250A128A110030F0002A
:10042800F1000A128A152B260A128A1171088316FE
:100438000313B1007008B000310883120313E400FD
:1004480083160313300883120313E3000A128A1178
:100458007A200A128A11293083120313E7006708E9
:10046800A00083160313310883120313A200831616
:100478000313300883120313A100A0300A128A1153
:100488006C220A128A110A128A15C2250A128A11C6
:10049800F401F40A01300A128A1554270A128A1143
:1004A800A030F5000030F6000A128A1517270A1244
:1004B8008A11023083120313E9004530E800A9309D
:1004C800E700E70B652AE80B652AE90B652A122A7B
:1004D80083120313AB002130A3002308A6000130C8
:1004E800A007FF30200784000A128A150A200A1282
:1004F8008A11A3002308AC002C0803193F2B2530D0
:100508002C060319932A2C08A3002B08840023081F
:10051800831380000130A3002308AB07732AA701C7
:100528000130A007FF30200784000A128A150A202C
:100538000A128A11AC00A300A4012408003A031986
:10054800A62A732A2308003A03193F2B643A031991
:10055800B12A0D3A0319B12A732A26088400831395
:100568000008A900840A0008AA000230A300230892
:10057800A607AA1FC82A0330A3002308A704A909AD
:10058800AA09A90A0319AA0AAC01AC0A2C08A300F3
:100598002307013E84000A128A150A200A128A11CA
:1005A800A4000A128A150A200A128A11A500250831
:1005B8002A02031DE12A24082902031CEB2A013020
:1005C800A3002308AC0705302C06031DCA2A2708F8
:1005D80003390319FA2A2D30A3002B0884002308B5
:1005E800831380000130A3002308AB072C08A30065
:1005F8002308A800FF30A3002308A807280A031926
:10060800732A0A30F8000030F9002808A3002307ED
:10061800013E84000A128A150A200A128A11F00083
:100628000A128A150A200A128A11F1002A08F30010
:100638002908F2000A128A15DB260A128A117108A3
:10064800FB007008FA000A128A1570260A128A112D
:100658007808303E83120313A4002408AC002C0849
:10066800A3002B0884002308831380000130A30013
:100678002308AB07FE2A2B08840083138001080097
:10068800831203132D088039AE002E08B7002D08F9
:10069800AE002E07AF002F08BE00AC1B3E143E086C
:1006A8000319642B3E0A031D612B0030AD00003096
:1006B800AC000030AB000030AA00AC17AD016C2BC9
:1006C8000030AD000030AC000030AB000030AA00B4
:1006D80029088039AE002E08B7062908AE002E0773
:1006E800AF002F08BF00A81B3F143F0803198A2B2F
:1006F8003F0A031D872B0030A9000030A8000030F6
:10070800A7000030A600A817A901922B0030A90065
:100718000030A8000030A7000030A60029082804EF
:1007280027042604031DB12B0030AD000030AC00B7
:100738000030AB000030AA008030AC047F30AD043C
:100748003708AE002E08AD042D08A9002C08A80013
:100758002B08A7002A08A60008003E08031DBD2B89
:100768000030A9000030A8000030A7000030A60023
:1007780008003E08AE00AF012F08B1003F082E0266
:10078800B000031CB10330087F3EB80031080318DD
:10079800013E003EB9002D08B6002C08B5002B0814
:1007A800B4002A08B3000030AD000030AC000030BF
:1007B800AB000030AA000030BD000030BC000030A3
:1007C800BB000030BA00BF011A303F020318302CBA
:1007D8003F0803190C2C0130AE000310B30DB40D03
:1007E800B50DB60DAE0BF12B0130AE000310AA0DFE
:1007F800AB0DAC0DAD0DAE0BFA2BBD1B2A140130A1
:10080800AE000310BA0DBB0DBC0DBD0DAE0B052C13
:1008180029083602031D1A2C28083502031D1A2C34
:1008280027083402031D1A2C26083302031C2B2C1C
:100838003D172608B3022708031C270FB40228080F
:10084800031C280FB5022908031C290FB602013022
:10085800AE002E08BF07E82B3608350434043304ED
:10086800031D3A14AC1B532C0130AE000310AA0D23
:10087800AB0DAC0DAD0DAE0B3A2CBD1B2A140130DF
:10088800AE000310BA0DBB0DBC0DBD0DAE0B452C53
:10089800FF30B8070318B90AFF30B907362CBF0173
:1008A800BD1F6C2CFF303A05AE00FF303B05AF0092
:1008B800FF303C05B0007F303D05B1003108300401
:1008C8002F042E0403192A186A2C6C2CBF01BF0AA6
:1008D8003F0803199E2C0130AA0700300318013085
:1008E800AB07003003180130AC07003003180130A3
:1008F800AD072D1C9E2C2A08AE002B08AF002C0833
:10090800B0002D08B1000130B200310DB10CB00CAF
:10091800AF0CAE0CB20B892C3108AD003008AC001E
:100928002F08AB002E08AA000130B8070318B90A2F
:100938000030B9073908803AFF0080307F02031D74
:10094800A72CFF303802031CB72CFF308312031387
:10095800B8000030B9000030AD000030AC00003005
:10096800AB000030AA00831203133908803AFF0055
:1009780080307F02031DC22C013038020318D12CAD
:1009880083120313B801B9010030AD000030AC0088
:100998000030AB000030AA00B701831203133808F7
:1009A800AE002E08BE003E1CDB2CAC17DF2C7F30BF
:1009B800AE002E08AC053E08AE0003102E0CAF00AA
:1009C8002F08AD00A42B8312031343088039C800F5
:1009D8004808CD004308C8004807C9004908D300A3
:1009E800C21B531453080319062D530A031D042D63
:1009F8000030C3000030C2000030C1000030C00029
:100A0800C2170E2D0030C3000030C2000030C100F4
:100A18000030C00047088039C8004808CD0647089C
:100A2800C8004807C9004908D200C61B521452081A
:100A380003192B2D520A031D292D0030C700003041
:100A4800C6000030C5000030C400C617332D003082
:100A5800C7000030C6000030C5000030C40052088E
:100A6800031D5308031D412D0030C3000030C20090
:100A78000030C1000030C00008004008C800480825
:100A8800F00046080A128A154D260A128A117108C2
:100A980083120313D9007008D8005808C800C90188
:100AA800CA01CB014B08D1004A08D0004908CF0041
:100AB8004808CE005908C800C901CA01CB014B0833
:100AC800D7004A08D6004908D5004808D40041088C
:100AD800C8004808F00045080A128A154D260A126F
:100AE8008A11710883120313D9007008D8005808B6
:100AF800C800C901CA01CB014808CE07490803113B
:100B08000318013E031DCF074A0803110318013ECD
:100B1800031DD0074B0803110318013E031DD1071D
:100B28005908C800C901CA01CB014808D4074908B7
:100B380003110318013E031DD5074A0803110318C2
:100B4800013E031DD6074B0803110318013E031D80
:100B5800D7074208C8004808F00044080A128A1556
:100B68004D260A128A11710883120313D9007008DE
:100B7800D8005808C800C901CA01CB014808CE07E7
:100B8800490803110318013E031DCF074A08031142
:100B98000318013E031DD0074B0803110318013E3B
:100BA800031DD1075908C800C901CA01CB0148086B
:100BB800D407490803110318013E031DD5074A0845
:100BC80003110318013E031DD6074B080311031830
:100BD800013E031DD7070830C8000310CE0DCF0D06
:100BE800D00DD10DC80BF12D4108C8004808F00000
:100BF80044080A128A154D260A128A1171088312AE
:100C08000313D9007008D8005808C8005908C9004B
:100C1800CA01CB014808CE07490803110318013E51
:100C2800031DCF074A0803110318013E031DD0070F
:100C38004B0803110318013E031DD1074008C800E3
:100C48004808F00045080A128A154D260A128A112A
:100C5800710883120313D9007008D8005808C80017
:100C68005908C900CA01CB014808CE074908031131
:100C78000318013E031DCF074A0803110318013E5C
:100C8800031DD0074B0803110318013E031DD107AC
:100C98000830C8000310CE0DCF0DD00DD10DC80BF4
:100CA8004E2E4008C8004808F00044080A128A1569
:100CB8004D260A128A11710883120313D90070088D
:100CC800D8005808C8005908C900CA01CB0148080B
:100CD800CE07490803110318013E031DCF074A0830
:100CE80003110318013E031DD0074B080311031815
:100CF800013E031DD1074108C8004808F000460816
:100D08000A128A154D260A128A11710883120313D2
:100D1800D9007008D8005808C8005908C900CA0185
:100D2800CB014808D407490803110318013E031DE5
:100D3800D5074A0803110318013E031DD6074B08BF
:100D480003110318013E031DD7074208C8004808CD
:100D5800F00045080A128A154D260A128A117108F0
:100D680083120313D9007008D8005808C80059081E
:100D7800C900CA01CB014808D40749080311031860
:100D8800013E031DD5074A0803110318013E031D40
:100D9800D6074B0803110318013E031DD707420865
:100DA800C8004808F00046080A128A154D260A129B
:100DB8008A11710883120313D9007008D8005808E3
:100DC800C8005908C900CA01CB0108300310C80D72
:100DD800C90DCA0DCB0DFF3E031DEA2E4808D407E6
:100DE800490803110318013E031DD5074A080311DA
:100DF8000318013E031DD6074B0803110318013ED3
:100E0800031DD7074E08C8004F08C9005008CA007C
:100E18005108CB0018300310CB0CCA0CC90CC80CF5
:100E2800FF3E031D0F2F4808D40749080311031874
:100E3800013E031DD5074A0803110318013E031D8F
:100E4800D6074B0803110318013E031DD7070830C6
:100E5800C8000310CE0DCF0DD00DD10DC80B2D2F0E
:100E680053085207C800C901C90D4808823ED80076
:100E780049080318013EFF3ED900D61B5E2F0130FA
:100E8800C8000310D40DD50DD60DD70DC80B452FAE
:100E9800D11B54140130C8000310CE0DCF0DD00D56
:100EA800D10DC80B502FFF30D8070318D90AFF30CF
:100EB800D907412FD201D11F772FFF304E05C80027
:100EC800FF304F05C900FF305005CA007F3051057B
:100ED800CB004B084A044904480403195418752FD9
:100EE800772FD201D20A52080319A92F0130D4074B
:100EF800003003180130D507003003180130D60739
:100F0800003003180130D707571CA92F5408C80010
:100F18005508C9005608CA005708CB000130CC0054
:100F28004B0DCB0CCA0CC90CC80CCC0B942F4B081E
:100F3800D7004A08D6004908D5004808D40001302F
:100F4800D8070318D90A0030D9075908803AFF0092
:100F580080307F02031DB22FFF305802031CBF2FC1
:100F68007F3083120313D7008030D6000030D500BD
:100F78000030D400EF2F831203135908803AFF0082
:100F880080307F02031DCA2F013058020318D82F62
:100F9800003083120313D7000030D6000030D5008C
:100FA8000030D400CD01EF2F831203135808C80076
:100FB8004808D300FF30D405FF30D5057F30D6056B
:100FC8000030D7055318D6175308C8000310480C2B
:100FD800C9004908D7004D08C8004808D704570871
:100FE800C3005608C2005508C1005408C0000800D4
:100FF80083010A128A11A329FF1B0A2883137F1869
:1010080083170008840A0319FF0A080008308A00B9
:101018000408840A82070034013400340A34003496
:1010280064340034E8340334103427344D346F34D6
:10103800643475346C346F34203469346E346934F4
:1010480063346934613464346F34003449346E3441
:1010580069346334693461346E3464346F342034F1
:10106800503457344D340034503457344D342034D0
:0A1078003D34203425346434003484
:101B7A00D330831603139200080000300A128A1524
:101B8A0011260A128A1501300A128A15112608002E
:101B9A000A128A15BD2583120313971517151215F4
:101BAA0083160313071108000A128A15BD2583122A
:101BBA0003139D151D15121492141215831603137F
:101BCA0087100800831203131F083F3940389F000B
:101BDA00C7309F051F10831603139F171F17F03076
:101BEA009F050800F000701CFE2D831203130816CF
:101BFA00012E831203130812F01C052E8816062ED6
:101C0A008812701D0A2E08170B2E0813F01D0F2EAE
:101C1A008817080088130800F300831203130811B9
:101C2A0073080A128A15F7250A128A1583120313F2
:101C3A0088151A30F200F830F100F10B222EF20B5F
:101C4A00222E000083120313881108008312031343
:101C5A001F147008F200F20DF20DF20D1F08720641
:101C6A00C73972069F004130F300EE30F200F20BE2
:101C7A003C2EF30B3C2E0000831203131F151F1971
:101C8A00442E1E08F100831603131E08F0000800F4
:101C9A00F800F401F5017008F200F3017208F60089
:101CAA007308F700781C5F2E7608F4070318F50A04
:101CBA007708F50701300310F60DF70DFF3E031DF7
:101CCA00602E0310F80C7808031D572E7508F100D2
:101CDA007408F00008007808790403199D2EFD01A4
:101CEA00FD0AF91B842E01300310F80DF90DFF3E91
:101CFA00031D792E0130FC007C08FD07762E790839
:101D0A007B02031D8A2E78087A02031C922E780819
:101D1A00FA027908031CFB03FB0201300310F90CD9
:101D2A00F80CFF3E031D932E0130FD02031D842E85
:101D3A007B08F9007A08F8000800F40074080F39E3
:101D4A00F1007108F2007408F039F1007108F3002B
:101D5A008312031308157308F10004300310F10C01
:101D6A00FF3E031DB32E71080A128A15F7250A12BF
:101D7A008A158312031388154230F100F10BC32E22
:101D8A00000083120313881172080A128A15F725B4
:101D9A000A128A158312031388154230F100F10BD7
:101DAA00D42E00008312031388110800F501F601EE
:101DBA00700871040319122FF701F70AF11BF12EAB
:101DCA0001300310F00DF10DFF3E031DE62E013028
:101DDA00F4007408F707E32E01300310F50DF60D31
:101DEA00FF3E031DF22E71087302031DFE2E7008BA
:101DFA007202031C072F7008F2027108031CF30316
:101E0A00F302751401300310F10CF00CFF3E031DB0
:101E1A00082F0130F702031DF12E7608F10075082C
:101E2A00F0000800FA01FB017A087507F800760845
:101E3A00F7000318F70AFA1BF7037708F90079087D
:101E4A0083120313FF00780884000A128A150020FF
:101E5A000A128A15003A031908007A087507F80069
:101E6A007608F7000318F70AFA1BF7037708F90050
:101E7A00790883120313FF00780884000A128A156E
:101E8A0000200A128A150A128A15A2260A128A152F
:101E9A000130FA070318FB0A0030FB07192FF70075
:101EAA007703031D792F74087F3EF5007508FA0041
:101EBA007A08F50004300310F50CFF3E031D602F6D
:101ECA007508F6007608F8007A080F39F5007508E3
:101EDA00F90078080A128A1511260A128A15790851
:101EEA000A128A151126080002307706031D080017
:101EFA007408BF3EF5007508FA007A08F500043048
:101F0A000310F50CFF3E031D852F7508F6007608B1
:101F1A00F8007A080F39F5007508F90078080A12EE
:101F2A008A1511260A128A1579080A128A151126A3
:101F3A0008008316031388018312031388010030F3
:101F4A000A128A15F7250A128A158230F500DD3041
:101F5A00F400F40BAE2FF50BAE2FB32F03300A1299
:101F6A008A1511260A128A152130F5007630F400F6
:101F7A00F40BBD2FF50BBD2F000003300A128A1592
:101F8A0011260A128A154830F5006C30F400F40B59
:101F9A00CC2FF50BCC2F000003300A128A1511261C
:101FAA000A128A1502300A128A1511260A128A158D
:101FBA0002300A128A1511260A128A1508300A12E4
:101FCA008A1511260A128A1500300A128A15112654
:101FDA000A128A150C300A128A1511260A128A1553
:101FEA0000300A128A1511260A128A1506300A12B8
:061FFA008A151126080003
:00000001FF
