:020000040000FA
:100000000A128A11FC2F00308A000408840A820731
:100010000034013403340234063404340C3408341C
:1000200009340034033406340C3409340034083401
:10003000043402340134003401340234043408340A
:06004000003464340034BA
:100E8600831603138601FF3087008801831203133C
:100E9600860187018801752F72080F3E84000A12A9
:100EA6008A1103200A128A1183120313860088000E
:100EB6000130F2070318F30A0030F3078230F1001D
:100EC600DD30F000F00B652FF10B652F6A2F7208ED
:100ED6000F3E84000A128A1103200A128A11003A70
:100EE600031D4F2FF201F3018312031307186A2F14
:100EF6008718992FA52F7208143E84000A128A11AA
:100F060003200A128A118312031386008800013017
:100F1600F2070318F30A0030F3078230F100DD30E0
:100F2600F000F00B942FF10B942F992F7208143EBA
:100F360084000A128A1103200A128A11003A031940
:100F4600752F7E2F0719C32FCF2F72080A3E8400F4
:100F56000A128A1103200A128A11831203138600C9
:100F660088000130F2070318F30A0030F3078230D5
:100F7600F100DD30F000F00BBE2FF10BBE2FC32FBA
:100F860072080A3E84000A128A1103200A128A1184
:100F9600003A0319752FA82F8719ED2FF92F72081C
:100FA600013E84000A128A1103200A128A11831252
:100FB6000313880086000130F2070318F30A003095
:100FC600F3078230F100DD30F000F00BE82FF10B73
:100FD600E82FED2F7208013E84000A128A110320C1
:100FE6000A128A11003A0319752FD22F8801860139
:0A0FF600752F83010A128A11432FA0
:00000001FF
