:020000040000FA
:100000000A128A11FC2F00308A000408840A820731
:100010000034013403340234063404340C3408341C
:1000200009340034033406340C3409340034083401
:10003000043402340134003401340234043408340A
:060040000034FA34003424
:100E6000831603138601FF30870088018312031362
:100E7000860187018801F02FF301F40173080F3E0A
:100E800084000A128A1103200A128A11003A0319F7
:100E9000F02F73080F3E84000A128A1103200A12F1
:100EA0008A1183120313860088000130F3070318A8
:100EB000F40A0030F4070230F2004530F100A930A6
:100EC000F000F00B612FF10B612FF20B612F682FF7
:100ED0003E2FF501F6017508143E84000A128A11AE
:100EE00003200A128A11003A0319F02F7508143EE4
:100EF00084000A128A1103200A128A118312031332
:100F0000860088000130F5070318F60A0030F6075E
:100F10000230F2004530F100A930F000F00B8E2FC6
:100F2000F10B8E2FF20B8E2F952F6B2FF701F801FF
:100F300077080A3E84000A128A1103200A128A11D5
:100F4000003A0319F02F77080A3E84000A128A112A
:100F500003200A128A1183120313860088000130CD
:100F6000F7070318F80A0030F8070230F20045309E
:100F7000F100A930F000F00BBB2FF10BBB2FF20BEF
:100F8000BB2FC22F982FF901FA017908013E840086
:100F90000A128A1103200A128A11003A0319F02F4B
:100FA0007908013E84000A128A1103200A128A116C
:100FB00083120313880086000130F9070318FA0A28
:100FC0000030FA070230F2004530F100A930F0009D
:100FD000F00BE82FF10BE82FF20BE82FEF2FC52FC6
:100FE0008312031307183C2F8718692F0719962FB0
:100FF0008719C32F8601F02F83010A128A11302F1F
:00000001FF
