:020000040000FA
:060000000A128A11FC2F18
:100F6A008316031386018312031386010230F200EB
:100F7A004530F100A930F000F00BC12FF10BC12F61
:100F8A00F20BC12FC82F0F308312031386000230D1
:100F9A00F2004530F100A930F000F00BD22FF10B2E
:100FAA00D22FF20BD22FD92FF030831203138600DF
:100FBA000230F2004530F100A930F000F00BE32FC7
:100FCA00F10BE32FF20BE32FEA2FFF308312031307
:100FDA0086000230F2004530F100A930F000F00B33
:100FEA00F42FF10BF42FF20BF42FFB2FB82F830100
:060FFA000A128A11B52F56
:02400E00393F38
:00000001FF
