:020000040000FA
:060000000A128A11F52F1F
:100008007808790403193128FD01FD0AF91B18281D
:1000180001300310F80DF90DFF3E031D0D280130C6
:10002800FC007C08FD070A2879087B02031D1E28AE
:1000380078087A02031C26287808FA027908031C33
:10004800FB03FB0201300310F90CF80CFF3E031D03
:1000580027280130FD02031D18287B08F9007A08BB
:10006800F800080083120313AB002130A300230813
:10007800A6000130A007FF30200784000A128A1565
:100088000A200A128A11A3002308AC002C080319BD
:10009800092925302C0603195D282C08A3002B08F4
:1000A80084002308831380000130A3002308AB07D2
:1000B8003D28A7010130A007FF30200784000A125D
:1000C8008A150A200A128A11AC00A300A401240888
:1000D800003A031970283D282308003A0319092912
:1000E800643A03197B280D3A03197B283D28260812
:1000F800840083130008A900840A0008AA000230BB
:10010800A3002308A607AA1F92280330A3002308E8
:10011800A704A909AA09A90A0319AA0AAC01AC0AE1
:100128002C08A3002307013E84000A128A150A201E
:100138000A128A11A4000A128A150A200A128A11C0
:10014800A50025082A02031DAB2824082902031C40
:10015800B5280130A3002308AC0705302C06031D81
:100168009428270803390319C4282D30A3002B0825
:1001780084002308831380000130A3002308AB0701
:100188002C08A3002308A800FF30A3002308A80711
:10019800280A03193D280A30F8000030F900280819
:1001A800A3002307013E84000A128A150A200A12B6
:1001B8008A11F0000A128A150A200A128A11F1001F
:1001C8002A08F3002908F2000A128A158D220A1259
:1001D8008A117108FB007008FA000A128A110420BB
:1001E8000A128A117808303E83120313A4002408E7
:1001F800AC002C08A3002B0884002308831380007C
:100208000130A3002308AB07C8282B0884008313F8
:10021800800108008312031327088039A8002808E2
:10022800B1002708A8002807A9002908B800A61BBC
:100238003814380803192E29380A031D2B290030D1
:10024800A7000030A6000030A5000030A400A617C3
:10025800A70136290030A7000030A6000030A5000D
:100268000030A40023088039A8002808B106230814
:10027800A8002807A9002908B900A21B39143908C1
:1002880003195429390A031D51290030A3000030ED
:10029800A2000030A1000030A000A217A3015C2931
:1002A8000030A3000030A2000030A1000030A00000
:1002B8002308220421042004031D7B290030A70001
:1002C8000030A6000030A5000030A4008030A6044D
:1002D8007F30A7043108A8002808A7042708A3002E
:1002E8002608A2002508A1002408A0000800380854
:1002F800031D87290030A3000030A2000030A100B0
:100308000030A00008003808A800A9012908AB009F
:1003180039082802AA00031CAB032A087F3EB20052
:100328002B080318013E003EB3002708B00026083A
:10033800AF002508AE002408AD000030A70000304B
:10034800A6000030A5000030A4000030B70000303F
:10035800B6000030B5000030B400B9011A303902D7
:100368000318FA2939080319D6290130A8000310FF
:10037800AD0DAE0DAF0DB00DA80BBB290130A80017
:100388000310A40DA50DA60DA70DA80BC429B71B16
:1003980024140130A8000310B40DB50DB60DB70D27
:1003A800A80BCF2923083002031DE42922082F02B5
:1003B800031DE42921082E02031DE42920082D022B
:1003C800031CF52937172008AD022108031C210F4B
:1003D800AE022208031C220FAF022308031C230FBE
:1003E800B0020130A8002808B907B22930082F0444
:1003F8002E042D04031D3414A61B1D2A0130A80049
:100408000310A40DA50DA60DA70DA80B042AB71B54
:1004180024140130A8000310B40DB50DB60DB70DA6
:10042800A80B0F2AFF30B2070318B30AFF30B3072F
:10043800002AB901B71F362AFF303405A800FF305B
:100448003505A900FF303605AA007F303705AB0017
:100458002B082A042904280403192418342A362AC4
:10046800B901B90A39080319682A0130A40700300C
:1004780003180130A507003003180130A607003023
:1004880003180130A707271C682A2408A800250894
:10049800A9002608AA002708AB000130AC002B0DE4
:1004A800AB0CAA0CA90CA80CAC0B532A2B08A70060
:1004B8002A08A6002908A5002808A4000130B207C8
:1004C8000318B30A0030B3073308803AFF008030BE
:1004D8007F02031D712AFF303202031C812AFF307C
:1004E80083120313B2000030B3000030A7000030BD
:1004F800A6000030A5000030A400831203133308BF
:10050800803AFF0080307F02031D8C2A01303202BE
:1005180003189B2A83120313B201B3010030A7000A
:100528000030A6000030A5000030A400B1018312FD
:1005380003133208A8002808B800381CA52AA617F3
:10054800A92A7F30A8002808A6053808A8000310A3
:10055800280CA9002908A7006E298312031357083D
:100568008039DC005C08E4005708DC005C07DD002B
:100578005D08E600D61B661466080319D12A660AC8
:10058800031DCE2A0030D7000030D6000030D50039
:100598000030D400D617D701D92A0030D700003050
:1005A800D6000030D5000030D4005B088039DC006C
:1005B8005C08E50065086406031D64175B08DC0039
:1005C8005C07DD005D08E500DA1B651465080319A2
:1005D800FB2A650A031DF82A0030DB000030DA0028
:1005E8000030D9000030D800DA17DB01032B0030C7
:1005F800DB000030DA000030D9000030D80066088F
:1006080065020318492B641F0D2B8030DC005C0841
:10061800E4066608DC005C08E7006508DC005C08A6
:10062800E6006708DC005C08E5005408DC005C08AC
:10063800E7005808DC005C08D4006708DC005C08A8
:10064800D8005508DC005C08E7005908DC005C08A5
:10065800D5006708DC005C08D9005608DC005C0897
:10066800E7005A08DC005C08D6006708DC005C0874
:10067800DA005708DC005C08E7005B08DC005C086F
:10068800D7006708DC005C08DB00E7016508DC00D0
:10069800DD015D08DF0066085C02DE00031CDF0385
:1006A8005F08803AFF0080307F02031D5D2B1A30FF
:1006B8005E02031C962B8312031357085604550435
:1006C80054040319692B01306A2B0030DC005C08E4
:1006D800E7000030D7000030D6000030D5000030E9
:1006E800D4006508DC005C08E6009C2B671C852BA1
:1006F8006708DC0003105C0C0138DD005D08E700CA
:10070800872B0310E70C5418E7170130DC00570D4E
:10071800D70CD60CD50CD40CDC0B8B2B0130DC00A1
:100728005C08E6078312031365086602031C7A2B2C
:10073800641BDD2B6608031DAA2B0030D700003090
:10074800D6000030D5000030D40008005808D4077F
:10075800590803110318013E031DD5075A08031150
:100768000318013E031DD6075B0803110318013E59
:10077800031DD707571C7F2C671CCB2B6708DC0091
:1007880003105C0C0138DD005D08E700CD2B031079
:10079800E70C5418E7170130DC00570DD70CD60CBE
:1007A800D50CD40CDC0BD12B0130DC005C08E6073F
:1007B8007F2C5708803AFF005B08803A7F02031DB0
:1007C800EF2B5A085602031DEF2B59085502031D3B
:1007D800EF2B580854020318472CFF30DC00FF3079
:1007E800DD00FF30DE00FF30DF005808E000590868
:1007F800E1005A08E2005B08E3005408E0025508EB
:10080800031C550F082C092CE1025608031C560F2F
:100818000E2C0F2CE2025708031C570F142C152C12
:10082800E3026008DC0761080318610F1C2C1D2C0B
:10083800DD0762080318620F222C232CDE076308E9
:100848000318630ADF075F08D7005E08D6005D0853
:10085800D5005C08D4008030DC005C08E406E709B9
:10086800E70A6708031D552C0130D4070030031828
:100878000130D507003003180130D60700300318BF
:100888000130D707552C5808D4025908031C590FB2
:10089800D5025A08031C5A0FD6025B08031C5B0FCB
:1008A800D7025708560455045404031D7D2C6708C5
:1008B800031D7D2C0030D7000030D6000030D50055
:1008C8000030D40008000130DC000310D40DD50D31
:1008D800D60DD70DDC0B692CE71B5414671C762C3E
:1008E8000314772C0310E70D660803197D2C0130DB
:1008F800E602D61F672CE501E71F8A2C67087F39B7
:1009080003195418882C8A2CE501E50A650803198F
:10091800BD2C0130D407003003180130D507003052
:1009280003180130D607003003180130D707571CC9
:10093800BD2C5408DC005508DD005608DE005708B9
:10094800DF000130E0005F0DDF0CDE0CDD0CDC0C9D
:10095800E00BA72C5F08D7005E08D6005D08D5001D
:100968005C08D400660A0319BD2C0130DC005C0861
:10097800E607660A031D6608031DCD2C0030D70064
:100988000030D6000030D5000030D40066080319C6
:10099800E401661CD12CD617D52C7F30DC005C080E
:1009A800D6056608DC0003105C0CDD005D08D70086
:1009B800E41F0800D7170800831203133D08803985
:1009C800C2004208C7003D08C2004207C3004308EE
:1009D800CD00BC1B4D144D080319FF2C4D0A031DF7
:1009E800FD2C0030BD000030BC000030BB000030E2
:1009F800BA00BC17072D0030BD000030BC00003025
:100A0800BB000030BA0041088039C2004208C7065E
:100A18004108C2004207C3004308CC00C01B4C1465
:100A28004C080319242D4C0A031D222D0030C10047
:100A38000030C0000030BF000030BE00C0172C2DB1
:100A48000030C1000030C0000030BF000030BE00E0
:100A58004C08031D4D08031D3A2D0030BD00003021
:100A6800BC000030BB000030BA0008003A08C200E1
:100A78004208F00040080A128A1533220A128A1125
:100A8800710883120313D3007008D2005208C20001
:100A9800C301C401C5014508CB004408CA00430886
:100AA800C9004208C8005308C200C301C401C501F7
:100AB8004508D1004408D0004308CF004208CE00C2
:100AC8003B08C2004208F0003F080A128A15332288
:100AD8000A128A11710883120313D3007008D20016
:100AE8005208C200C301C401C5014208C80743082F
:100AF80003110318013E031DC90744080311031815
:100B0800013E031DCA07450803110318013E031DD2
:100B1800CB075308C200C301C401C5014208CE0770
:100B2800430803110318013E031DCF0744080311AE
:100B38000318013E031DD007450803110318013EA1
:100B4800031DD1073C08C2004208F0003E080A1203
:100B58008A1533220A128A11710883120313D300EB
:100B68007008D2005208C200C301C401C50142087E
:100B7800C807430803110318013E031DC9074408A9
:100B880003110318013E031DCA0745080311031882
:100B9800013E031DCB075308C200C301C401C501B0
:100BA8004208CE07430803110318013E031DCF076F
:100BB800440803110318013E031DD007450803111B
:100BC8000318013E031DD1070830C2000310C80DE9
:100BD800C90DCA0DCB0DC20BEA2D3B08C200420855
:100BE800F0003E080A128A1533220A128A11710887
:100BF80083120313D3007008D2005208C2005308AE
:100C0800C300C401C5014208C807430803110318FB
:100C1800013E031DC907440803110318013E031DC3
:100C2800CA07450803110318013E031DCB073A08FC
:100C3800C2004208F0003F080A128A1533220A123D
:100C48008A11710883120313D3007008D200520866
:100C5800C2005308C300C401C5014208C8074308BD
:100C680003110318013E031DC907440803110318A3
:100C7800013E031DCA07450803110318013E031D61
:100C8800CB070830C2000310C80DC90DCA0DCB0D23
:100C9800C20B472E3A08C2004208F0003E080A126A
:100CA8008A1533220A128A11710883120313D3009A
:100CB8007008D2005208C2005308C300C401C5011D
:100CC8004208C807430803110318013E031DC9075A
:100CD800440803110318013E031DCA074508031100
:100CE8000318013E031DCB073B08C2004208F00071
:100CF80040080A128A1533220A128A1171088312CF
:100D08000313D3007008D2005208C2005308C3006E
:100D1800C401C5014208CE07430803110318013E68
:100D2800031DCF07440803110318013E031DD00714
:100D3800450803110318013E031DD1073C08C200F2
:100D48004208F0003F080A128A1533220A128A1153
:100D5800710883120313D3007008D2005208C2002E
:100D68005308C300C401C5014208CE074308031154
:100D78000318013E031DCF07440803110318013E61
:100D8800031DD007450803110318013E031DD107B1
:100D98003C08C2004208F00040080A128A153322B3
:100DA8000A128A11710883120313D3007008D20043
:100DB8005208C2005308C300C401C501083003101B
:100DC800C20DC30DC40DC50DFF3E031DE32E420821
:100DD800CE07430803110318013E031DCF0744083B
:100DE80003110318013E031DD0074508031103181A
:100DF800013E031DD1074808C2004908C3004A083C
:100E0800C4004B08C50018300310C50CC40CC30C33
:100E1800C20CFF3E031D082F4208CE0743080311EA
:100E28000318013E031DCF07440803110318013EB0
:100E3800031DD007450803110318013E031DD10700
:100E48000830C2000310C80DC90DCA0DCB0DC20B66
:100E5800262F4D084C07C200C301C30D4208823E2D
:100E6800D20043080318013EFF3ED300D01B572F82
:100E78000130C2000310CE0DCF0DD00DD10DC20B25
:100E88003E2FCB1B4E140130C2000310C80DC90DF4
:100E9800CA0DCB0DC20B492FFF30D2070318D30A56
:100EA800FF30D3073A2FCC01CB1F702FFF304805F6
:100EB800C200FF304905C300FF304A05C4007F3037
:100EC8004B05C500450844044304420403194E1861
:100ED8006E2F702FCC01CC0A4C080319A22F0130B9
:100EE800CE07003003180130CF0700300318013057
:100EF800D007003003180130D107511CA22F4E082B
:100F0800C2004F08C3005008C4005108C500013092
:100F1800C600450DC50CC40CC30CC20CC60B8D2FE6
:100F28004508D1004408D0004308CF004208CE004D
:100F38000130D2070318D30A0030D3075308803A88
:100F4800FF0080307F02031DAB2FFF305202031CCD
:100F5800B82F7F3083120313D1008030D0000030C7
:100F6800CF000030CE00E82F831203135308803AD5
:100F7800FF0080307F02031DC32F01305202031887
:100F8800D12F003083120313D1000030D00000307D
:100F9800CF000030CE00C701E82F83120313520898
:100FA800C2004208CD00FF30CE05FF30CF057F30AC
:100FB800D0050030D1054D18D0174D08C2000310D8
:100FC800420CC3004308D1004708C2004208D104BC
:100FD8005108BD005008BC004F08BB004E08BA00BD
:100FE80008008313B5308400C5300A128A158D2194
:100FF80083010A128A158D2EFF1B0A2883137F1876
:1010080083170008840A0319FF0A080008308A00B9
:101018000408840A82070034013400340A34003496
:1010280064340034E83403341034273441346E34E3
:10103800673475346C3465342034533431343A347D
:1010480025346434003441346E34673475346C3478
:1010580065342034533432343A342534643400341B
:1010680043346F346E34663469346734753472349B
:1010780061346E3464346F340034533465347234FC
:0810880076346F347334003438
:10131000FE30831603139200080064008001840AE3
:1013200004060319003404068E2900300A128A15B7
:10133000DA210A128A1501300A128A15DA21080008
:10134000831203131F083F3940389F00C7309F05A1
:101350001F10831603139F171F17F0309F050800F7
:101360000A128A1588210A128A1501300A128A1572
:10137000F4210A128A1502300A128A15F421080093
:10138000F000701CC729831203130816CA298312A0
:1013900003130812F01CCE298816CF298812701D5D
:1013A000D3290817D4290813F01DD8298817080055
:1013B00088130800F30083120313081173080A123C
:1013C0008A15C0210A128A15831203138815063064
:1013D000F2003030F100F10BEB29F20BEB290000A9
:1013E0008312031388110800F00002307006031DF9
:1013F000FE29831203139D151D15022A8312031360
:101400009715171512149214121502307006031D49
:101410000D2A831603130711080083160313871080
:101420000800831203131F147008F200F20DF20D6E
:10143000F20D1F087206C73972069F000D30F300C7
:10144000FB30F200F20B222AF30B222A272A831206
:1014500003131F151F192A2A1E08F10083160313F0
:101460001E08F0000800F800F401F5017008F20011
:10147000F3017208F6007308F700781C452A760815
:10148000F4070318F50A7708F50701300310F60D85
:10149000F70DFF3E031D462A0310F80C7808031DC4
:1014A0003D2A7508F1007408F0000800F400740883
:1014B0000F39F1007108F2007408F039F100710879
:1014C000F3008312031308157308F10004300310AE
:1014D000F10CFF3E031D672A71080A128A15C0210C
:1014E0000A128A158312031388150D30F100F10BCF
:1014F000772A83120313881172080A128A15C021F1
:101500000A128A158312031388150D30F100F10BAE
:10151000872A8312031388110800F501F601700869
:1015200071040319C42AF701F70AF11BA32A013039
:101530000310F00DF10DFF3E031D982A0130F40059
:101540007408F707952A01300310F50DF60DFF3EDC
:10155000031DA42A71087302031DB02A70087202C9
:10156000031CB92A7008F2027108031CF303F3028A
:10157000751401300310F10CF00CFF3E031DBA2A64
:101580000130F702031DA32A7608F1007508F00068
:101590000800FA01FB017A087507F8007608F700E1
:1015A0000318F70AFA1BF7037708F9007908831282
:1015B0000313FF00780884000A128A1500200A121B
:1015C0008A15003A031908007A087507F8007608AA
:1015D000F7000318F70AFA1BF7037708F9007908F0
:1015E00083120313FF00780884000A128A15002072
:1015F0000A128A150A128A1556220A128A15013011
:10160000FA070318FB0A0030FB07CB2AF700770321
:10161000031D2B2B74087F3EF5007508FA007A082D
:10162000F50004300310F50CFF3E031D122B750866
:10163000F6007608F8007A080F39F5007508F90009
:1016400078080A128A15DA210A128A1579080A120C
:101650008A15DA21080002307706031D0800740895
:10166000BF3EF5007508FA007A08F5000430031053
:10167000F50CFF3E031D372B7508F6007608F800C1
:101680007A080F39F5007508F90078080A128A15EA
:10169000DA210A128A1579080A128A15DA21080055
:1016A00083160313880183120313880100300A1282
:1016B0008A15C0210A128A151A30F500F830F40094
:1016C000F40B602BF50B602B000003300A128A1517
:1016D000DA210A128A150730F5007D30F400F40B88
:1016E0006F2BF50B6F2B03300A128A15DA210A12C1
:1016F0008A150F30F5004730F400F40B7D2BF50B05
:101700007D2B822B03300A128A15DA210A128A15E0
:1017100002300A128A15DA210A128A1502300A12D8
:101720008A15DA210A128A1508300A128A15DA2176
:101730000A128A1500300A128A15DA210A128A154D
:101740000C300A128A15DA210A128A1500300A12A0
:101750008A15DA210A128A1506300A128A15DA2148
:1017600008000310831203136A0D6B0D8316031315
:10177000A000200883120313ED006D08031DC92B80
:101780000030EB000030EA000030E9000030E800F3
:101790000800680883160313A00083120313690866
:1017A00083160313A100831203136A08831603131D
:1017B000A200831203136B0883160313A3001F30C8
:1017C0000310A30CA20CA10CA00CFF3E031DE02BE8
:1017D0002008A400240883120313EC00EA17FF304A
:1017E000E805FF30E905FF30EA050030EB059630EB
:1017F000ED02ED1F142C6D08803A973E031CC02BA0
:1018000001300310EB0CEA0CE90CE80CFF3E031D61
:10181000012C013083160313A00020088312031348
:10182000ED0703192F2C002C20306D020318C02B5C
:101830006D0803192F2C013083160313A000031029
:1018400083120313E80DE90DEA0DEB0D8316031364
:10185000A00B1F2C013083120313ED02182C6C080F
:1018600003190800E809E909EA09EB09E80A03197C
:10187000E90A0319EA0A0319EB0A0800F8007808D4
:10188000031DF31F532C7009FA007109FB00720944
:10189000FC007309FD00FA0A0319FB0A0319FC0A8C
:1018A0000319FD0A5B2C7308FD007208FC00710827
:1018B000FB007008FA007308720471047004031DC1
:1018C0006A2C0030F3000030F2000030F1000030EC
:1018D000F00008009630F4007408F900FE307D0531
:1018E00003199B2C0130F4007408F9070130031030
:1018F000FD0CFC0CFB0CFA0CFF3E031D772C6E2C30
:101900000130F4007408F9070130FA0700300318B9
:101910000130FB07003003180130FC0700300318CA
:101920000130FD0701300310FD0CFC0CFB0CFA0C20
:10193000FF3E031D932CFF307D050319AF2C802C37
:1019400002307902031CB12C0130F9020130F4009D
:101950000310FA0DFB0DFC0DFD0DF40BA82CFC1F64
:10196000A02C7918BB2CFF30FA05FF30FB057F3027
:10197000FC05FF30FD050310F90C7908F400F501B2
:10198000F601F70118300310F40DF50DF60DF70D03
:10199000FF3E031DC32C7408FA047508FB04760887
:1019A000FC047708FD047808031DF31FD82CFD17ED
:1019B0007D08F3007C08F2007B08F1007A08F00053
:1019C000080083160313A9002908A500A601A70192
:1019D000A8012808F3002708F2002608F1002508CE
:1019E000F00001300A128A153E240A128A15730883
:1019F00083120313C1007208C0007108BF00700891
:101A0000BE003F30BD00B230BC007D30BB0027308F
:101A1000BA000A128A11E0240A128A1583120313EB
:101A20003D08DB003C08DA003B08D9003A08D80042
:101A30004330D7007B30D6000030D5000030D400D2
:101A40000A128A11B1220A128A1583120313570847
:101A5000EB005608EA005508E9005408E8000A12AD
:101A60008A15B1230A128A15831203136908831693
:101A70000313AB0083120313680883160313AA0031
:101A800004302B02003003192A02031808002A0828
:101A9000F0002B08F100F201F30100300A128A1560
:101AA0003E240A128A15730883120313A7007208D2
:101AB000A6007108A5007008A4004430A3007F3080
:101AC000A200C030A1000030A0000A128A110E212D
:101AD0000A128A15831203132308C1002208C000CA
:101AE0002108BF002008BE004430BD007F30BC008C
:101AF0000030BB000030BA000A128A11E0240A123A
:101B00008A15831203133D08EB003C08EA003B08EA
:101B1000E9003A08E8000A128A15B1230A128A1568
:101B200083120313690883160313AB008312031394
:101B3000680883160313AA002A1CA22D831203131C
:101B40009716A52D831203139712171283160313EA
:101B50002B08A6002A08A5000310A60CA50C03104C
:101B6000A60CA50C25088312031395000800831604
:101B70000313A9002908A500A601A701A8012808A8
:101B8000F3002708F2002608F1002508F0000130D4
:101B90000A128A153E240A128A1573088312031347
:101BA000C1007208C0007108BF007008BE003F305D
:101BB000BD00B230BC007D30BB002730BA000A1235
:101BC0008A11E0240A128A15831203133D08DB00F0
:101BD0003C08DA003B08D9003A08D8004330D70067
:101BE0007B30D6000030D5000030D4000A128A11B4
:101BF000B1220A128A15831203135708EB00560804
:101C0000EA005508E9005408E8000A128A15B123D1
:101C10000A128A1583120313690883160313AB0093
:101C200083120313680883160313AA0004302B02DF
:101C3000003003192A02031808002A08F0002B08B4
:101C4000F100F201F30100300A128A153E240A1253
:101C50008A15730883120313A7007208A60071087F
:101C6000A5007008A4004430A3007F30A200C0305B
:101C7000A1000030A0000A128A110E210A128A1552
:101C8000831203132308C1002208C0002108BF00EB
:101C90002008BE004430BD007F30BC000030BB00D7
:101CA0000030BA000A128A11E0240A128A1583123F
:101CB00003133D08EB003C08EA003B08E9003A0842
:101CC000E8000A128A15B1230A128A158312031337
:101CD000690883160313AB00831203136808831685
:101CE0000313AA002A1C782E831203139D167B2E41
:101CF000831203139D121D12831603132B08A600D3
:101D00002A08A5000310A60CA50C0310A60CA50C10
:101D10002508831203139B0008000A128A1550231A
:101D20000A128A150A128A15A0210A128A150A12A5
:101D30008A1595210A128A15F401F40A01300A1253
:101D40008A1506230A128A152530F5008030F60020
:101D50000A128A15C9220A128A15F401F40A0230FD
:101D60000A128A1506230A128A153230F5008030CD
:101D7000F6000A128A15C9220A128A150330831640
:101D80000313AE008A30AD005530AC00AC0BC62E4C
:101D9000AD0BC62EAE0BC62E0A128A15B0210A1242
:101DA0008A1500300A128A15E1240A128A15831650
:101DB0000313B301B4010A128A1595210A128A1578
:101DC0000030F000F1000A128A1511220A128A1559
:101DD000710883160313B0007008AF002F08F000DD
:101DE0003008F100F201F30100300A128A153E2496
:101DF0000A128A15730883120313C1007208C00007
:101E00007108BF007008BE003E30BD003430BC0019
:101E10002D30BB000B30BA000A128A11E0240A12DE
:101E20008A15831203133D08EB003C08EA003B08C7
:101E3000E9003A08E8000A128A15B1230A128A1545
:101E400083120313680883160313AC002C08B10037
:101E500031080A128A15E1240A128A150B308316FA
:101E60000313AC002C0883120313A0008316031382
:101E70003108AD00AE012D0883120313A1008316B3
:101E800003132E0883120313A200B5300A128A111D
:101E900036200A128A15F401F40A01300A128A1552
:101EA00006230A128A15B530F5000030F6000A1232
:101EB0008A15C9220A128A1583120313061C702F71
:101EC000043083160313340200300319330203185D
:101ED000842F0130B3070318B40A0030B4077E2FF3
:101EE000861C842F83160313330834040319842FAC
:101EF0000130B3020030031CB403B40233080A12E9
:101F00008A15B7250A128A15831603133308F000C1
:101F10003408F100F201F30100300A128A153E2460
:101F20000A128A15730883120313C1007208C000D5
:101F30007108BF007008BE003E30BD003430BC00E8
:101F40002D30BB000B30BA000A128A11E0240A12AD
:101F50008A15831203133D08EB003C08EA003B0896
:101F6000E9003A08E8000A128A15B1230A128A1514
:101F700083120313680883160313AC002C08B20005
:101F800032080A128A15B7250A128A1518308316E4
:101F90000313AC002C0883120313A0008316031351
:101FA0003208AD00AE012D0883120313A100831681
:101FB00003132E0883120313A200B5300A128A11EC
:101FC00036200A128A15F401F40A02300A128A1520
:101FD00006230A128A15B530F5000030F6000A1201
:101FE0008A15C9220A128A15413083160313AD00DF
:101FF000ED30AC00AC0BFA2FAD0BFA2FFF2FDB2E20
:02400E00393F38
:00000001FF
