:020000040000FA
:060000000A128A11FC2F18
:1000080083120313D3006E305302031C16293F30AA
:10001800A9000030A8000030A7000030A600643016
:10002800F6000030F7005308C400C5014408F80082
:100038004508F9000A168A15A8260A128A117608B0
:1000480083120313C60001300310C60DFF3E031DC3
:1000580028280310460D7D3E84000A168A110A20BE
:100068000A128A11C7000A168A110A200A128A116E
:10007800C8000A168A110A200A128A11C9000A162B
:100088008A110A200A128A11CA004A08AD004908D2
:10009800AC004808AB004708AA000A128A15A2213A
:1000A8000A128A11831203132908D2002808D100E2
:1000B8002708D0002608CF000A30F6000030F700E5
:1000C8005308C400C5014408F2004508F300643031
:1000D800F0000030F1000A168A1504260A128A1167
:1000E8007108F9007008F8000A168A15A8260A127D
:1000F8008A11760883120313C60001300310C60D57
:10010800FF3E031D82280310460D593E84000A163F
:100118008A110A200A128A11C7000A168A110A20AF
:100128000A128A11C8000A168A110A200A128A11AC
:10013800C9000A168A110A200A128A11CA004A0836
:10014800A9004908A8004808A7004708A6005208BF
:10015800AD005108AC005008AB004F08AA000A12C5
:100168008A15A2210A128A11831203132908CE00C4
:100178002808CD002708CC002608CB000A30F0005C
:100188000030F1005308C400C5014408F2004508D6
:10019800F3000A168A1504260A128A1170088312B7
:1001A8000313C60001300310C60DFF3E031DD728F8
:1001B8000310460D353E84000A168A110A200A12D9
:1001C8008A11C7000A168A110A200A128A11C80061
:1001D8000A168A110A200A128A11C9000A168A11F7
:1001E8000A200A128A11CA004A08A9004908A80068
:1001F8004808A7004708A6004E08AD004D08AC0007
:100208004C08AB004B08AA000A128A15A2218312D7
:1002180003132908C3002808C2002708C1002608BC
:10022800C00008000B305302031CC3293F30A9004B
:100238000030A8000030A7000030A6000A30F60001
:100248000030F7005308C400C5014408F800450809
:10025800F9000A168A15A8260A128A117608831246
:100268000313C60001300310C60DFF3E031D3729D6
:100278000310460D593E84000A168A110A200A12F4
:100288008A11C7000A168A110A200A128A11C800A0
:100298000A168A110A200A128A11C9000A168A1136
:1002A8000A200A128A11CA004A08AD004908AC009F
:1002B8004808AB004708AA000A128A15A2210A12A8
:1002C8008A11831203132908D2002808D1002708AD
:1002D800D0002608CF000A30F0000030F1005308A3
:1002E800C400C5014408F2004508F3000A168A153F
:1002F80004260A128A11700883120313C6000130FB
:100308000310C60DFF3E031D84290310460D353E1C
:1003180084000A168A110A200A128A11C7000A16CE
:100328008A110A200A128A11C8000A168A110A209C
:100338000A128A11C9000A168A110A200A128A1199
:10034800CA004A08A9004908A8004808A7004708A1
:10035800A6005208AD005108AC005008AB004F0889
:10036800AA000A128A15A221831203132908C300BE
:100378002808C2002708C1002608C00008003F302E
:10038800A9000030A8000030A7000030A6005308DC
:10039800C40001300310C40DFF3E031DCE29031015
:1003A800440D353E84000A168A110A200A128A1161
:1003B800C5000A168A110A200A128A11C6000A16EE
:1003C8008A110A200A128A11C7000A168A110A20FD
:1003D8000A128A11C8004808AD004708AC00460850
:1003E800AB004508AA000A128A15A221831203133A
:1003F8002908C3002808C2002708C1002608C00031
:10040800080083160313BB00A130A5002508AE0021
:100418000130A007FF30200784000A168A110A203D
:100428000A128A11A5002508C20042080319F72FED
:10043800253042060319222A4208EC2FAF01B001E9
:10044800200884000A168A110A200A128A112E3AF4
:10045800031D6F2A30170130A5002508A007BC012D
:10046800BD01200884000A168A110A200A128A117E
:100478000A128A1501200A128A11031C752A83168A
:1004880003133D08F1003C08F0000A30F200003088
:10049800F3000A168A157C250A128A11831603139B
:1004A800200884000A168A110A200A128A11700785
:1004B800A5000030031801307107A6002508D03EBA
:1004C800BC0026080318013EFF3EBD000130A50010
:1004D8002508A007352ABC01BD013016752A30153C
:1004E800912A013083160313A007FF3020078400E8
:1004F8000A168A110A200A128A11C200A500A6014A
:100508002608003A0319892A0C2A2508003A0319F3
:10051800F72F663A0319732A0C2A00302F05A50015
:1005280007303005A600250826040319B92F301E08
:10053800A12A0630BC000030BD002E0884008313B9
:100548000008BE00840A0008BF00840A0008C00032
:10055800840A0008C1000430A5002508AE07410838
:10056800F3004008F2003F08F1003E08F0000030B8
:10057800F7000030F6000030F5000030F4000A16ED
:100588008A114D220A128A110318E72A83160313C7
:100598004108F3004008F2003F08F1003E08F0006F
:1005A8000A168A1524250A128A117308831603135A
:1005B800C1007208C0007108BF007008BE00033097
:1005C800AF040030B00483160313B501B601410827
:1005D800F3004008F2003F08F1003E08F000003048
:1005E800F7000030F6000030F5000030F4000A167D
:1005F8008A1521270A128A110318EB2B0310831678
:100608000313400D410D823EB500FF300318003042
:10061800B600FF30B5070318B60AFF30B607033037
:10062800F0000030F1003608F3003508F2000A1631
:100638008A157C250A128A11710883160313B600DD
:100648007008B5000A30F7000030F8003608FA00E4
:100658003508F9000A168A11C6200A128A11780884
:1006680083160313B6007708B500B61F412BFF3079
:10067800B5070318B60AFF30B6073503FF3A0A1262
:100688008A15B7240A128A118312031343088316A2
:100698000313BA0083120313420883160313B90025
:1006A80083120313410883160313B800831203133C
:1006B800400883160313B700410883120313A900E7
:1006C80083160313400883120313A8008316031329
:1006D8003F0883120313A700831603133E088312EF
:1006E8000313A600831603133A0883120313AD00FD
:1006F80083160313390883120313AC0083160313FC
:10070800380883120313AB008316031337088312C8
:100718000313AA000A128A15A2210A128A11831247
:100728000313290883160313BA0083120313280836
:1007380083160313B90083120313270883160313C0
:10074800B80083120313260883160313B7003A0868
:10075800F3003908F2003808F1003708F0003F309C
:10076800F7008030F6000030F5000030F4000A167B
:100778008A114D220A128A110318CA2BFF308316D8
:100788000313B5070318B60AFF30EA2B83160313C1
:100798003A08F3003908F2003808F1003708F00089
:1007A8004130F7002030F6000030F5000030F4004A
:1007B8000A168A114D220A128A11031CEB2B0130EA
:1007C80083160313B5070318B60A0030B607831655
:1007D80003133D08803AFF0080307F02031DF62B8B
:1007E8000D303C0203183F2C831603133C080A12F1
:1007F8008A1104200A128A11831203134308D700AE
:100808004208D6004108D5004008D40083160313D7
:10081800410883120313DB00831603134008831275
:100828000313DA00831603133F0883120313D90056
:10083800831603133E0883120313D8000A168A117D
:10084800D1250A128A11831203135708831603133A
:10085800C10083120313560883160313C0008312C2
:100868000313550883160313BF0083120313540898
:1008780083160313BE00831603133608803AFF005D
:1008880080307F02031D4A2C0A3035020318972C4A
:10089800831603134108F3004008F2003F08F100F3
:1008A8003E08F0000030F7000030F6000030F50098
:1008B8000030F4000A168A1521270A128A11031833
:1008C800002D83160313410883120313D6008316E1
:1008D8000313400883120313D500831603133F083C
:1008E80083120313D400831603133E0883120313E1
:1008F800D3000A168A11E0210A128A1183120313FF
:100908005608550454045304031D002D831603137D
:100918003608803AFF0080307F02031D952C023094
:100928003502031C002D831603133A08F300390817
:10093800F2003808F1003708F0004030F70089303D
:10094800F6007030F5005F30F4000A168A114D2267
:100958000A128A110318B22CF730B32CF830831618
:100968000313B5070318B60AFF30B60735080A128D
:100978008A15B7240A128A118312031343088316AF
:100988000313BA0083120313420883160313B90032
:1009980083120313410883160313B8008312031349
:1009A800400883160313B7004108F3004008F2001B
:1009B8003F08F1003E08F0003A08F7003908F60051
:1009C8003808F5003708F4000A128A150F200A12B1
:1009D8008A11730883160313B4007208B3007108F0
:1009E800B2007008B1000030C1000030C000003013
:1009F800BF000030BE00842D831603134108831204
:100A08000313D60083160313400883120313D5007B
:100A1800831603133F0883120313D40083160313AA
:100A28003E0883120313D3000A168A11E0210A1222
:100A38008A1183120313560883160313B400831212
:100A48000313550883160313B300831203135408C2
:100A580083160313B2008312031353088316031378
:100A6800B1003408F7003308F6003208F500310801
:100A7800F40000300A168A11E0220A128A11770857
:100A880083120313EB007608EA007508E90074087E
:100A9800E80083160313410883120313EF0083163B
:100AA8000313400883120313EE00831603133F0851
:100AB80083120313ED00831603133E0883120313F6
:100AC800EC000A168A15BF250A128A11831203132D
:100AD8006B0883160313C100831203136A08831675
:100AE8000313C00083120313690883160313BF009E
:100AF80083120313680883160313BE00B501B601F9
:100B0800C201C20A4208A50001300310A50DFF3E2C
:100B1800031D892D0310250D693E84000A168A11CC
:100B28000A200A128A11A6000A168A110A200A1235
:100B38008A11A7000A168A110A200A128A11A80027
:100B48000A168A110A200A128A11A90029083402F1
:100B5800031DB82D28083302031DB82D27083202BB
:100B6800031DB82D26083102031CC22D0130A50033
:100B78002508C2070A304206031D862D03302F05BB
:100B8800A50000303005A600250826040319D72D36
:100B98002D30A5003B088400250883138000013010
:100BA800A5002508BB070130C202420A03194C2ED2
:100BB8004208A50001300310A50DFF3E031DDF2DDF
:100BC8000310250D693E84000A168A110A200A12AC
:100BD8008A11F0000A168A110A200A128A11F100F5
:100BE8000A168A110A200A128A11F2000A168A11B4
:100BF8000A200A128A11F3003408F7003308F600B5
:100C08003208F5003108F4000A168A1121210A1267
:100C18008A11730883160313BA007208B9007108A1
:100C2800B8007008B7000030F3000030F200003060
:100C3800F1000A30F0003A08F7003908F6003808E1
:100C4800F5003708F4000A168A15B4270A128A1123
:100C5800730883160313BA007208B9007108B80044
:100C68007008B7003708303ECD2D30308316031397
:100C7800A5003B0884002508831380000130A500E7
:100C88002508BB07FF30B5070318B60AFF30B607BB
:100C98003608803AFF0080307F02031D552E013050
:100CA80035020318392E831603133D08803AFF00D6
:100CB80080307F02031D622E09303C02031C682E1F
:100CC8000830831603136B2E831603133C08A50004
:100CD8002508C2004208A500A6012508BC0226086E
:100CE800031CBD03BD0242080319852E2E30A50042
:100CF8003B0884002508831380000130A5002508DF
:100D0800BB0742080A128A15B7240A128A118312ED
:100D18000313430883160313AD0083120313420819
:100D280083160313AC0083120313410883160313BD
:100D3800AB0083120313400883160313AA002D087F
:100D480083120313AD00831603132C0883120313B5
:100D5800AC00831603132B0883120313AB0083160E
:100D680003132A0883120313AA00831603134108E6
:100D780083120313A9008316031340088312031375
:100D8800A800831603133F0883120313A7008316D2
:100D980003133E0883120313A6000A128A15A22120
:100DA8000A128A11831203132908D6002808D500CD
:100DB8002708D4002608D3000A168A11E0210A124F
:100DC8008A1183120313560883160313B40083127F
:100DD8000313550883160313B3008312031354082F
:100DE80083160313B20083120313530883160313E5
:100DF800B1000130C202420A0319B42F4208A5000B
:100E080001300310A50DFF3E031D052F0310250D0E
:100E1800693E84000A168A110A200A128A11F00013
:100E28000A168A110A200A128A11F1000A168A1172
:100E38000A200A128A11F2000A168A110A200A12D6
:100E48008A11F3003408F7003308F6003208F50079
:100E58003108F4000A168A1121210A128A1173082E
:100E680083160313BA007208B9007108B800700835
:100E7800B7000030F3000030F2000030F1000A3013
:100E8800F0003A08F7003908F6003808F500370886
:100E9800F4000A168A15B4270A128A1173088316F1
:100EA8000313BA007208B9007108B8007008B700D7
:100EB8003708303EA5003B088400250883138000CE
:100EC8000130A5002508BB074208A5000130031022
:100ED800A50DFF3E031D6B2F0310250D693E8400F1
:100EE8000A168A110A200A128A11F0000A168A11B3
:100EF8000A200A128A11F1000A168A110A200A1217
:100F08008A11F2000A168A110A200A128A11F300BD
:100F18003408F7003308F6003208F5003108F40009
:100F28000A168A15B4270A128A117308831603133E
:100F3800B4007208B3007108B2007008FC2E30309B
:100F4800A5003B0884002508831380000130A50014
:100F58002508BB07FF30BC070318BD0AFF30BD07D3
:100F68003C083D0403190C2AA32F3C083D04031D2B
:100F7800C92F3408330432043104031DC92F01304A
:100F8800BC070318BD0A0030BD073D08803A803C05
:100F9800031DD02F3C084202031CDF2F83160313C6
:100FA8003D08803AA50080302502031DDD2F420848
:100FB8003C02031CDF2F0330831603132F05A50003
:100FC80000303005A6002508260403190C2A2D3008
:100FD800A5003B0884002508831380000130A50084
:100FE8002508BB070C2A3B088400831380010800EE
:080FF80083010A128A15B928D1
:10100200F100F0013A30710203180D2830307102FC
:10101200031C0D28F001F00A700C08000310720D79
:10102200730DF800780883120313A5002508031D29
:1010320023280030F3000030F2000030F1000030CD
:10104200F00008000310760D770DF8007808A40070
:10105200240803191A28F217FF30F005FF30F105B2
:10106200FF30F2050030F305F617FF30F405FF30CC
:10107200F505FF30F6050030F7050030A30000301B
:10108200A2000030A1000030A0007F30A502A030F5
:101092002407F8007808A5022030F8007808A40098
:1010A2000130F8000310A00DA10DA20DA30DF80B45
:1010B200532877087302031D682876087202031DFD
:1010C200682875087102031D682874087002031CE1
:1010D20079287408F0027508031C750FF10276086E
:1010E200031C760FF2027708031C770FF302201419
:1010F2000130F8000310F00DF10DF20DF30DF80BB5
:101102007B280130A402031D5128A51F9D28250814
:10111200803A9F3E031C1A2801300310A30CA20C34
:10112200A10CA00CFF3E031D8E280130F8007808A8
:10113200A5070319B0288D282030250203181A2884
:1011420025080319B0280130F8000310A00DA10DE5
:10115200A20DA30DF80BA6280130A502A128230891
:10116200F3002208F2002108F1002008F000080034
:10117200FF308316031385008312031385010A16B9
:101182008A1538250A128A150A168A117F210A122F
:101192008A150A168A152D250A128A15F401F40AEF
:1011A20001300A168A156D260A128A159D30F5003D
:1011B2008030F6000A168A15E4260A128A15F4010E
:1011C200F40A02300A168A156D260A128A1591301F
:1011D200F5008030F6000A168A15E4260A128A15EE
:1011E200033083160313C5008A30C4005530C30090
:1011F200C30BF928C40BF928C50BF9280A168A155E
:101202002D250A128A15F401F40A01300A168A15EC
:101212006D260A128A15A830F5008030F6000A16EB
:101222008A15E4260A128A15443083120313C30076
:101232007F30C200C030C1000030C0004030A90081
:10124200A030A8000030A7000030A6000030F00057
:10125200F1000A168A159D250A128A157008F400F3
:101262007108F5000030F51BFF30F600F700013081
:101272000A168A11E0220A128A15770883120313CA
:10128200AD007608AC007508AB007408AA000A121B
:101292008A15A2210A128A15831203132908C7008C
:1012A2002808C6002708C5002608C4000A168A11A5
:1012B2002E240A128A15831203134308831603137A
:1012C200D90083120313420883160313D800831232
:1012D2000313410883160313D70083120313400834
:1012E20083160313D600B030C3004308A000590888
:1012F200A4005808A3005708A2005608A100C6304F
:101302000A128A1105220A128A15F401F40A02301D
:101312000A168A156D260A128A15C630F5000030A3
:10132200F6000A168A15E4260A128A150D3083166B
:101332000313C400FB30C300C30B9D29C40B9D29BA
:1013420015298312031329088039AE002E08B30031
:101352002908AE002E07AF002F08B900A81B3914C8
:1013620039080319C129390A031DBF290030A90010
:101372000030A8000030A7000030A600A817C92935
:101382000030A9000030A8000030A7000030A600FD
:101392002D088039AE002E08B3062D08AE002E07A8
:1013A200AF002F08B800AC1B381438080319E6291F
:1013B200380A031DE4290030AD000030AC000030D3
:1013C200AB000030AA00AC17EE290030AD000030AF
:1013D200AC000030AB000030AA003808031D390809
:1013E200031DFC290030A9000030A8000030A7002E
:1013F2000030A60008002608AE002E08F0002C08D7
:101402000A168A15E1250A128A1571088312031336
:10141200BF007008BE003E08AE00AF01B001B101CE
:101422003108B7003008B6002F08B5002E08B40006
:101432003F08AE00AF01B001B1013108BD00300874
:10144200BC002F08BB002E08BA002708AE002E08E9
:10145200F0002B080A168A15E1250A128A1571086E
:1014620083120313BF007008BE003E08AE00AF0136
:10147200B001B1012E08B4072F0803110318013E71
:10148200031DB507300803110318013E031DB607FB
:10149200310803110318013E031DB7073F08AE00D0
:1014A200AF01B001B1012E08BA072F0803110318CA
:1014B200013E031DBB07300803110318013E031D43
:1014C200BC07310803110318013E031DBD0728089C
:1014D200AE002E08F0002A080A168A15E1250A1223
:1014E2008A15710883120313BF007008BE003E08FC
:1014F200AE00AF01B001B1012E08B4072F080311ED
:101502000318013E031DB507300803110318013EFD
:10151200031DB607310803110318013E031DB70767
:101522003F08AE00AF01B001B1012E08BA072F0883
:1015320003110318013E031DBB07300803110318F2
:10154200013E031DBC07310803110318013E031DB0
:10155200BD070830AE000310B40DB50DB60DB70DC2
:10156200AE0BAC2A2708AE002E08F0002A080A1695
:101572008A15E1250A128A15710883120313BF0026
:101582007008BE003E08AE003F08AF00B001B101D6
:101592002E08B4072F0803110318013E031DB507D7
:1015A200300803110318013E031DB6073108031169
:1015B2000318013E031DB7072608AE002E08F000EF
:1015C2002B080A168A15E1250A128A157108831258
:1015D2000313BF007008BE003E08AE003F08AF0014
:1015E200B001B1012E08B4072F0803110318013E00
:1015F200031DB507300803110318013E031DB6078A
:10160200310803110318013E031DB7070830AE006D
:101612000310B40DB50DB60DB70DAE0B092B260890
:10162200AE002E08F0002A080A168A15E1250A12D1
:101632008A15710883120313BF007008BE003E08AA
:10164200AE003F08AF00B001B1012E08B4072F0869
:1016520003110318013E031DB507300803110318D7
:10166200013E031DB607310803110318013E031D95
:10167200B7072708AE002E08F0002C080A168A15B4
:10168200E1250A128A15710883120313BF0070083C
:10169200BE003E08AE003F08AF00B001B1012E0807
:1016A200BA072F0803110318013E031DBB073008B8
:1016B20003110318013E031DBC073108031103186F
:1016C200013E031DBD072808AE002E08F0002B08BE
:1016D2000A168A15E1250A128A1571088312031364
:1016E200BF007008BE003E08AE003F08AF00B00168
:1016F200B1012E08BA072F0803110318013E031D7A
:10170200BB07300803110318013E031DBC07310853
:1017120003110318013E031DBD072808AE002E0861
:10172200F0002C080A168A15E1250A128A1571089A
:1017320083120313BF007008BE003E08AE003F08CC
:10174200AF00B001B10108300310AE0DAF0DB00D06
:10175200B10DFF3E031DA52B2E08BA072F0803115A
:101762000318013E031DBB07300803110318013E95
:10177200031DBC07310803110318013E031DBD07F9
:101782003408AE003508AF003608B0003708B100A3
:1017920018300310B10CB00CAF0CAE0CFF3E031DA1
:1017A200CA2B2E08BA072F0803110318013E031D86
:1017B200BB07300803110318013E031DBC073108A3
:1017C20003110318013E031DBD070830AE000310CC
:1017D200B40DB50DB60DB70DAE0BE82B39083807B1
:1017E200AE00AF01AF0D2E08823EBE002F080318D7
:1017F200013EFF3EBF00BC1B192C0130AE0003109E
:10180200BA0DBB0DBC0DBD0DAE0B002CB71B3A14AF
:101812000130AE000310B40DB50DB60DB70DAE0B11
:101822000B2CFF30BE070318BF0AFF30BF07FC2B8B
:10183200B801B71F322CFF303405AE00FF3035053A
:10184200AF00FF303605B0007F303705B1003108F8
:1018520030042F042E0403193A18302C322CB8010C
:10186200B80A38080319642C0130BA07003003188B
:101872000130BB07003003180130BC0700300318E9
:101882000130BD073D1C642C3A08AE003B08AF0096
:101892003C08B0003D08B1000130B200310DB10C7E
:1018A200B00CAF0CAE0CB20B4F2C3108BD0030089F
:1018B200BC002F08BB002E08BA000130BE07031877
:1018C200BF0A0030BF073F08803AFF0080307F0226
:1018D200031D6D2CFF303E02031C7A2C7F308312D5
:1018E2000313BD008030BC000030BB000030BA00E2
:1018F200AA2C831203133F08803AFF0080307F0234
:10190200031D852C01303E020318932C00308312F4
:101912000313BD000030BC000030BB000030BA0031
:10192200B301AA2C831203133E08AE002E08B9009D
:10193200FF30BA05FF30BB057F30BC050030BD0566
:101942003918BC173908AE0003102E0CAF002F084F
:10195200BD003308AE002E08BD043D08A9003C08B6
:10196200A8003B08A7003A08A60008008312031348
:10197200D200D21F5F2ED209D20A5208803A123EFA
:10198200031CA92D0A30F7000030F8005208F200BB
:10199200F301F21BF3036430F0000030F1000A1689
:1019A2008A1569270A128A157108FA007008F90067
:1019B2000A168A11C6200A128A157708831203139F
:1019C200C40001300310C40DFF3E031DE32C0310BD
:1019D200440D593E84000A168A110A200A128A15F9
:1019E200C5000A168A110A200A128A15C6000A16AA
:1019F2008A110A200A128A15C7000A168A110A20B9
:101A02000A128A15C8004808A9004708A800460813
:101A1200A7004508A6006430F7000030F80052081D
:101A2200F900FA01F91BFA030A168A11C6200A12F2
:101A32008A15770883120313C90001300310C90DF8
:101A4200FF3E031D1F2D0310490D7D3E84000A1623
:101A52008A110A200A128A15CA000A168A110A2055
:101A62000A128A15CB000A168A110A200A128A154E
:101A7200CC000A168A110A200A128A15CD004D08D6
:101A8200AD004C08AC004B08AB004A08AA000A1291
:101A92008A15A2210A128A15831203132908D1007A
:101AA2002808D0002708CF002608CE000A30F00010
:101AB2000030F1005208F200F301F21BF3030A16A0
:101AC2008A1569270A128A15700883120313C40043
:101AD20001300310C40DFF3E031D6A2D0310440D97
:101AE200353E84000A168A110A200A128A15C50098
:101AF2000A168A110A200A128A15C6000A168A11C3
:101B02000A200A128A15C7000A168A110A200A1226
:101B12008A15C8004808A9004708A8004608A70077
:101B22004508A6005108AD005008AC004F08AB00B4
:101B32004E08AA000A128A15A22183120313290849
:101B4200C3002808C2002708C1002608C0000800F8
:101B52005208803A753E031C342E0A30F0000030E1
:101B6200F1005208F200F301F21BF3030A168A1580
:101B720069270A128A15700883120313C400013000
:101B82000310C40DFF3E031DC12D0310440D353E4D
:101B920084000A168A110A200A128A15C5000A163A
:101BA2008A110A200A128A15C6000A168A110A2008
:101BB2000A128A15C7000A168A110A200A128A1501
:101BC200C8004808A9004708A8004608A700450819
:101BD200A6000A30F7000030F8005208F900FA01B6
:101BE200F91BFA030A168A11C6200A128A15770807
:101BF20083120313C90001300310C90DFF3E031DF8
:101C0200FD2D0310490D593E84000A168A110A203F
:101C12000A128A15CA000A168A110A200A128A159D
:101C2200CB000A168A110A200A128A15CC000A165B
:101C32008A110A200A128A15CD004D08AD004C08FF
:101C4200AC004B08AB004A08AA000A128A15A2216E
:101C5200831203132908C3002808C2002708C10001
:101C62002608C00008005208C40001300310C40D49
:101C7200FF3E031D372E0310440D353E84000A1625
:101C82008A110A200A128A15C5000A168A110A2028
:101C92000A128A15C6000A168A110A200A128A1521
:101CA200C7000A168A110A20C8004808C30047085C
:101CB200C2004608C1004508C00008005208803A28
:101CC200123E031C4A2F0A30F7000030F800520877
:101CD200F200F301F21BF3036430F0000030F10074
:101CE2000A168A1569270A128A157108FA007008FD
:101CF200F9000A168A11C6200A128A157708831279
:101D02000313C40001300310C40DFF3E031D842ED3
:101D12000310440D253E84000A168A110A200A1275
:101D22008A15C5000A168A110A200A128A15C600E7
:101D32000A168A110A200A128A15C7000A168A117F
:101D42000A200A128A15C8004808A9004708A800F4
:101D52004608A7004508A6006430F7000030F800E6
:101D62005208F900FA01F91BFA030A168A11C62071
:101D72000A128A15770883120313C900013003106F
:101D8200C90DFF3E031DC02E0310490D493E8400BC
:101D92000A168A110A200A128A15CA000A168A111C
:101DA2000A200A128A15CB000A168A110A200A1280
:101DB2008A15CC000A168A110A200A128A15CD0049
:101DC2004D08AD004C08AC004B08AB004A08AA0015
:101DD2000A128A15A2210A128A15831203132908EC
:101DE200D1002808D0002708CF002608CE000A30EC
:101DF200F0000030F1005208F200F301F21BF3038D
:101E02000A168A1569270A128A15700883120313A3
:101E1200C40001300310C40DFF3E031D0B2F03103D
:101E2200440D013E84000A168A110A200A128A15FC
:101E3200C5000A168A110A200A128A15C6000A1655
:101E42008A110A200A128A15C7000A168A110A2064
:101E52000A128A15C8004808A9004708A8004608BF
:101E6200A7004508A6005108AD005008AC004F0875
:101E7200AB004E08AA000A128A15A221831203138C
:101E82002908C3002808C2002708C1002608C0008C
:101E920008005208803A753E031CD52F0A30F00024
:101EA2000030F1005208F200F301F21BF3030A16AC
:101EB2008A1569270A128A15700883120313C4004F
:101EC20001300310C40DFF3E031D622F0310440DA9
:101ED200013E84000A168A110A200A128A15C500D8
:101EE2000A168A110A200A128A15C6000A168A11CF
:101EF2000A200A128A15C7000A168A110A200A1233
:101F02008A15C8004808A9004708A8004608A70083
:101F12004508A6000A30F7000030F8005208F90020
:101F2200FA01F91BFA030A168A11C6200A128A1547
:101F3200770883120313C90001300310C90DFF3E55
:101F4200031D9E2F0310490D253E84000A168A1197
:101F52000A200A128A15CA000A168A110A200A12CF
:101F62008A15CB000A168A110A200A128A15CC0099
:101F72000A168A110A200A128A15CD004D08AD00F0
:101F82004C08AC004B08AB004A08AA000A128A159A
:101F9200A221831203132908C3002808C2002708BC
:101FA200C1002608C00008005208C4000130031016
:101FB200C40DFF3E031DD82F0310440D013E8400C3
:101FC2000A168A110A200A128A15C5000A168A11EF
:101FD2000A200A128A15C6000A168A110A200A1253
:101FE2008A15C7000A168A110A20C8004808C300C9
:101FF2004708C2004608C1004508C0000800FF1B90
:102002000A2883137F1883170008840A0319FF0A1A
:10201200080010308A000408840A82070034003461
:10202200003480343F3400340034203441340034EE
:102032000034C8344234003400347A344434003436
:1020420040341C34463400345034C33447340034F2
:102052002434743449348034963418344B34203464
:10206200BC34BE344C3428346B346E344E34F934C0
:10207200023415345034EC347834AD346034CA341C
:10208200F234493471340034003480343F34CD3476
:10209200CC34CC343D340A34D73423343C346F341A
:1020A200123483343A341734B734D1343834AC343C
:1020B200C53427343734BD34373486343534953417
:1020C200BF34D63433347734CC342B3432345F34A7
:1020D200703489343034FF34E634DB342E3408343F
:1020E200E5343C341E3460344234A2340D340134BD
:1020F2000034003400340A340034003400346434D0
:10210200003400340034E834033400340034103432
:10211200273400340034A03486340134003440348F
:1021220042340F340034803496349834003400340E
:10213200E134F53405340034CA349A343B34433440
:1021420061347234673461346E3464346F342E34E3
:102152002E342E34003456346F346C347434693473
:102162006D346534743472346F34003456346F34E1
:102172006C34743461346A346534003425342E345A
:08218200363466345634003493
:10218C0083120313A101F81FD228F709F809F70AE3
:10219C000319F80AA101A10AFA1FDD28F909FA09A5
:1021AC00F90A0319FA0A0130FB007B08A106A20107
:1021BC00A3017708780403191429A001A00AF81BBD
:1021CC00F32801300310F70DF80DFF3E031DE8282E
:1021DC000130FB007B08A007E52801300310A20D9D
:1021EC00A30DFF3E031DF42878087A02031D002975
:1021FC0077087902031C09297708F9027808031C6F
:10220C00FA03FA02221401300310F80CF70CFF3E0B
:10221C00031D0A290130A002031DF328210803190C
:10222C001C29A209A309A20A0319A30A2308F8006E
:10223C002208F70008000030FC000030FB000030E2
:10224C00FA000030F9007308720471047004031969
:10225C007629FD01FD0AF31B41290130F80003101A
:10226C00F00DF10DF20DF30DF80B35290130F800DE
:10227C007808FD0731290130F8000310F90DFA0D2B
:10228C00FB0DFC0DF80B432973087702031D58292D
:10229C0072087602031D582971087502031D58290E
:1022AC0070087402031C69297008F4027108031C7D
:1022BC00710FF5027208031C720FF6027308031CEF
:1022CC00730FF702791401300310F30CF20CF10CBC
:1022DC00F00CFF3E031D6A290130FD02031D41294C
:1022EC007C08F3007B08F2007A08F1007908F00012
:1022FC000800831603138601831203138601003032
:10230C000A168A1548250A168A111A30F500F83073
:10231C00F400F40B8F29F50B8F29000003300A16FB
:10232C008A1562250A168A110730F5007D30F400F3
:10233C00F40B9E29F50B9E2903300A168A1562258B
:10234C000A168A110F30F5004730F400F40BAC2953
:10235C00F50BAC29B12903300A168A1562250A1629
:10236C008A1102300A168A1562250A168A11023061
:10237C000A168A1562250A168A1108300A168A1559
:10238C0062250A168A1100300A168A1562250A1669
:10239C008A110C300A168A1562250A168A11003029
:1023AC000A168A1562250A168A1106300A168A152B
:1023BC0062250800031083120313550D560DD70028
:1023CC005708DD005D08031DF4290030D6000030ED
:1023DC00D5000030D4000030D30008005308D700DB
:1023EC005408D8005508D9005608DA001F300310DD
:1023FC00DA0CD90CD80CD70CFF3E031DFD2957085D
:10240C00DB005B08DC00D517FF30D305FF30D405AB
:10241C00FF30D5050030D6059630DD02DD1F2B2AA6
:10242C005D08803A973E031CEB2901300310D60C53
:10243C00D50CD40CD30CFF3E031D1C2A0130D70045
:10244C005708DD0703193E2A1B2A20305D020318AA
:10245C00EB295D0803193E2A0130D7000310D30D78
:10246C00D40DD50DD60DD70B342A0130DD022F2A11
:10247C005C0803190800D309D409D509D609D30A75
:10248C000319D40A0319D50A0319D60A0800003017
:10249C007005F80000307105F90080307205FA0003
:1024AC007F307305FB007B087A0479047804031DE4
:1024BC00672A0030F3000030F2000030F1000030E9
:1024CC00F00000307405F80000307505F90080301C
:1024DC007605FA007F307705FB007B087A047904D7
:1024EC007804031D812A0030F7000030F60000301C
:1024FC00F5000030F400F31FA72A0030F80000307C
:10250C00F9000030FA008030FB007008F802710806
:10251C00031C710F922A932AF9027208031C720F82
:10252C00982A992AFA027308031C730F9E2A9F2A71
:10253C00FB027B08F3007A08F2007908F1007808B6
:10254C00F000F71FCD2A0030F8000030F900003001
:10255C00FA008030FB007408F8027508031C750F34
:10256C00B82AB92AF9027608031C760FBE2ABF2AAC
:10257C00FA027708031C770FC42AC52AFB027B08D2
:10258C00F7007A08F6007908F5007808F400803036
:10259C00F3068030F70677087302031D08007608EF
:1025AC007202031D080075087102031D08007408EF
:1025BC007002080083120313A0002008031DF71FEC
:1025CC00F72A7409A2007509A3007609A4007709FB
:1025DC00A500A20A0319A30A0319A40A0319A50A40
:1025EC00FF2A7708A5007608A4007508A3007408D4
:1025FC00A2007708760475047404031D0E2B0030BA
:10260C00F7000030F6000030F5000030F400080050
:10261C009630F8007808A100FE30250503193F2BF1
:10262C000130F8007808A10701300310A50CA40CA8
:10263C00A30CA20CFF3E031D1B2B122B0130F80028
:10264C007808A1070130A207003003180130A30756
:10265C00003003180130A407003003180130A5071F
:10266C0001300310A50CA40CA30CA20CFF3E031DFF
:10267C00372BFF3025050319532B242B0230210255
:10268C00031C552B0130A1020130F8000310A20DE0
:10269C00A30DA40DA50DF80B4C2BA41F442B211836
:1026AC005F2BFF30A205FF30A3057F30A405FF3060
:1026BC00A5050310A10C2108F800F901FA01FB0192
:1026CC0018300310F80DF90DFA0DFB0DFF3E031D2C
:1026DC00672B7808A2047908A3047A08A4047B0861
:1026EC00A5042008031DF71F7C2BA5172508F70050
:1026FC002408F6002308F5002208F40008007008EE
:10270C00F8007108F9007208FA000310790D7A0DBF
:10271C00FB007B0883120313A5002508031D9F2BC8
:10272C000030F3000030F2000030F1000030F00017
:10273C0008007408F8007508F9007608FA00031010
:10274C00790D7A0DFB007B08A40024080319962B45
:10275C00F117FF30F005FF30F1050030F205F517E9
:10276C00FF30F405FF30F5050030F6050030A3000E
:10277C000030A2000030A1000030A0007F30A50284
:10278C0098302407F8007808A5021830F80078086B
:10279C00A4000130F8000310A00DA10DA20DA30D93
:1027AC00F80BD12B76087202031DE22B750871020F
:1027BC00031DE22B74087002031CEF2B7408F0024B
:1027CC007508031C750FF1027608031C760AF202D9
:1027DC00201401300310F00DF10DF20DFF3E031D1E
:1027EC00F02B0130A402031DCF2BA51F122C2508A2
:1027FC00803A973E031C962B01300310A30CA20CBD
:10280C00A10CA00CFF3E031D032C0130F80078082E
:10281C00A5070319252C022C183025020318962B1A
:10282C0025080319252C0130F8000310A00DA10D6B
:10283C00A20DA30DF80B1B2C0130A502162C23089E
:10284C00F3002208F2002108F1002008F000080033
:10285C008312031347088039C8004808D100470881
:10286C00C8004807C9004908D800C61B58145808A6
:10287C0003194E2C580A031D4B2C0030C700003096
:10288C00C6000030C5000030C400C617C701562C66
:10289C000030C7000030C6000030C5000030C40056
:1028AC0043088039C8004808D1064308C8004807C7
:1028BC00C9004908D900C21B591459080319742CB2
:1028CC00590A031D712C0030C3000030C2000030C7
:1028DC00C1000030C000C217C3017C2C0030C30003
:1028EC000030C2000030C1000030C0004308420478
:1028FC0041044004031D9B2C0030C7000030C6006F
:10290C000030C5000030C4008030C6047F30C704DE
:10291C005108C8004808C7044708C3004608C2004D
:10292C004508C1004408C00008005808031DA72C26
:10293C000030C3000030C2000030C1000030C000C5
:10294C0008005808C800C9014908CB0059084802BA
:10295C00CA00031CCB034A087F3ED2004B08031865
:10296C00013E003ED3004708D0004608CF00450882
:10297C00CE004408CD000030C7000030C600003047
:10298C00C5000030C4000030D7000030D600003045
:10299C00D5000030D400D9011A30590203181A2D71
:1029AC0059080319F62C0130C8000310CD0DCE0DBB
:1029BC00CF0DD00DC80BDB2C0130C8000310C40D9B
:1029CC00C50DC60DC70DC80BE42CD71B4414013024
:1029DC00C8000310D40DD50DD60DD70DC80BEF2C98
:1029EC0043085002031D042D42084F02031D042D01
:1029FC0041084E02031D042D40084D02031C152DE9
:102A0C0057174008CD024108031C410FCE02420863
:102A1C00031C420FCF024308031C430FD0020130AA
:102A2C00C8004808D907D22C50084F044E044D0456
:102A3C00031D5414C61B3D2D0130C8000310C40DDA
:102A4C00C50DC60DC70DC80B242DD71B4414013062
:102A5C00C8000310D40DD50DD60DD70DC80B2F2DD6
:102A6C00FF30D2070318D30AFF30D307202DD9012A
:102A7C00D71F562DFF305405C800FF305505C9002F
:102A8C00FF305605CA007F305705CB004B084A046F
:102A9C004904480403194418542D562DD901D90A58
:102AAC0059080319882D0130C40700300318013070
:102ABC00C507003003180130C60700300318013079
:102ACC00C707471C882D4408C8004508C90046089C
:102ADC00CA004708CB000130CC004B0DCB0CCA0C04
:102AEC00C90CC80CCC0B732D4B08C7004A08C60088
:102AFC004908C5004808C4000130D2070318D30A9E
:102B0C000030D3075308803AFF0080307F02031D4A
:102B1C00912DFF305202031CA12DFF3083120313A1
:102B2C00D2000030D3000030C7000030C6000030A7
:102B3C00C5000030C400831203135308803AFF0011
:102B4C0080307F02031DAC2D013052020318BB2DC7
:102B5C0083120313D201D3010030C7000030C6002A
:102B6C000030C5000030C400D10183120313520899
:102B7C00C8004808D800581CC52DC617C92D7F3071
:102B8C00C8004808C6055808C8000310480CC900FE
:102B9C004908C7008E2C8312031357088039DC00B8
:102BAC005C08E4005708DC005C07DD005D08E6000B
:102BBC00D61B661466080319F12D660A031DEE2D4B
:102BCC000030D7000030D6000030D5000030D400E3
:102BDC00D617D701F92D0030D7000030D6000030C1
:102BEC00D5000030D4005B088039DC005C08E500BF
:102BFC0065086406031D64175B08DC005C07DD00D8
:102C0C005D08E500DA1B6514650803191B2E650ABF
:102C1C00031D182E0030DB000030DA000030D90024
:102C2C000030D800DA17DB01232E0030DB00003037
:102C3C00DA000030D9000030D800660865020318AD
:102C4C00692E641F2D2E8030DC005C08E4066608BB
:102C5C00DC005C08E7006508DC005C08E60067083F
:102C6C00DC005C08E5005408DC005C08E700580850
:102C7C00DC005C08D4006708DC005C08D800550850
:102C8C00DC005C08E7005908DC005C08D50067082C
:102C9C00DC005C08D9005608DC005C08E7005A0828
:102CAC00DC005C08D6006708DC005C08DA0057081A
:102CBC00DC005C08E7005B08DC005C08D7006708F8
:102CCC00DC005C08DB00E7016508DC00DD015D0869
:102CDC00DF0066085C02DE00031CDF035F08803A3D
:102CEC00FF0080307F02031D7D2E1A305E02031C14
:102CFC00B62E8312031357085604550454040319B3
:102D0C00892E01308A2E0030DC005C08E700003090
:102D1C00D7000030D6000030D5000030D400650854
:102D2C00DC005C08E600BC2E671CA52E6708DC00E6
:102D3C0003105C0C0138DD005D08E700A72E0310C2
:102D4C00E70C5418E7170130DC00570DD70CD60CE4
:102D5C00D50CD40CDC0BAB2E0130DC005C08E60788
:102D6C008312031365086602031C9A2E641BFD2E46
:102D7C006608031DCA2E0030D7000030D600003084
:102D8C00D5000030D40008005808D40759080311A6
:102D9C000318013E031DD5075A0803110318013E01
:102DAC00031DD6075B0803110318013E031DD7074B
:102DBC00571C9F2F671CEB2E6708DC0003105C0C64
:102DCC000138DD005D08E700ED2E0310E70C541808
:102DDC00E7170130DC00570DD70CD60CD50CD40CF2
:102DEC00DC0BF12E0130DC005C08E6079F2F570846
:102DFC00803AFF005B08803A7F02031D0F2F5A08B0
:102E0C005602031D0F2F59085502031D0F2F58088A
:102E1C0054020318672FFF30DC00FF30DD00FF3059
:102E2C00DE00FF30DF005808E0005908E1005A08C6
:102E3C00E2005B08E3005408E0025508031C550F40
:102E4C00282F292FE1025608031C560F2E2F2F2F47
:102E5C00E2025708031C570F342F352FE30260088A
:102E6C00DC0761080318610F3C2F3D2FDD0762085A
:102E7C000318620F422F432FDE0763080318630AFF
:102E8C00DF075F08D7005E08D6005D08D5005C0838
:102E9C00D4008030DC005C08E406E709E70A670828
:102EAC00031D752F0130D407003003180130D507EE
:102EBC00003003180130D607003003180130D70753
:102ECC00752F5808D4025908031C590FD5025A08FB
:102EDC00031C5A0FD6025B08031C5B0FD702570862
:102EEC00560455045404031D9D2F6708031D9D2F84
:102EFC000030D7000030D6000030D5000030D400B0
:102F0C0008000130DC000310D40DD50DD60DD70D03
:102F1C00DC0B892FE71B5414671C962F0314972F77
:102F2C000310E70D660803199D2F0130E602D61F2A
:102F3C00872FE501E71FAA2F67087F39031954185B
:102F4C00A82FAA2FE501E50A65080319DD2F01302A
:102F5C00D407003003180130D507003003180130B6
:102F6C00D607003003180130D707571CDD2F540843
:102F7C00DC005508DD005608DE005708DF00013084
:102F8C00E0005F0DDF0CDE0CDD0CDC0CE00BC72F62
:102F9C005F08D7005E08D6005D08D5005C08D40039
:102FAC00660A0319DD2F0130DC005C08E607660AAF
:102FBC00031D6608031DED2F0030D7000030D6002E
:102FCC000030D5000030D40066080319E401661CFB
:102FDC00F12FD617F52F7F30DC005C08D60566087C
:102FEC00DC0003105C0CDD005D08D700E41F08005A
:042FFC00D7170800DB
:103A48007308720471047004031908008030F306C7
:103A5800080000300A168A1562250A168A150130F0
:103A68000A168A1562250800831203131F083F39B6
:103A780040389F00C7309F051F10831603139F17F8
:103A88001F17F0309F050800F000701C4F2D83129F
:103A980003130616522D831203130612F01C562D1B
:103AA8008616572D8612701D5B2D06175C2D061382
:103AB800F01D602D8617080086130800F300831296
:103AC8000313061173080A168A1548250A168A155B
:103AD8008312031386150630F2003030F100F10B23
:103AE800732DF20B732D0000831203138611080047
:103AF800F401F501701C862D7208F4070318F50A05
:103B08007308F50701300310F20DF30DFF3E031D96
:103B1800872D01300310F10CF00CFF3E031D8E2D94
:103B280070087104031D7E2D7508F1007408F000FB
:103B38000800831203131F147008F200F20DF20D2F
:103B4800F20D1F087206C73972069F000D30F30088
:103B5800FB30F200F20BAE2DF30BAE2DB32D83121A
:103B680003131F151F19B62D1E08F1008316031322
:103B78001E08F0000800803083120313EB066F085C
:103B8800D7006E08D6006D08D5006C08D4006B0805
:103B9800DB006A08DA006908D9006808D8000A1644
:103BA8008A11D125831203135708EB005608EA003F
:103BB8005508E9005408E8000800F800F401F50188
:103BC8007008F200F3017208F6007308F700781C19
:103BD800F32D7608F4070318F50A7708F50701307E
:103BE8000310F60DF70DFF3E031DF42D0310F80C1E
:103BF8007808031DEB2D7508F1007408F000080023
:103C0800700871040319312EF501F50AF11B182EFD
:103C180001300310F00DF10DFF3E031D0D2E013094
:103C2800F4007408F5070A2E71087302031D1E2E8E
:103C380070087202031C262E7008F2027108031C19
:103C4800F303F30201300310F10CF00CFF3E031DE7
:103C5800272E0130F502031D182E7308F100720893
:103C6800F0000800F40074080F39F1007108F20040
:103C78007408F039F1007108F30083120313061574
:103C88007308F10004300310F10CFF3E031D472EAA
:103C980071080A168A1548250A168A15831203130D
:103CA80086150D30F100F10B572E83120313861180
:103CB80072080A168A1548250A168A1583120313EC
:103CC80086150D30F100F10B672E83120313861150
:103CD8000800FB008030F5007508F90002307B060B
:103CE800031D782E4030832E03307B06031D7E2E65
:103CF8001430832E04307B06031D862E5430F500C5
:103D08007508F90774087907FF3EF5007508FA0089
:103D18007A08F50004300310F50CFF3E031D8F2EC2
:103D28007508F6007608F7007A080F39F500750867
:103D3800F80077080A168A1562250A168A1578087F
:103D48000A168A1562250800FB01FC01760877042B
:103D58000319DF2EFD01FD0AF71BBE2E01300310EB
:103D6800F60DF70DFF3E031DB32E0130FA007A0859
:103D7800FD07B02E01300310FB0DFC0DFF3E031DA7
:103D8800BF2E77087902031DCB2E76087802031C14
:103D9800D42E7608F8027708031CF903F9027B147D
:103DA80001300310F70CF60CFF3E031DD52E013031
:103DB800FD02031DBE2E7C08F7007B08F6000800F4
:103DC800FA01FB017A087507F8007608F70003186E
:103DD800F70AFA1BF7037708F90079088312031327
:103DE800FF00780884000A168A1100200A168A152E
:103DF800003A031908007A087507F8007608F700F2
:103E08000318F70AFA1BF7037708F90079088312F1
:103E18000313FF00780884000A168A1100200A1686
:103E28008A150A168A1536260A168A150130FA07DF
:103E38000318FB0A0030FB07E62E00307005F80077
:103E480000307105F90080307205FA007F30730583
:103E5800FB007B087A0479047804031D3B2F0030AB
:103E6800F3000030F2000030F1000030F0000030C4
:103E78007405F80000307505F90080307605FA0001
:103E88007F307705FB007B087A0479047804031DEA
:103E9800552F0030F7000030F6000030F5000030F4
:103EA800F40077087306031D632F76087206031D56
:103EB800632F75087106031D632F740870060319B4
:103EC800672F0310080003140800F601F31F732F6F
:103ED800F209F309F20A0319F30AF601F60AF11FC7
:103EE8007A2FF009F109F00A0319F10A7008710430
:103EF8000319A72FF501F50AF11B8E2F01300310C6
:103F0800F00DF10DFF3E031D832F0130F4007408FE
:103F1800F507802F71087302031D942F7008720231
:103F2800031C9C2F7008F2027108031CF303F302B0
:103F380001300310F10CF00CFF3E031D9D2F0130E2
:103F4800F502031D8E2F76080319AF2FF209F30926
:103F5800F20A0319F30A7308F1007208F000080066
:103F680073087204710470040319F72FF901F90A30
:103F7800F31BCC2F0130F8000310F00DF10DF20DFA
:103F8800F30DF80BC02F0130F8007808F907BC2FA3
:103F980073087702031DDA2F72087602031DDA2FE1
:103FA80071087502031DDA2F70087402031CEA2FCA
:103FB8007008F4027108031C710FF5027208031CE3
:103FC800720FF6027308031C730FF7020130031017
:103FD800F30CF20CF10CF00CFF3E031DEB2F01303B
:103FE800F902031DCC2F7708F3007608F200750854
:083FF800F1007408F00008005C
:02400E00393F38
:00000001FF
