:020000040000FA
:060000000A128A11FA2F1A
:100E1200831203131F083F3940389F00C7309F05D4
:100E22001F10831603139F171F17F0309F0508002A
:100E3200FF308316031386008312031386010A12FE
:100E42008A1109270A128A11D03083120313A600CD
:100E52000730A7000A128A1131270A128A11302F8D
:100E6200831203132708A9002608A8002908FA00FC
:100E72002808F9000310F90DFA0D0310F90DFA0D07
:100E82000310F90DFA0D0310F90DFA0D7908F000AF
:100E92007A08F1000030F11BFF30F200F30000305D
:100EA200F7003D30F6000930F5000030F4000A1278
:100EB2008A116B277008FF3E831603139200831278
:100EC2000313971517151214921012158316031394
:100ED2000711080083120313A101F31F7D2FF009EC
:100EE200F109F209F309F00A0319F10A0319F20AE6
:100EF2000319F30AA101A10AF71F8E2FF409F509BC
:100F0200F609F709F40A0319F50A0319F60A03198F
:100F1200F70A0130F8007808A1060030A500003079
:100F2200A4000030A3000030A20073087204710410
:100F320070040319E32FA001A00AF31BAE2F0130A6
:100F4200F8000310F00DF10DF20DF30DF80BA22FC6
:100F52000130F8007808A0079E2F0130F800031036
:100F6200A20DA30DA40DA50DF80BB02F73087702E7
:100F7200031DC52F72087602031DC52F7108750265
:100F8200031DC52F70087402031CD62F7008F402CB
:100F92007108031C710FF5027208031C720FF6022E
:100FA2007308031C730FF702221401300310F30CB1
:100FB200F20CF10CF00CFF3E031DD72F0130A00202
:100FC200031DAE2F21080319F12FA209A309A409B9
:100FD200A509A20A0319A30A0319A40A0319A50A57
:100FE2002508F3002408F2002308F1002208F0008B
:0E0FF2000800FB01FC0183010A128A11192F6D
:02400E00393F38
:00000001FF
