:020000040000FA
:060000000A128A11F52F1F
:10000A00F30083120313081173080A128A15642471
:10001A000A128A118312031388150630F20030304F
:10002A00F100F10B1628F20B1628000083120313B5
:10003A008811080083120313DE005E08031984285E
:10004A00B4305E02031874284230BD008C30BC0004
:10005A000030BB000030BA003E30A300CC30A20012
:10006A00CC30A100CD30A0005E08D200D301D4016B
:10007A00D5015508F3005408F2005308F10052085C
:10008A00F00000300A128A155D270A128A117308D5
:10009A0083120313A7007208A6007108A50070084E
:1000AA00A4000A128A11E0240A128A118312031385
:1000BA002308C1002208C0002108BF002008BE0092
:1000CA000A128A11B1220A128A11831203133D08F5
:1000DA00DD003C08DC003B08DB003A087B284330A3
:1000EA00DD000E30DC000030DB000030DA005D0895
:1000FA00D9005C08D8005B08D7005A088B28423020
:10010A00D9008C30D8000030D7000030D60059080A
:10011A00D1005808D0005708CF005608CE00080072
:10012A0083120313AB002130A3002308A600013079
:10013A00A007FF30200784000A128A1500200A123D
:10014A008A11A3002308AC002C080319682925305A
:10015A002C060319BC282C08A3002B0884002308AA
:10016A00831380000130A3002308AB079C28A70152
:10017A000130A007FF30200784000A128A150020E8
:10018A000A128A11AC00A300A4012408003A031938
:10019A00CF289C282308003A03196829643A0319CE
:1001AA00DA280D3A0319DA289C28260884008313D2
:1001BA000008A900840A0008AA000230A300230844
:1001CA00A607AA1FF1280330A3002308A704A90938
:1001DA00AA09A90A0319AA0AAC01AC0A2C08A300A5
:1001EA002307013E84000A128A1500200A128A1186
:1001FA00A4000A128A1500200A128A11A5002508ED
:10020A002A02031D0A2924082902031C1429013081
:10021A00A3002308AC0705302C06031DF328270882
:10022A000339031923292D30A3002B08840023083E
:10023A00831380000130A3002308AB072C08A30016
:10024A002308A800FF30A3002308A807280A0319D7
:10025A009C280A30F8000030F9002808A300230778
:10026A00013E84000A128A1500200A128A11F0003F
:10027A000A128A1500200A128A11F1002A08F300CC
:10028A002908F2000A128A15BD250A128A11710874
:10029A00FB007008FA000A128A15E2240A128A116F
:1002AA007808303E83120313A4002408AC002C08FB
:1002BA00A3002B0884002308831380000130A300C5
:1002CA002308AB0727292B08840083138001080021
:1002DA00FF308316031387008312031387018316E3
:1002EA00031386018312031386010A128A15542402
:1002FA000A128A110A128A158F260A128A1183167D
:10030A000313B701B801B001B101B201B301B601DB
:10031A00003083120313AD00AE000030AF00B0000E
:10032A000A128A1543260A128A110D308312031300
:10033A00EF00FB30EE00EE0BA029EF0BA029831291
:10034A000313071CC3290030831603133802B43081
:10035A00031937020318C3290130B7070318B80A6B
:10036A000030B807C33083120313EF00CC30EE001D
:10037A00EE0BBD29EF0BBD290000DD298312871C76
:10038A00DD2983160313370838040319DD290130E0
:10039A00B7020030031CB803B802C3308312031338
:1003AA00EF00CC30EE00EE0BD829EF0BD829000075
:1003BA008316031331083806031DE529300837066A
:1003CA000319242A380883120313AE008316031371
:1003DA00370883120313AD008316031336088312FA
:1003EA000313EE00EF016E08AF006F08B0000A12A7
:1003FA008A1543260A128A118316031337080A122A
:10040A008A154B250A128A11831603133808831298
:10041A000313AE0083160313370883120313AD00C8
:10042A006330AF000030B0000A128A1543260A1260
:10043A008A11831603133808B1003708B000003058
:10044A000A128A159C240A128A1171088316031348
:10045A00B5007008B40033083506031D362A320881
:10046A0034060319A52A3408F0003508F100F20110
:10047A00F30100300A128A155D270A128A117308DD
:10048A0083120313A7007208A6007108A50070085A
:10049A00A4003E30A3003430A2002D30A1000B305E
:1004AA00A0000A128A11E0240A128A118312031385
:1004BA002308E2002208E1002108E0002008DF000A
:1004CA000A128A15F0260A128A11831203135F0888
:1004DA00EE006E0883160313B6003808831203135E
:1004EA00AE0083160313370883120313AD00831675
:1004FA000313360883120313EE00EF016E08AF00F0
:10050A006F08B0000A128A1543260A128A11831646
:10051A00031336080A128A1584250A128A118316C9
:10052A000313360883120313EE00EF016E088316D5
:10053A000313B200831203136F0883160313B30065
:10054A00413083120313EF00ED30EE00EE0BAB2ABD
:10055A00EF0BAB2AB02AA429831203133D08803972
:10056A00C2004208CA003D08C2004207C30043084D
:10057A00CC00BC1B4C144C080319D12A4C0A031D8D
:10058A00CE2A0030BD000030BC000030BB00003075
:10059A00BA00BC17BD01D92A0030BD000030BC002A
:1005AA000030BB000030BA0041088039C20042085E
:1005BA00CB004B084A06031D4A174108C2004207EE
:1005CA00C3004308CB00C01B4B144B080319FB2A7A
:1005DA004B0A031DF82A0030C1000030C000003069
:1005EA00BF000030BE00C017C101032B0030C1009C
:1005FA000030C0000030BF000030BE004C084B0283
:10060A000318492B4A1F0D2B8030C2004208CA0624
:10061A004C08C2004208CD004B08C2004208CC0078
:10062A004D08C2004208CB003A08C2004208CD0079
:10063A003E08C2004208BA004D08C2004208BE0085
:10064A003B08C2004208CD003F08C2004208BB0076
:10065A004D08C2004208BF003C08C2004208CD0053
:10066A004008C2004208BC004D08C2004208C0004F
:10067A003D08C2004208CD004108C2004208BD0040
:10068A004D08C2004208C100CD014B08C200C30197
:10069A004308C5004C084202C400031CC5034508B0
:1006AA00803AFF0080307F02031D5D2B1A3044021E
:1006BA00031C962B831203133D083C043B043A04A3
:1006CA000319692B01306A2B0030C2004208CD00A1
:1006DA000030BD000030BC000030BB000030BA0062
:1006EA004B08C2004208CC009C2B4D1C852B4D08A0
:1006FA00C2000310420C0138C3004308CD00872B07
:10070A000310CD0C3A18CD170130C2003D0DBD0CB7
:10071A00BC0CBB0CBA0CC20B8B2B0130C2004208BA
:10072A00CC07831203134B084C02031C7A2B4A1B77
:10073A00DD2B4C08031DAA2B0030BD000030BC0085
:10074A000030BB000030BA0008003E08BA073F0874
:10075A0003110318013E031DBB07400803110318C8
:10076A00013E031DBC07410803110318013E031D86
:10077A00BD073D1C7F2C4D1CCB2B4D08C20003101E
:10078A00420C0138C3004308CD00CD2B0310CD0C19
:10079A003A18CD170130C2003D0DBD0CBC0CBB0C84
:1007AA00BA0CC20BD12B0130C2004208CC077F2CF5
:1007BA003D08803AFF004108803A7F02031DEF2B73
:1007CA0040083C02031DEF2B3F083B02031DEF2BA1
:1007DA003E083A020318472CFF30C200FF30C3001C
:1007EA00FF30C400FF30C5003E08C6003F08C700FE
:1007FA004008C8004108C9003A08C6023B08031C61
:10080A003B0F082C092CC7023C08031C3C0F0E2C7A
:10081A000F2CC8023D08031C3D0F142C152CC902CD
:10082A004608C20747080318470F1C2C1D2CC3078C
:10083A0048080318480F222C232CC4074908031818
:10084A00490AC5074508BD004408BC004308BB0067
:10085A004208BA008030C2004208CA06CD09CD0A51
:10086A004D08031D552C0130BA070030031801301A
:10087A00BB07003003180130BC07003003180130F1
:10088A00BD07552C3E08BA023F08031C3F0FBB02A6
:10089A004008031C400FBC024108031C410FBD0263
:1008AA003D083C043B043A04031D7D2C4D08031DFE
:1008BA007D2C0030BD000030BC000030BB00003091
:1008CA00BA0008000130C2000310BA0DBB0DBC0DFE
:1008DA00BD0DC20B692CCD1B3A144D1C762C03148A
:1008EA00772C0310CD0D4C0803197D2C0130CC0256
:1008FA00BC1F672CCB01CD1F8A2C4D087F390319E9
:10090A003A18882C8A2CCB01CB0A4B080319BD2C28
:10091A000130BA07003003180130BB070030031852
:10092A000130BC07003003180130BD073D1CBD2C47
:10093A003A08C2003B08C3003C08C4003D08C50091
:10094A000130C600450DC50CC40CC30CC20CC60B45
:10095A00A72C4508BD004408BC004308BB00420858
:10096A00BA004C0A0319BD2C0130C2004208CC0758
:10097A004C0A031D4C08031DCD2C0030BD0000306D
:10098A00BC000030BB000030BA004C080319CA0191
:10099A004C1CD12CBC17D52C7F30C2004208BC0598
:1009AA004C08C2000310420CC3004308BD00CA1F12
:1009BA000800BD1708008312031323088039A80012
:1009CA002808AD002308A8002807A9002908B300B1
:1009DA00A21B331433080319FF2C330A031DFD2C01
:1009EA000030A3000030A2000030A1000030A000B7
:1009FA00A217072D0030A3000030A2000030A1008A
:100A0A000030A00027088039A8002808AD0627086A
:100A1A00A8002807A9002908B200A61B3214320828
:100A2A000319242D320A031D222D0030A70000309D
:100A3A00A6000030A5000030A400A6172C2D003017
:100A4A00A7000030A6000030A5000030A40032083C
:100A5A00031D3308031D3A2D0030A3000030A20005
:100A6A000030A1000030A00008002008A8002808D3
:100A7A00F00026080A128A15BF240A128A11710880
:100A8A0083120313B9007008B8003808A800A90136
:100A9A00AA01AB012B08B1002A08B0002908AF004F
:100AAA002808AE003908A800A901AA01AB012B0841
:100ABA00B7002A08B6002908B5002808B40021089A
:100ACA00A8002808F00025080A128A15BF240A126D
:100ADA008A11710883120313B9007008B800380824
:100AEA00A800A901AA01AB012808AE072908031129
:100AFA000318013E031DAF072A0803110318013E1C
:100B0A00031DB0072B0803110318013E031DB1078B
:100B1A003908A800A901AA01AB012808B4072908C5
:100B2A0003110318013E031DB5072A080311031810
:100B3A00013E031DB6072B0803110318013E031DCE
:100B4A00B7072208A8002808F00024080A128A1504
:100B5A00BF240A128A11710883120313B90070089C
:100B6A00B8003808A800A901AA01AB012808AE07F5
:100B7A00290803110318013E031DAF072A080311B0
:100B8A000318013E031DB0072B0803110318013E89
:100B9A00031DB1073908A800A901AA01AB01280859
:100BAA00B407290803110318013E031DB5072A08D3
:100BBA0003110318013E031DB6072B08031103187E
:100BCA00013E031DB7070830A8000310AE0DAF0D94
:100BDA00B00DB10DA80BEA2D2108A8002808F000D5
:100BEA0024080A128A15BF240A128A11710883126C
:100BFA000313B9007008B8003808A8003908A9001A
:100C0A00AA01AB012808AE07290803110318013EFF
:100C1A00031DAF072A0803110318013E031DB0077D
:100C2A002B0803110318013E031DB1072008A80071
:100C3A002808F00025080A128A15BF240A128A1108
:100C4A00710883120313B9007008B8003808A800A5
:100C5A003908A900AA01AB012808AE07290803111F
:100C6A000318013E031DAF072A0803110318013EAA
:100C7A00031DB0072B0803110318013E031DB1071A
:100C8A000830A8000310AE0DAF0DB00DB10DA80BC2
:100C9A00472E2008A8002808F00024080A128A15FE
:100CAA00BF240A128A11710883120313B90070084B
:100CBA00B8003808A8003908A900AA01AB01280819
:100CCA00AE07290803110318013E031DAF072A08BE
:100CDA0003110318013E031DB0072B080311031863
:100CEA00013E031DB1072108A8002808F0002608C4
:100CFA000A128A15BF240A128A1171088312031371
:100D0A00B9007008B8003808A8003908A900AA0173
:100D1A00AB012808B407290803110318013E031D73
:100D2A00B5072A0803110318013E031DB6072B084D
:100D3A0003110318013E031DB7072208A80028085B
:100D4A00F00025080A128A15BF240A128A117108AE
:100D5A0083120313B9007008B8003808A8003908CC
:100D6A00A900AA01AB012808B4072908031103182E
:100D7A00013E031DB5072A0803110318013E031D8E
:100D8A00B6072B0803110318013E031DB7072208F3
:100D9A00A8002808F00026080A128A15BF240A1299
:100DAA008A11710883120313B9007008B800380851
:100DBA00A8003908A900AA01AB0108300310A80D40
:100DCA00A90DAA0DAB0DFF3E031DE32E2808B4079B
:100DDA00290803110318013E031DB5072A08031148
:100DEA000318013E031DB6072B0803110318013E21
:100DFA00031DB7072E08A8002F08A9003008AA006B
:100E0A003108AB0018300310AB0CAA0CA90CA80CC3
:100E1A00FF3E031D082F2808B407290803110318E9
:100E2A00013E031DB5072A0803110318013E031DDD
:100E3A00B6072B0803110318013E031DB707083034
:100E4A00A8000310AE0DAF0DB00DB10DA80B262FE3
:100E5A0033083207A800A901A90D2808823EB80064
:100E6A0029080318013EFF3EB900B61B572F01306F
:100E7A00A8000310B40DB50DB60DB70DA80B3E2F83
:100E8A00B11B34140130A8000310AE0DAF0DB00D24
:100E9A00B10DA80B492FFF30B8070318B90AFF3064
:100EAA00B9073A2FB201B11F702FFF302E05A800E3
:100EBA00FF302F05A900FF303005AA007F30310529
:100ECA00AB002B082A0429042804031934186E2FAE
:100EDA00702FB201B20A32080319A22F0130B407E7
:100EEA00003003180130B507003003180130B60787
:100EFA00003003180130B707371CA22F3408A800A6
:100F0A003508A9003608AA003708AB000130AC0042
:100F1A002B0DAB0CAA0CA90CA80CAC0B8D2F2B0813
:100F2A00B7002A08B6002908B5002808B40001301D
:100F3A00B8070318B90A0030B9073908803AFF0020
:100F4A0080307F02031DAB2FFF303802031CB82FFD
:100F5A007F3083120313B7008030B6000030B5002B
:100F6A000030B400E82F831203133908803AFF00D7
:100F7A0080307F02031DC32F013038020318D12F9E
:100F8A00003083120313B7000030B6000030B500FA
:100F9A000030B400AD01E82F831203133808A8000B
:100FAA002808B300FF30B405FF30B5057F30B60519
:100FBA000030B7053318B6173308A8000310280CF9
:100FCA00A9002908B7002D08A8002808B70437087F
:100FDA00A3003608A2003508A1003408A0000800C2
:100FEA008313A0308400B0300A128A154124830189
:100FFA000A128A116D2908308A000408840A8207B5
:10100A000034013400340A34003464340034E834DF
:10101A0003341034273441346E34673475346C34F5
:10102A006534203431343A3420342534643400347D
:10103A0041346E34673475346C3465342034323458
:0A104A003A342034253464340034B5
:1018820064008001840A0406031900340406422C11
:1018920000300A128A1105200A128A1501300A1232
:1018A2008A1105200800831203131F083F394038AC
:1018B2009F00C7309F051F10831603139F171F1722
:1018C200F0309F050800F000701C6B2C831203138C
:1018D20008166E2C831203130812F01C722C881641
:1018E200732C8812701D772C0817782C0813F01DA2
:1018F2007C2C8817080088130800F800F601F7010D
:1019020076087807F5007508840083130008031928
:10191200080076087807F5007508840000080A12A6
:101922008A1514250A128A150130F6070318F70AD8
:101932000030F707812CF400831203131F1474087C
:10194200F200F20DF20DF20D1F087206C73972068F
:101952009F000D30F300FB30F200F20BAE2CF30BC4
:10196200AE2CB32C831203131F151F19B62C1E089D
:10197200F100831603131E08F0000800F800F401BA
:10198200F5017008F200F3017208F6007308F7001F
:10199200781CD12C7608F4070318F50A7708F507A6
:1019A20001300310F60DF70DFF3E031DD22C03107C
:1019B200F80C7808031DC92C7508F1007408F000B2
:1019C20008007808790403190F2DFD01FD0AF91B9F
:1019D200F62C01300310F80DF90DFF3E031DEB2C20
:1019E2000130FC007C08FD07E82C79087B02031D0E
:1019F200FC2C78087A02031C042D7808FA02790874
:101A0200031CFB03FB0201300310F90CF80CFF3E30
:101A1200031D052D0130FD02031DF62C7B08F90084
:101A22007A08F8000800F40074080F39F100710810
:101A3200F2007408F039F1007108F3008312031305
:101A420008157308F10004300310F10CFF3E031D6A
:101A5200252D71080A128A1564240A128A15831226
:101A6200031388150D30F100F10B352D831203138A
:101A7200881172080A128A1564240A128A158312BE
:101A8200031388150D30F100F10B452D831203135A
:101A92008811080083120313ED00EC016D080A128D
:101AA2008A111F200A128A15831203135108E200B9
:101AB2005008E1004F08E0004E08DF000A128A15C4
:101AC200F0260A128A15831203135F08EA006A08D5
:101AD200ED000614013083120313EC07FF306C078C
:101AE200EA006D086A020318782D00006B2D0610BB
:101AF2000D3083120313EB00FB30EA00EA0B7F2D5B
:101B0200EB0B7F2D080083120313ED00EC016D082F
:101B12000A128A111F200A128A158312031351080E
:101B2200E2005008E1004F08E0004E08DF000A1210
:101B32008A15F0260A128A15831203135F08EA0037
:101B42006A08ED008614013083120313EC07FF309C
:101B52006C07EA006D086A020318B12D0000A42D7B
:101B620086100D3083120313EB00FB30EA00EA0B00
:101B7200B82DEB0BB82D0800F501F60170087104C1
:101B82000319F42DF701F70AF11BD32D01300310CD
:101B9200F00DF10DFF3E031DC82D0130F400740855
:101BA200F707C52D01300310F50DF60DFF3E031D9D
:101BB200D42D71087302031DE02D70087202031CFC
:101BC200E92D7008F2027108031CF303F302751485
:101BD20001300310F10CF00CFF3E031DEA2D013021
:101BE200F702031DD32D7608F1007508F0000800F6
:101BF200F7007703031D1E2E74087F3EF50075085B
:101C0200FA007A08F50004300310F50CFF3E031DBC
:101C1200052E7508F6007608F8007A080F39F500E7
:101C22007508F90078080A128A1105200A128A1525
:101C320079080A128A110520080002307706031D6E
:101C420008007408BF3EF5007508FA007A08F5002E
:101C520004300310F50CFF3E031D2A2E7508F60012
:101C62007608F8007A080F39F5007508F900780847
:101C72000A128A1105200A128A1579080A128A1193
:101C8200052008000A128A1549240A128A15F4014D
:101C9200F40A01300A128A15F9250A128A150B3044
:101CA20083120313B1003108A0002E08A2002D08F0
:101CB200A100A0300A128A1195200A128A15A030BA
:101CC2000A128A157E240A128A15F401F40A0230D5
:101CD2000A128A15F9250A128A151830831203137B
:101CE200B1003108A0003008A2002F08A100A030E6
:101CF2000A128A1195200A128A15A0300A128A1530
:101D02007E240A128A150D3083120313B200FB30AF
:101D1200B100B10B8A2EB20B8A2E08008316031370
:101D2200880183120313880100300A128A15642481
:101D32000A128A151A30F500F830F400F40B9F2EBF
:101D4200F50B9F2E000003300A128A1105200A1299
:101D52008A150730F5007D30F400F40BAE2EF50B3A
:101D6200AE2E03300A128A1105200A128A150F308C
:101D7200F5004730F400F40BBC2EF50BBC2EC12E3F
:101D820003300A128A1105200A128A1502300A1239
:101D92008A1105200A128A1502300A128A110520B8
:101DA2000A128A1508300A128A1105200A128A15A7
:101DB20000300A128A1105200A128A150C300A1202
:101DC2008A1105200A128A1500300A128A1105208A
:101DD2000A128A1506300A128A1105200800031019
:101DE20083120313610D620DE3006308E9006908C1
:101DF200031D042F0030E2000030E1000030E0005B
:101E02000030DF0008005F08E3006008E4006108BA
:101E1200E5006208E6001F300310E60CE50CE40C56
:101E2200E30CFF3E031D0D2F6308E7006708E8007F
:101E3200E117FF30DF05FF30E005FF30E10500303C
:101E4200E2059630E902E91F3B2F6908803A973E86
:101E5200031CFB2E01300310E20CE10CE00CDF0C42
:101E6200FF3E031D2C2F0130E3006308E90703192D
:101E72004E2F2B2F203069020318FB2E69080319FD
:101E82004E2F0130E3000310DF0DE00DE10DE20DF6
:101E9200E30B442F0130E9023F2F680803190800C1
:101EA200DF09E009E109E209DF0A0319E00A03197F
:101EB200E10A0319E20A0800F8007808031DF31F7B
:101EC200722F7009FA007109FB007209FC00730994
:101ED200FD00FA0A0319FB0A0319FC0A0319FD0A99
:101EE2007A2F7308FD007208FC007108FB0070086D
:101EF200FA007308720471047004031D892F003004
:101F0200F3000030F2000030F1000030F000080071
:101F12009630F4007408F900FE307D050319BA2FDB
:101F22000130F4007408F90701300310FD0CFC0CB9
:101F3200FB0CFA0CFF3E031D962F8D2F0130F4008F
:101F42007408F9070130FA07003003180130FB0763
:101F5200003003180130FC07003003180130FD0780
:101F620001300310FD0CFC0CFB0CFA0CFF3E031DB0
:101F7200B22FFF307D050319CE2F9F2F0230790239
:101F8200031CD02F0130F9020130F4000310FA0DC6
:101F9200FB0DFC0DFD0DF40BC72FFC1FBF2F791895
:101FA200DA2FFF30FA05FF30FB057F30FC05FF30EA
:101FB200FD050310F90C7908F400F501F601F701AB
:101FC20018300310F40DF50DF60DF70DFF3E031D4D
:101FD200E22F7408FA047508FB047608FC047708FB
:101FE200FD047808031DF31FF72FFD177D08F3008A
:0E1FF2007C08F2007B08F1007A08F00008007D
:02400E00393F38
:00000001FF
